{
  "abi": [
    {
      "inputs": [
        {
          "internalType": "address",
          "name": "_treasuryTokenAddress",
          "type": "address"
        },
        {
          "internalType": "address",
          "name": "_proxyFactory",
          "type": "address"
        },
        {
          "internalType": "address",
          "name": "_voteProxyRegistry",
          "type": "address"
        }
      ],
      "stateMutability": "nonpayable",
      "type": "constructor"
    },
    {
      "inputs": [],
      "name": "OnlyFactory",
      "type": "error"
    },
    {
      "anonymous": false,
      "inputs": [
        {
          "indexed": true,
          "internalType": "address",
          "name": "previousOwner",
          "type": "address"
        },
        {
          "indexed": true,
          "internalType": "address",
          "name": "newOwner",
          "type": "address"
        }
      ],
      "name": "OwnershipTransferred",
      "type": "event"
    },
    {
      "anonymous": false,
      "inputs": [
        {
          "indexed": true,
          "internalType": "address",
          "name": "proxyAddress",
          "type": "address"
        },
        {
          "indexed": false,
          "internalType": "address",
          "name": "_governanceTokenAddress",
          "type": "address"
        }
      ],
      "name": "VoteProxyDeployed",
      "type": "event"
    },
    {
      "inputs": [
        {
          "internalType": "address",
          "name": "_token",
          "type": "address"
        },
        {
          "internalType": "address",
          "name": "_priceFeed",
          "type": "address"
        }
      ],
      "name": "addAllowedTokens",
      "outputs": [],
      "stateMutability": "nonpayable",
      "type": "function"
    },
    {
      "inputs": [
        {
          "internalType": "uint256",
          "name": "_tsryAmount",
          "type": "uint256"
        },
        {
          "internalType": "address",
          "name": "_governanceToken",
          "type": "address"
        },
        {
          "internalType": "address",
          "name": "_user",
          "type": "address"
        },
        {
          "internalType": "uint256",
          "name": "_tsryPrice",
          "type": "uint256"
        }
      ],
      "name": "fundProxy",
      "outputs": [],
      "stateMutability": "nonpayable",
      "type": "function"
    },
    {
      "inputs": [
        {
          "internalType": "address",
          "name": "_token",
          "type": "address"
        }
      ],
      "name": "getGTPrice",
      "outputs": [
        {
          "internalType": "uint256",
          "name": "",
          "type": "uint256"
        }
      ],
      "stateMutability": "view",
      "type": "function"
    },
    {
      "inputs": [
        {
          "internalType": "uint256",
          "name": "_usdAmountTsry",
          "type": "uint256"
        },
        {
          "internalType": "address",
          "name": "_governanceToken",
          "type": "address"
        }
      ],
      "name": "getGTamount",
      "outputs": [
        {
          "internalType": "uint256",
          "name": "",
          "type": "uint256"
        }
      ],
      "stateMutability": "view",
      "type": "function"
    },
    {
      "inputs": [
        {
          "internalType": "uint256",
          "name": "_tsryAmount",
          "type": "uint256"
        },
        {
          "internalType": "address",
          "name": "_token",
          "type": "address"
        },
        {
          "internalType": "uint256",
          "name": "_tsryPrice",
          "type": "uint256"
        }
      ],
      "name": "getUserGTAllowance",
      "outputs": [
        {
          "internalType": "uint256",
          "name": "",
          "type": "uint256"
        }
      ],
      "stateMutability": "view",
      "type": "function"
    },
    {
      "inputs": [],
      "name": "owner",
      "outputs": [
        {
          "internalType": "address",
          "name": "",
          "type": "address"
        }
      ],
      "stateMutability": "view",
      "type": "function"
    },
    {
      "inputs": [],
      "name": "proxyFactory",
      "outputs": [
        {
          "internalType": "address",
          "name": "",
          "type": "address"
        }
      ],
      "stateMutability": "view",
      "type": "function"
    },
    {
      "inputs": [],
      "name": "renounceOwnership",
      "outputs": [],
      "stateMutability": "nonpayable",
      "type": "function"
    },
    {
      "inputs": [
        {
          "internalType": "uint256",
          "name": "_amount",
          "type": "uint256"
        },
        {
          "internalType": "address",
          "name": "_token",
          "type": "address"
        }
      ],
      "name": "stakeToEarn",
      "outputs": [],
      "stateMutability": "nonpayable",
      "type": "function"
    },
    {
      "inputs": [
        {
          "internalType": "address",
          "name": "",
          "type": "address"
        }
      ],
      "name": "tokenToPriceFeed",
      "outputs": [
        {
          "internalType": "address",
          "name": "",
          "type": "address"
        }
      ],
      "stateMutability": "view",
      "type": "function"
    },
    {
      "inputs": [
        {
          "internalType": "address",
          "name": "newOwner",
          "type": "address"
        }
      ],
      "name": "transferOwnership",
      "outputs": [],
      "stateMutability": "nonpayable",
      "type": "function"
    },
    {
      "inputs": [],
      "name": "treasuryToken",
      "outputs": [
        {
          "internalType": "contract IERC20",
          "name": "",
          "type": "address"
        }
      ],
      "stateMutability": "view",
      "type": "function"
    },
    {
      "inputs": [
        {
          "internalType": "uint256",
          "name": "_tsryAmount",
          "type": "uint256"
        },
        {
          "internalType": "uint256",
          "name": "_tsryPrice",
          "type": "uint256"
        }
      ],
      "name": "treasuryValue",
      "outputs": [
        {
          "internalType": "uint256",
          "name": "",
          "type": "uint256"
        }
      ],
      "stateMutability": "pure",
      "type": "function"
    },
    {
      "inputs": [],
      "name": "voteProxyRegistry",
      "outputs": [
        {
          "internalType": "address",
          "name": "",
          "type": "address"
        }
      ],
      "stateMutability": "view",
      "type": "function"
    },
    {
      "inputs": [
        {
          "internalType": "address",
          "name": "",
          "type": "address"
        }
      ],
      "name": "whiteListTokens",
      "outputs": [
        {
          "internalType": "bool",
          "name": "",
          "type": "bool"
        }
      ],
      "stateMutability": "view",
      "type": "function"
    }
  ],
  "bytecode": "608060405234801561001057600080fd5b50604051610cf8380380610cf883398101604081905261002f916100e6565b6100383361007a565b600180546001600160a01b039485166001600160a01b031991821617909155600280549385169382169390931790925560038054919093169116179055610129565b600080546001600160a01b038381166001600160a01b0319831681178455604051919092169283917f8be0079c531659141344cd1fd0a4f28419497f9722a3daafe3b4186f6b6457e09190a35050565b80516001600160a01b03811681146100e157600080fd5b919050565b6000806000606084860312156100fb57600080fd5b610104846100ca565b9250610112602085016100ca565b9150610120604085016100ca565b90509250925092565b610bc0806101386000396000f3fe608060405234801561001057600080fd5b50600436106100f55760003560e01c80639860d67311610097578063c10f1a7511610066578063c10f1a7514610201578063d1a5852414610214578063e6e8712d14610227578063f2fde38b1461025a57600080fd5b80639860d673146101b5578063ab5a319f146101c8578063b1af0a33146101db578063b2ce514b146101ee57600080fd5b8063715018a6116100d3578063715018a6146101525780638078f22c1461015a5780638da5cb5b1461018357806393d6d15c1461019457600080fd5b806328cae1ad146100fa5780635795dc8b1461012a5780636f4106e01461013f575b600080fd5b60035461010d906001600160a01b031681565b6040516001600160a01b0390911681526020015b60405180910390f35b61013d610138366004610983565b61026d565b005b61013d61014d3660046109af565b6103a8565b61013d6105de565b61010d6101683660046109f3565b6005602052600090815260409020546001600160a01b031681565b6000546001600160a01b031661010d565b6101a76101a2366004610a15565b6105f2565b604051908152602001610121565b6101a76101c33660046109f3565b610619565b6101a76101d6366004610983565b6106ba565b61013d6101e9366004610a37565b6106d2565b60015461010d906001600160a01b031681565b60025461010d906001600160a01b031681565b6101a7610222366004610a61565b61071f565b61024a6102353660046109f3565b60046020526000908152604090205460ff1681565b6040519015158152602001610121565b61013d6102683660046109f3565b6107c8565b600082116102c25760405162461bcd60e51b815260206004820152601a60248201527f416d6f756e74206d757374206265206d6f7265207468616e203000000000000060448201526064015b60405180910390fd5b6001600160a01b03811660009081526004602052604090205460ff166103225760405162461bcd60e51b8152602060048201526015602482015274151bdad95b881b9bdd081dda1a5d195b1a5cdd1959605a1b60448201526064016102b9565b6040516323b872dd60e01b8152336004820152306024820152604481018390526001600160a01b038216906323b872dd906064016020604051808303816000875af1158015610375573d6000803e3d6000fd5b505050506040513d601f19601f820116820180604052508101906103999190610a96565b506103a43383610841565b5050565b60035460405163014635fd60e61b81526001600160a01b0384811660048301523360248301529091169063518d7f4090604401602060405180830381865afa1580156103f8573d6000803e3d6000fd5b505050506040513d601f19601f8201168201806040525081019061041c9190610a96565b6104685760405162461bcd60e51b815260206004820152601960248201527f4e6f7420612076616c69642070726f787920616464726573730000000000000060448201526064016102b9565b6040516370a0823160e01b81523060048201526000906001600160a01b038516906370a0823190602401602060405180830381865afa1580156104af573d6000803e3d6000fd5b505050506040513d601f19601f820116820180604052508101906104d39190610ab8565b905060006104e286868561071f565b9050818111156105635760405163a9059cbb60e01b8152336004820152602481018390526001600160a01b0386169063a9059cbb906044016020604051808303816000875af1158015610539573d6000803e3d6000fd5b505050506040513d601f19601f8201168201806040525081019061055d9190610a96565b506105d6565b60405163a9059cbb60e01b8152336004820152602481018290526001600160a01b0386169063a9059cbb906044016020604051808303816000875af11580156105b0573d6000803e3d6000fd5b505050506040513d601f19601f820116820180604052508101906105d49190610a96565b505b505050505050565b6105e66108bd565b6105f06000610917565b565b60008061060783670de0b6b3a7640000610ad1565b6106119085610ad1565b949350505050565b6001600160a01b03808216600090815260056020526040808220548151633fabe5a360e21b815291519293169182918491839163feaf968c9160048083019260a09291908290030181865afa158015610676573d6000803e3d6000fd5b505050506040513d601f19601f8201168201806040525081019061069a9190610b18565b505050915050806402540be4006106b19190610ad1565b95945050505050565b6000806106c683610619565b90506106118185610b68565b6106da6108bd565b6001600160a01b039182166000908152600460209081526040808320805460ff19166001179055600590915290208054919092166001600160a01b0319909116179055565b60008061072c85846105f2565b90506ec097ce7bc90715b34b9f100000000081116107b25760405162461bcd60e51b815260206004820152603860248201527f506c656173652066756e642070726f78792077697468206d6f7265207468616e60448201527f203120646f6c6c61727320776f727468206f662054535259000000000000000060648201526084016102b9565b60006107be82866106ba565b9695505050505050565b6107d06108bd565b6001600160a01b0381166108355760405162461bcd60e51b815260206004820152602660248201527f4f776e61626c653a206e6577206f776e657220697320746865207a65726f206160448201526564647265737360d01b60648201526084016102b9565b61083e81610917565b50565b60015460405163a9059cbb60e01b81526001600160a01b038481166004830152602482018490529091169063a9059cbb906044016020604051808303816000875af1158015610894573d6000803e3d6000fd5b505050506040513d601f19601f820116820180604052508101906108b89190610a96565b505050565b6000546001600160a01b031633146105f05760405162461bcd60e51b815260206004820181905260248201527f4f776e61626c653a2063616c6c6572206973206e6f7420746865206f776e657260448201526064016102b9565b600080546001600160a01b038381166001600160a01b0319831681178455604051919092169283917f8be0079c531659141344cd1fd0a4f28419497f9722a3daafe3b4186f6b6457e09190a35050565b80356001600160a01b038116811461097e57600080fd5b919050565b6000806040838503121561099657600080fd5b823591506109a660208401610967565b90509250929050565b600080600080608085870312156109c557600080fd5b843593506109d560208601610967565b92506109e360408601610967565b9396929550929360600135925050565b600060208284031215610a0557600080fd5b610a0e82610967565b9392505050565b60008060408385031215610a2857600080fd5b50508035926020909101359150565b60008060408385031215610a4a57600080fd5b610a5383610967565b91506109a660208401610967565b600080600060608486031215610a7657600080fd5b83359250610a8660208501610967565b9150604084013590509250925092565b600060208284031215610aa857600080fd5b81518015158114610a0e57600080fd5b600060208284031215610aca57600080fd5b5051919050565b6000816000190483118215151615610af957634e487b7160e01b600052601160045260246000fd5b500290565b805169ffffffffffffffffffff8116811461097e57600080fd5b600080600080600060a08688031215610b3057600080fd5b610b3986610afe565b9450602086015193506040860151925060608601519150610b5c60808701610afe565b90509295509295909350565b600082610b8557634e487b7160e01b600052601260045260246000fd5b50049056fea264697066735822122011790ec4aa5e07b2c287092aafe54dbc56eb547d3a129b815d17dfe1310794d964736f6c634300080f0033",
  "bytecodeSha1": "5c1f7236f5e0cb8f09d54c3edd3f88325c680937",
  "compiler": {
    "evm_version": "istanbul",
    "optimizer": {
      "enabled": true,
      "runs": 200
    },
    "version": "0.8.15+commit.e14f2714"
  },
  "contractName": "TokenPool",
  "language": "Solidity",
  "natspec": {
    "errors": {
      "OnlyFactory()": [
        {
          "notice": "-----------------------------         Error -----------------------------"
        }
      ]
    },
    "kind": "dev",
    "methods": {
      "addAllowedTokens(address,address)": {
        "details": "Adds allowed tokens to mapping as well as its corresponding priceFeed.",
        "params": {
          "_priceFeed": ": address - Pricefeed of token",
          "_token": ": address - Token to be whitelisted"
        }
      },
      "constructor": {
        "details": "Constructor - (N.B. Will likely change a lot during development)   ",
        "params": {
          "_proxyFactory": ": address - The address of the proxy factory (needed for transfering tokens)",
          "_treasuryTokenAddress": ": address - The address of the treasury token",
          "_voteProxyRegistry": ": address- The address of the vote proxy registry                                      (needed for the fund proxy function)"
        }
      },
      "fundProxy(uint256,address,address,uint256)": {
        "details": "Transfer GT to a proxy by first converting TSRY amount to GT amount.",
        "params": {
          "_governanceToken": ": address - The token that needs to be sent",
          "_tsryAmount": ": uint256 - Amount of TSRY to be converted to amount of GT",
          "_tsryPrice": ": uint256 - TESTING ONLY sets price of TSRY",
          "_user": ": address - user address needed to find if the proxy is valid in the registry"
        }
      },
      "getGTPrice(address)": {
        "details": "Gets price from oracle for GT (i.e., Aave/dollars)."
      },
      "getGTamount(uint256,address)": {
        "details": "Calculates corresponding GT from amount of TSRY given.",
        "params": {
          "_governanceToken": ": address - GT needed to get price of",
          "_usdAmountTsry": ": uint256 - Total value in USD (wei) of TSRY given."
        }
      },
      "getUserGTAllowance(uint256,address,uint256)": {
        "details": "Returns amount of GT from amount of TSRY (and price). Converts TSRY amount --> GT amount",
        "params": {
          "_token": ": address - which token to get allowance for",
          "_tsryAmount": ": uint256 - Amount of tsry to covert to GT",
          "_tsryPrice": ": uint256 - Price of TSRY (testing  only)"
        }
      },
      "owner()": {
        "details": "Returns the address of the current owner."
      },
      "renounceOwnership()": {
        "details": "Leaves the contract without owner. It will not be possible to call `onlyOwner` functions anymore. Can only be called by the current owner. NOTE: Renouncing ownership will leave the contract without an owner, thereby removing any functionality that is only available to the owner."
      },
      "stakeToEarn(uint256,address)": {
        "details": "Allows user to stake GT in return for TSRY ",
        "params": {
          "_amount": ": uint - Amount of GT they want to stake",
          "_token": ": address - The address of the GT"
        }
      },
      "transferOwnership(address)": {
        "details": "Transfers ownership of the contract to a new account (`newOwner`). Can only be called by the current owner."
      },
      "treasuryToken()": {
        "notice": "-----------------------------         Storage -----------------------------"
      },
      "treasuryValue(uint256,uint256)": {
        "details": "Testing Only. Calculates value of TSRY given a set price and amount.",
        "params": {
          "_tsryAmount": ": uint256 - Amount of tsry (wei)",
          "_tsryPrice": ": uint256 - Price in dollars / token (not given as dollars/wei hence * 1e18)"
        }
      }
    },
    "version": 1
  },
  "opcodes": "PUSH1 0x80 PUSH1 0x40 MSTORE CALLVALUE DUP1 ISZERO PUSH2 0x10 JUMPI PUSH1 0x0 DUP1 REVERT JUMPDEST POP PUSH1 0x4 CALLDATASIZE LT PUSH2 0xF5 JUMPI PUSH1 0x0 CALLDATALOAD PUSH1 0xE0 SHR DUP1 PUSH4 0x9860D673 GT PUSH2 0x97 JUMPI DUP1 PUSH4 0xC10F1A75 GT PUSH2 0x66 JUMPI DUP1 PUSH4 0xC10F1A75 EQ PUSH2 0x201 JUMPI DUP1 PUSH4 0xD1A58524 EQ PUSH2 0x214 JUMPI DUP1 PUSH4 0xE6E8712D EQ PUSH2 0x227 JUMPI DUP1 PUSH4 0xF2FDE38B EQ PUSH2 0x25A JUMPI PUSH1 0x0 DUP1 REVERT JUMPDEST DUP1 PUSH4 0x9860D673 EQ PUSH2 0x1B5 JUMPI DUP1 PUSH4 0xAB5A319F EQ PUSH2 0x1C8 JUMPI DUP1 PUSH4 0xB1AF0A33 EQ PUSH2 0x1DB JUMPI DUP1 PUSH4 0xB2CE514B EQ PUSH2 0x1EE JUMPI PUSH1 0x0 DUP1 REVERT JUMPDEST DUP1 PUSH4 0x715018A6 GT PUSH2 0xD3 JUMPI DUP1 PUSH4 0x715018A6 EQ PUSH2 0x152 JUMPI DUP1 PUSH4 0x8078F22C EQ PUSH2 0x15A JUMPI DUP1 PUSH4 0x8DA5CB5B EQ PUSH2 0x183 JUMPI DUP1 PUSH4 0x93D6D15C EQ PUSH2 0x194 JUMPI PUSH1 0x0 DUP1 REVERT JUMPDEST DUP1 PUSH4 0x28CAE1AD EQ PUSH2 0xFA JUMPI DUP1 PUSH4 0x5795DC8B EQ PUSH2 0x12A JUMPI DUP1 PUSH4 0x6F4106E0 EQ PUSH2 0x13F JUMPI JUMPDEST PUSH1 0x0 DUP1 REVERT JUMPDEST PUSH1 0x3 SLOAD PUSH2 0x10D SWAP1 PUSH1 0x1 PUSH1 0x1 PUSH1 0xA0 SHL SUB AND DUP2 JUMP JUMPDEST PUSH1 0x40 MLOAD PUSH1 0x1 PUSH1 0x1 PUSH1 0xA0 SHL SUB SWAP1 SWAP2 AND DUP2 MSTORE PUSH1 0x20 ADD JUMPDEST PUSH1 0x40 MLOAD DUP1 SWAP2 SUB SWAP1 RETURN JUMPDEST PUSH2 0x13D PUSH2 0x138 CALLDATASIZE PUSH1 0x4 PUSH2 0x983 JUMP JUMPDEST PUSH2 0x26D JUMP JUMPDEST STOP JUMPDEST PUSH2 0x13D PUSH2 0x14D CALLDATASIZE PUSH1 0x4 PUSH2 0x9AF JUMP JUMPDEST PUSH2 0x3A8 JUMP JUMPDEST PUSH2 0x13D PUSH2 0x5DE JUMP JUMPDEST PUSH2 0x10D PUSH2 0x168 CALLDATASIZE PUSH1 0x4 PUSH2 0x9F3 JUMP JUMPDEST PUSH1 0x5 PUSH1 0x20 MSTORE PUSH1 0x0 SWAP1 DUP2 MSTORE PUSH1 0x40 SWAP1 KECCAK256 SLOAD PUSH1 0x1 PUSH1 0x1 PUSH1 0xA0 SHL SUB AND DUP2 JUMP JUMPDEST PUSH1 0x0 SLOAD PUSH1 0x1 PUSH1 0x1 PUSH1 0xA0 SHL SUB AND PUSH2 0x10D JUMP JUMPDEST PUSH2 0x1A7 PUSH2 0x1A2 CALLDATASIZE PUSH1 0x4 PUSH2 0xA15 JUMP JUMPDEST PUSH2 0x5F2 JUMP JUMPDEST PUSH1 0x40 MLOAD SWAP1 DUP2 MSTORE PUSH1 0x20 ADD PUSH2 0x121 JUMP JUMPDEST PUSH2 0x1A7 PUSH2 0x1C3 CALLDATASIZE PUSH1 0x4 PUSH2 0x9F3 JUMP JUMPDEST PUSH2 0x619 JUMP JUMPDEST PUSH2 0x1A7 PUSH2 0x1D6 CALLDATASIZE PUSH1 0x4 PUSH2 0x983 JUMP JUMPDEST PUSH2 0x6BA JUMP JUMPDEST PUSH2 0x13D PUSH2 0x1E9 CALLDATASIZE PUSH1 0x4 PUSH2 0xA37 JUMP JUMPDEST PUSH2 0x6D2 JUMP JUMPDEST PUSH1 0x1 SLOAD PUSH2 0x10D SWAP1 PUSH1 0x1 PUSH1 0x1 PUSH1 0xA0 SHL SUB AND DUP2 JUMP JUMPDEST PUSH1 0x2 SLOAD PUSH2 0x10D SWAP1 PUSH1 0x1 PUSH1 0x1 PUSH1 0xA0 SHL SUB AND DUP2 JUMP JUMPDEST PUSH2 0x1A7 PUSH2 0x222 CALLDATASIZE PUSH1 0x4 PUSH2 0xA61 JUMP JUMPDEST PUSH2 0x71F JUMP JUMPDEST PUSH2 0x24A PUSH2 0x235 CALLDATASIZE PUSH1 0x4 PUSH2 0x9F3 JUMP JUMPDEST PUSH1 0x4 PUSH1 0x20 MSTORE PUSH1 0x0 SWAP1 DUP2 MSTORE PUSH1 0x40 SWAP1 KECCAK256 SLOAD PUSH1 0xFF AND DUP2 JUMP JUMPDEST PUSH1 0x40 MLOAD SWAP1 ISZERO ISZERO DUP2 MSTORE PUSH1 0x20 ADD PUSH2 0x121 JUMP JUMPDEST PUSH2 0x13D PUSH2 0x268 CALLDATASIZE PUSH1 0x4 PUSH2 0x9F3 JUMP JUMPDEST PUSH2 0x7C8 JUMP JUMPDEST PUSH1 0x0 DUP3 GT PUSH2 0x2C2 JUMPI PUSH1 0x40 MLOAD PUSH3 0x461BCD PUSH1 0xE5 SHL DUP2 MSTORE PUSH1 0x20 PUSH1 0x4 DUP3 ADD MSTORE PUSH1 0x1A PUSH1 0x24 DUP3 ADD MSTORE PUSH32 0x416D6F756E74206D757374206265206D6F7265207468616E2030000000000000 PUSH1 0x44 DUP3 ADD MSTORE PUSH1 0x64 ADD JUMPDEST PUSH1 0x40 MLOAD DUP1 SWAP2 SUB SWAP1 REVERT JUMPDEST PUSH1 0x1 PUSH1 0x1 PUSH1 0xA0 SHL SUB DUP2 AND PUSH1 0x0 SWAP1 DUP2 MSTORE PUSH1 0x4 PUSH1 0x20 MSTORE PUSH1 0x40 SWAP1 KECCAK256 SLOAD PUSH1 0xFF AND PUSH2 0x322 JUMPI PUSH1 0x40 MLOAD PUSH3 0x461BCD PUSH1 0xE5 SHL DUP2 MSTORE PUSH1 0x20 PUSH1 0x4 DUP3 ADD MSTORE PUSH1 0x15 PUSH1 0x24 DUP3 ADD MSTORE PUSH21 0x151BDAD95B881B9BDD081DDA1A5D195B1A5CDD1959 PUSH1 0x5A SHL PUSH1 0x44 DUP3 ADD MSTORE PUSH1 0x64 ADD PUSH2 0x2B9 JUMP JUMPDEST PUSH1 0x40 MLOAD PUSH4 0x23B872DD PUSH1 0xE0 SHL DUP2 MSTORE CALLER PUSH1 0x4 DUP3 ADD MSTORE ADDRESS PUSH1 0x24 DUP3 ADD MSTORE PUSH1 0x44 DUP2 ADD DUP4 SWAP1 MSTORE PUSH1 0x1 PUSH1 0x1 PUSH1 0xA0 SHL SUB DUP3 AND SWAP1 PUSH4 0x23B872DD SWAP1 PUSH1 0x64 ADD PUSH1 0x20 PUSH1 0x40 MLOAD DUP1 DUP4 SUB DUP2 PUSH1 0x0 DUP8 GAS CALL ISZERO DUP1 ISZERO PUSH2 0x375 JUMPI RETURNDATASIZE PUSH1 0x0 DUP1 RETURNDATACOPY RETURNDATASIZE PUSH1 0x0 REVERT JUMPDEST POP POP POP POP PUSH1 0x40 MLOAD RETURNDATASIZE PUSH1 0x1F NOT PUSH1 0x1F DUP3 ADD AND DUP3 ADD DUP1 PUSH1 0x40 MSTORE POP DUP2 ADD SWAP1 PUSH2 0x399 SWAP2 SWAP1 PUSH2 0xA96 JUMP JUMPDEST POP PUSH2 0x3A4 CALLER DUP4 PUSH2 0x841 JUMP JUMPDEST POP POP JUMP JUMPDEST PUSH1 0x3 SLOAD PUSH1 0x40 MLOAD PUSH4 0x14635FD PUSH1 0xE6 SHL DUP2 MSTORE PUSH1 0x1 PUSH1 0x1 PUSH1 0xA0 SHL SUB DUP5 DUP2 AND PUSH1 0x4 DUP4 ADD MSTORE CALLER PUSH1 0x24 DUP4 ADD MSTORE SWAP1 SWAP2 AND SWAP1 PUSH4 0x518D7F40 SWAP1 PUSH1 0x44 ADD PUSH1 0x20 PUSH1 0x40 MLOAD DUP1 DUP4 SUB DUP2 DUP7 GAS STATICCALL ISZERO DUP1 ISZERO PUSH2 0x3F8 JUMPI RETURNDATASIZE PUSH1 0x0 DUP1 RETURNDATACOPY RETURNDATASIZE PUSH1 0x0 REVERT JUMPDEST POP POP POP POP PUSH1 0x40 MLOAD RETURNDATASIZE PUSH1 0x1F NOT PUSH1 0x1F DUP3 ADD AND DUP3 ADD DUP1 PUSH1 0x40 MSTORE POP DUP2 ADD SWAP1 PUSH2 0x41C SWAP2 SWAP1 PUSH2 0xA96 JUMP JUMPDEST PUSH2 0x468 JUMPI PUSH1 0x40 MLOAD PUSH3 0x461BCD PUSH1 0xE5 SHL DUP2 MSTORE PUSH1 0x20 PUSH1 0x4 DUP3 ADD MSTORE PUSH1 0x19 PUSH1 0x24 DUP3 ADD MSTORE PUSH32 0x4E6F7420612076616C69642070726F7879206164647265737300000000000000 PUSH1 0x44 DUP3 ADD MSTORE PUSH1 0x64 ADD PUSH2 0x2B9 JUMP JUMPDEST PUSH1 0x40 MLOAD PUSH4 0x70A08231 PUSH1 0xE0 SHL DUP2 MSTORE ADDRESS PUSH1 0x4 DUP3 ADD MSTORE PUSH1 0x0 SWAP1 PUSH1 0x1 PUSH1 0x1 PUSH1 0xA0 SHL SUB DUP6 AND SWAP1 PUSH4 0x70A08231 SWAP1 PUSH1 0x24 ADD PUSH1 0x20 PUSH1 0x40 MLOAD DUP1 DUP4 SUB DUP2 DUP7 GAS STATICCALL ISZERO DUP1 ISZERO PUSH2 0x4AF JUMPI RETURNDATASIZE PUSH1 0x0 DUP1 RETURNDATACOPY RETURNDATASIZE PUSH1 0x0 REVERT JUMPDEST POP POP POP POP PUSH1 0x40 MLOAD RETURNDATASIZE PUSH1 0x1F NOT PUSH1 0x1F DUP3 ADD AND DUP3 ADD DUP1 PUSH1 0x40 MSTORE POP DUP2 ADD SWAP1 PUSH2 0x4D3 SWAP2 SWAP1 PUSH2 0xAB8 JUMP JUMPDEST SWAP1 POP PUSH1 0x0 PUSH2 0x4E2 DUP7 DUP7 DUP6 PUSH2 0x71F JUMP JUMPDEST SWAP1 POP DUP2 DUP2 GT ISZERO PUSH2 0x563 JUMPI PUSH1 0x40 MLOAD PUSH4 0xA9059CBB PUSH1 0xE0 SHL DUP2 MSTORE CALLER PUSH1 0x4 DUP3 ADD MSTORE PUSH1 0x24 DUP2 ADD DUP4 SWAP1 MSTORE PUSH1 0x1 PUSH1 0x1 PUSH1 0xA0 SHL SUB DUP7 AND SWAP1 PUSH4 0xA9059CBB SWAP1 PUSH1 0x44 ADD PUSH1 0x20 PUSH1 0x40 MLOAD DUP1 DUP4 SUB DUP2 PUSH1 0x0 DUP8 GAS CALL ISZERO DUP1 ISZERO PUSH2 0x539 JUMPI RETURNDATASIZE PUSH1 0x0 DUP1 RETURNDATACOPY RETURNDATASIZE PUSH1 0x0 REVERT JUMPDEST POP POP POP POP PUSH1 0x40 MLOAD RETURNDATASIZE PUSH1 0x1F NOT PUSH1 0x1F DUP3 ADD AND DUP3 ADD DUP1 PUSH1 0x40 MSTORE POP DUP2 ADD SWAP1 PUSH2 0x55D SWAP2 SWAP1 PUSH2 0xA96 JUMP JUMPDEST POP PUSH2 0x5D6 JUMP JUMPDEST PUSH1 0x40 MLOAD PUSH4 0xA9059CBB PUSH1 0xE0 SHL DUP2 MSTORE CALLER PUSH1 0x4 DUP3 ADD MSTORE PUSH1 0x24 DUP2 ADD DUP3 SWAP1 MSTORE PUSH1 0x1 PUSH1 0x1 PUSH1 0xA0 SHL SUB DUP7 AND SWAP1 PUSH4 0xA9059CBB SWAP1 PUSH1 0x44 ADD PUSH1 0x20 PUSH1 0x40 MLOAD DUP1 DUP4 SUB DUP2 PUSH1 0x0 DUP8 GAS CALL ISZERO DUP1 ISZERO PUSH2 0x5B0 JUMPI RETURNDATASIZE PUSH1 0x0 DUP1 RETURNDATACOPY RETURNDATASIZE PUSH1 0x0 REVERT JUMPDEST POP POP POP POP PUSH1 0x40 MLOAD RETURNDATASIZE PUSH1 0x1F NOT PUSH1 0x1F DUP3 ADD AND DUP3 ADD DUP1 PUSH1 0x40 MSTORE POP DUP2 ADD SWAP1 PUSH2 0x5D4 SWAP2 SWAP1 PUSH2 0xA96 JUMP JUMPDEST POP JUMPDEST POP POP POP POP POP POP JUMP JUMPDEST PUSH2 0x5E6 PUSH2 0x8BD JUMP JUMPDEST PUSH2 0x5F0 PUSH1 0x0 PUSH2 0x917 JUMP JUMPDEST JUMP JUMPDEST PUSH1 0x0 DUP1 PUSH2 0x607 DUP4 PUSH8 0xDE0B6B3A7640000 PUSH2 0xAD1 JUMP JUMPDEST PUSH2 0x611 SWAP1 DUP6 PUSH2 0xAD1 JUMP JUMPDEST SWAP5 SWAP4 POP POP POP POP JUMP JUMPDEST PUSH1 0x1 PUSH1 0x1 PUSH1 0xA0 SHL SUB DUP1 DUP3 AND PUSH1 0x0 SWAP1 DUP2 MSTORE PUSH1 0x5 PUSH1 0x20 MSTORE PUSH1 0x40 DUP1 DUP3 KECCAK256 SLOAD DUP2 MLOAD PUSH4 0x3FABE5A3 PUSH1 0xE2 SHL DUP2 MSTORE SWAP2 MLOAD SWAP3 SWAP4 AND SWAP2 DUP3 SWAP2 DUP5 SWAP2 DUP4 SWAP2 PUSH4 0xFEAF968C SWAP2 PUSH1 0x4 DUP1 DUP4 ADD SWAP3 PUSH1 0xA0 SWAP3 SWAP2 SWAP1 DUP3 SWAP1 SUB ADD DUP2 DUP7 GAS STATICCALL ISZERO DUP1 ISZERO PUSH2 0x676 JUMPI RETURNDATASIZE PUSH1 0x0 DUP1 RETURNDATACOPY RETURNDATASIZE PUSH1 0x0 REVERT JUMPDEST POP POP POP POP PUSH1 0x40 MLOAD RETURNDATASIZE PUSH1 0x1F NOT PUSH1 0x1F DUP3 ADD AND DUP3 ADD DUP1 PUSH1 0x40 MSTORE POP DUP2 ADD SWAP1 PUSH2 0x69A SWAP2 SWAP1 PUSH2 0xB18 JUMP JUMPDEST POP POP POP SWAP2 POP POP DUP1 PUSH5 0x2540BE400 PUSH2 0x6B1 SWAP2 SWAP1 PUSH2 0xAD1 JUMP JUMPDEST SWAP6 SWAP5 POP POP POP POP POP JUMP JUMPDEST PUSH1 0x0 DUP1 PUSH2 0x6C6 DUP4 PUSH2 0x619 JUMP JUMPDEST SWAP1 POP PUSH2 0x611 DUP2 DUP6 PUSH2 0xB68 JUMP JUMPDEST PUSH2 0x6DA PUSH2 0x8BD JUMP JUMPDEST PUSH1 0x1 PUSH1 0x1 PUSH1 0xA0 SHL SUB SWAP2 DUP3 AND PUSH1 0x0 SWAP1 DUP2 MSTORE PUSH1 0x4 PUSH1 0x20 SWAP1 DUP2 MSTORE PUSH1 0x40 DUP1 DUP4 KECCAK256 DUP1 SLOAD PUSH1 0xFF NOT AND PUSH1 0x1 OR SWAP1 SSTORE PUSH1 0x5 SWAP1 SWAP2 MSTORE SWAP1 KECCAK256 DUP1 SLOAD SWAP2 SWAP1 SWAP3 AND PUSH1 0x1 PUSH1 0x1 PUSH1 0xA0 SHL SUB NOT SWAP1 SWAP2 AND OR SWAP1 SSTORE JUMP JUMPDEST PUSH1 0x0 DUP1 PUSH2 0x72C DUP6 DUP5 PUSH2 0x5F2 JUMP JUMPDEST SWAP1 POP PUSH15 0xC097CE7BC90715B34B9F1000000000 DUP2 GT PUSH2 0x7B2 JUMPI PUSH1 0x40 MLOAD PUSH3 0x461BCD PUSH1 0xE5 SHL DUP2 MSTORE PUSH1 0x20 PUSH1 0x4 DUP3 ADD MSTORE PUSH1 0x38 PUSH1 0x24 DUP3 ADD MSTORE PUSH32 0x506C656173652066756E642070726F78792077697468206D6F7265207468616E PUSH1 0x44 DUP3 ADD MSTORE PUSH32 0x203120646F6C6C61727320776F727468206F6620545352590000000000000000 PUSH1 0x64 DUP3 ADD MSTORE PUSH1 0x84 ADD PUSH2 0x2B9 JUMP JUMPDEST PUSH1 0x0 PUSH2 0x7BE DUP3 DUP7 PUSH2 0x6BA JUMP JUMPDEST SWAP7 SWAP6 POP POP POP POP POP POP JUMP JUMPDEST PUSH2 0x7D0 PUSH2 0x8BD JUMP JUMPDEST PUSH1 0x1 PUSH1 0x1 PUSH1 0xA0 SHL SUB DUP2 AND PUSH2 0x835 JUMPI PUSH1 0x40 MLOAD PUSH3 0x461BCD PUSH1 0xE5 SHL DUP2 MSTORE PUSH1 0x20 PUSH1 0x4 DUP3 ADD MSTORE PUSH1 0x26 PUSH1 0x24 DUP3 ADD MSTORE PUSH32 0x4F776E61626C653A206E6577206F776E657220697320746865207A65726F2061 PUSH1 0x44 DUP3 ADD MSTORE PUSH6 0x646472657373 PUSH1 0xD0 SHL PUSH1 0x64 DUP3 ADD MSTORE PUSH1 0x84 ADD PUSH2 0x2B9 JUMP JUMPDEST PUSH2 0x83E DUP2 PUSH2 0x917 JUMP JUMPDEST POP JUMP JUMPDEST PUSH1 0x1 SLOAD PUSH1 0x40 MLOAD PUSH4 0xA9059CBB PUSH1 0xE0 SHL DUP2 MSTORE PUSH1 0x1 PUSH1 0x1 PUSH1 0xA0 SHL SUB DUP5 DUP2 AND PUSH1 0x4 DUP4 ADD MSTORE PUSH1 0x24 DUP3 ADD DUP5 SWAP1 MSTORE SWAP1 SWAP2 AND SWAP1 PUSH4 0xA9059CBB SWAP1 PUSH1 0x44 ADD PUSH1 0x20 PUSH1 0x40 MLOAD DUP1 DUP4 SUB DUP2 PUSH1 0x0 DUP8 GAS CALL ISZERO DUP1 ISZERO PUSH2 0x894 JUMPI RETURNDATASIZE PUSH1 0x0 DUP1 RETURNDATACOPY RETURNDATASIZE PUSH1 0x0 REVERT JUMPDEST POP POP POP POP PUSH1 0x40 MLOAD RETURNDATASIZE PUSH1 0x1F NOT PUSH1 0x1F DUP3 ADD AND DUP3 ADD DUP1 PUSH1 0x40 MSTORE POP DUP2 ADD SWAP1 PUSH2 0x8B8 SWAP2 SWAP1 PUSH2 0xA96 JUMP JUMPDEST POP POP POP JUMP JUMPDEST PUSH1 0x0 SLOAD PUSH1 0x1 PUSH1 0x1 PUSH1 0xA0 SHL SUB AND CALLER EQ PUSH2 0x5F0 JUMPI PUSH1 0x40 MLOAD PUSH3 0x461BCD PUSH1 0xE5 SHL DUP2 MSTORE PUSH1 0x20 PUSH1 0x4 DUP3 ADD DUP2 SWAP1 MSTORE PUSH1 0x24 DUP3 ADD MSTORE PUSH32 0x4F776E61626C653A2063616C6C6572206973206E6F7420746865206F776E6572 PUSH1 0x44 DUP3 ADD MSTORE PUSH1 0x64 ADD PUSH2 0x2B9 JUMP JUMPDEST PUSH1 0x0 DUP1 SLOAD PUSH1 0x1 PUSH1 0x1 PUSH1 0xA0 SHL SUB DUP4 DUP2 AND PUSH1 0x1 PUSH1 0x1 PUSH1 0xA0 SHL SUB NOT DUP4 AND DUP2 OR DUP5 SSTORE PUSH1 0x40 MLOAD SWAP2 SWAP1 SWAP3 AND SWAP3 DUP4 SWAP2 PUSH32 0x8BE0079C531659141344CD1FD0A4F28419497F9722A3DAAFE3B4186F6B6457E0 SWAP2 SWAP1 LOG3 POP POP JUMP JUMPDEST DUP1 CALLDATALOAD PUSH1 0x1 PUSH1 0x1 PUSH1 0xA0 SHL SUB DUP2 AND DUP2 EQ PUSH2 0x97E JUMPI PUSH1 0x0 DUP1 REVERT JUMPDEST SWAP2 SWAP1 POP JUMP JUMPDEST PUSH1 0x0 DUP1 PUSH1 0x40 DUP4 DUP6 SUB SLT ISZERO PUSH2 0x996 JUMPI PUSH1 0x0 DUP1 REVERT JUMPDEST DUP3 CALLDATALOAD SWAP2 POP PUSH2 0x9A6 PUSH1 0x20 DUP5 ADD PUSH2 0x967 JUMP JUMPDEST SWAP1 POP SWAP3 POP SWAP3 SWAP1 POP JUMP JUMPDEST PUSH1 0x0 DUP1 PUSH1 0x0 DUP1 PUSH1 0x80 DUP6 DUP8 SUB SLT ISZERO PUSH2 0x9C5 JUMPI PUSH1 0x0 DUP1 REVERT JUMPDEST DUP5 CALLDATALOAD SWAP4 POP PUSH2 0x9D5 PUSH1 0x20 DUP7 ADD PUSH2 0x967 JUMP JUMPDEST SWAP3 POP PUSH2 0x9E3 PUSH1 0x40 DUP7 ADD PUSH2 0x967 JUMP JUMPDEST SWAP4 SWAP7 SWAP3 SWAP6 POP SWAP3 SWAP4 PUSH1 0x60 ADD CALLDATALOAD SWAP3 POP POP JUMP JUMPDEST PUSH1 0x0 PUSH1 0x20 DUP3 DUP5 SUB SLT ISZERO PUSH2 0xA05 JUMPI PUSH1 0x0 DUP1 REVERT JUMPDEST PUSH2 0xA0E DUP3 PUSH2 0x967 JUMP JUMPDEST SWAP4 SWAP3 POP POP POP JUMP JUMPDEST PUSH1 0x0 DUP1 PUSH1 0x40 DUP4 DUP6 SUB SLT ISZERO PUSH2 0xA28 JUMPI PUSH1 0x0 DUP1 REVERT JUMPDEST POP POP DUP1 CALLDATALOAD SWAP3 PUSH1 0x20 SWAP1 SWAP2 ADD CALLDATALOAD SWAP2 POP JUMP JUMPDEST PUSH1 0x0 DUP1 PUSH1 0x40 DUP4 DUP6 SUB SLT ISZERO PUSH2 0xA4A JUMPI PUSH1 0x0 DUP1 REVERT JUMPDEST PUSH2 0xA53 DUP4 PUSH2 0x967 JUMP JUMPDEST SWAP2 POP PUSH2 0x9A6 PUSH1 0x20 DUP5 ADD PUSH2 0x967 JUMP JUMPDEST PUSH1 0x0 DUP1 PUSH1 0x0 PUSH1 0x60 DUP5 DUP7 SUB SLT ISZERO PUSH2 0xA76 JUMPI PUSH1 0x0 DUP1 REVERT JUMPDEST DUP4 CALLDATALOAD SWAP3 POP PUSH2 0xA86 PUSH1 0x20 DUP6 ADD PUSH2 0x967 JUMP JUMPDEST SWAP2 POP PUSH1 0x40 DUP5 ADD CALLDATALOAD SWAP1 POP SWAP3 POP SWAP3 POP SWAP3 JUMP JUMPDEST PUSH1 0x0 PUSH1 0x20 DUP3 DUP5 SUB SLT ISZERO PUSH2 0xAA8 JUMPI PUSH1 0x0 DUP1 REVERT JUMPDEST DUP2 MLOAD DUP1 ISZERO ISZERO DUP2 EQ PUSH2 0xA0E JUMPI PUSH1 0x0 DUP1 REVERT JUMPDEST PUSH1 0x0 PUSH1 0x20 DUP3 DUP5 SUB SLT ISZERO PUSH2 0xACA JUMPI PUSH1 0x0 DUP1 REVERT JUMPDEST POP MLOAD SWAP2 SWAP1 POP JUMP JUMPDEST PUSH1 0x0 DUP2 PUSH1 0x0 NOT DIV DUP4 GT DUP3 ISZERO ISZERO AND ISZERO PUSH2 0xAF9 JUMPI PUSH4 0x4E487B71 PUSH1 0xE0 SHL PUSH1 0x0 MSTORE PUSH1 0x11 PUSH1 0x4 MSTORE PUSH1 0x24 PUSH1 0x0 REVERT JUMPDEST POP MUL SWAP1 JUMP JUMPDEST DUP1 MLOAD PUSH10 0xFFFFFFFFFFFFFFFFFFFF DUP2 AND DUP2 EQ PUSH2 0x97E JUMPI PUSH1 0x0 DUP1 REVERT JUMPDEST PUSH1 0x0 DUP1 PUSH1 0x0 DUP1 PUSH1 0x0 PUSH1 0xA0 DUP7 DUP9 SUB SLT ISZERO PUSH2 0xB30 JUMPI PUSH1 0x0 DUP1 REVERT JUMPDEST PUSH2 0xB39 DUP7 PUSH2 0xAFE JUMP JUMPDEST SWAP5 POP PUSH1 0x20 DUP7 ADD MLOAD SWAP4 POP PUSH1 0x40 DUP7 ADD MLOAD SWAP3 POP PUSH1 0x60 DUP7 ADD MLOAD SWAP2 POP PUSH2 0xB5C PUSH1 0x80 DUP8 ADD PUSH2 0xAFE JUMP JUMPDEST SWAP1 POP SWAP3 SWAP6 POP SWAP3 SWAP6 SWAP1 SWAP4 POP JUMP JUMPDEST PUSH1 0x0 DUP3 PUSH2 0xB85 JUMPI PUSH4 0x4E487B71 PUSH1 0xE0 SHL PUSH1 0x0 MSTORE PUSH1 0x12 PUSH1 0x4 MSTORE PUSH1 0x24 PUSH1 0x0 REVERT JUMPDEST POP DIV SWAP1 JUMP INVALID LOG2 PUSH5 0x6970667358 0x22 SLT KECCAK256 GT PUSH26 0xEC4AA5E07B2C287092AAFE54DBC56EB547D3A129B815D17DFE1 BALANCE SMOD SWAP5 0xD9 PUSH5 0x736F6C6343 STOP ADDMOD 0xF STOP CALLER ",
  "sha1": "0f9b0afcac46546de59894aea97bbffc554f44d7",
  "source": "// SPDX-License-Identifier: MIT\n\n\npragma solidity ^0.8.0;\n\nimport \"@openzeppelin/contracts/governance/IGovernor.sol\";\nimport \"@openzeppelin/contracts/access/Ownable.sol\";\nimport \"@openzeppelin/contracts/token/ERC20/IERC20.sol\";\nimport \"@chainlink/contracts/src/v0.8/interfaces/AggregatorV2V3Interface.sol\";\nimport \"./interfaces/IVoteProxyRegistry.sol\";\n\n/*\n _________  ________  ___  __    _______   ________           ________  ________  ________  ___          \n|\\___   ___\\\\   __  \\|\\  \\|\\  \\ |\\  ___ \\ |\\   ___  \\        |\\   __  \\|\\   __  \\|\\   __  \\|\\  \\         \n\\|___ \\  \\_\\ \\  \\|\\  \\ \\  \\/  /|\\ \\   __/|\\ \\  \\\\ \\  \\       \\ \\  \\|\\  \\ \\  \\|\\  \\ \\  \\|\\  \\ \\  \\        \n     \\ \\  \\ \\ \\  \\\\\\  \\ \\   ___  \\ \\  \\_|/_\\ \\  \\\\ \\  \\       \\ \\   ____\\ \\  \\\\\\  \\ \\  \\\\\\  \\ \\  \\       \n      \\ \\  \\ \\ \\  \\\\\\  \\ \\  \\\\ \\  \\ \\  \\_|\\ \\ \\  \\\\ \\  \\       \\ \\  \\___|\\ \\  \\\\\\  \\ \\  \\\\\\  \\ \\  \\____  \n       \\ \\__\\ \\ \\_______\\ \\__\\\\ \\__\\ \\_______\\ \\__\\\\ \\__\\       \\ \\__\\    \\ \\_______\\ \\_______\\ \\_______\\\n        \\|__|  \\|_______|\\|__| \\|__|\\|_______|\\|__| \\|__|        \\|__|     \\|_______|\\|_______|\\|_______|\n\nDescription:\n    This is a mock token pool contract. It is meant to be used for testing purposes only as is a simplified \n    version of the real governance token pool contracts.\n\n*/\n\n\ncontract TokenPool is Ownable {\n    /// -----------------------------\n    ///         Storage\n    /// -----------------------------\n\n    IERC20 public treasuryToken;\n    address public proxyFactory;\n    address public voteProxyRegistry;\n\n    \n    // token --> allowed\n    mapping(address => bool) public whiteListTokens;\n\n    // token --> price feed\n    mapping(address => address) public tokenToPriceFeed;\n    \n\n    /// -----------------------------\n    ///         Events\n    /// -----------------------------\n\n    event VoteProxyDeployed(address indexed proxyAddress, address _governanceTokenAddress);\n\n    /// -----------------------------\n    ///         Error\n    /// -----------------------------\n    \n    error OnlyFactory();\n\n    /// -----------------------------\n    ///         Constructor\n    /// -----------------------------\n\n    /**\n    * @dev Constructor - (N.B. Will likely change a lot during development)   \n    * @param _treasuryTokenAddress: address - The address of the treasury token\n    * @param _proxyFactory: address - The address of the proxy factory (needed for transfering tokens)\n    * @param _voteProxyRegistry: address- The address of the vote proxy registry \n    *                                     (needed for the fund proxy function)\n    */\n    constructor(address _treasuryTokenAddress, address _proxyFactory, address _voteProxyRegistry){\n        treasuryToken = IERC20(_treasuryTokenAddress);\n        proxyFactory = _proxyFactory;\n        voteProxyRegistry = _voteProxyRegistry;\n    }\n\n    /// -----------------------------\n    ///         Modifiers\n    /// -----------------------------\n\n    modifier onlyFactory() {\n        if (msg.sender != proxyFactory){\n            revert OnlyFactory();\n        }\n        _;\n    }\n\n    /// -----------------------------\n    ///         External\n    /// -----------------------------\n\n    /**\n    * @dev Allows user to stake GT in return for TSRY \n    * @param _amount: uint - Amount of GT they want to stake\n    * @param _token: address - The address of the GT\n    */\n    function stakeToEarn(uint256 _amount, address _token) external {\n        require(_amount > 0, \"Amount must be more than 0\");\n        require(whiteListTokens[_token], \"Token not whitelisted\");\n        IERC20(_token).transferFrom(msg.sender, address(this), _amount);\n        issueTreasury(msg.sender, _amount);\n    }\n\n    /**\n    * @dev Transfer GT to a proxy by first converting TSRY amount to GT amount.\n    * @param _tsryAmount: uint256 - Amount of TSRY to be converted to amount of GT\n    * @param _governanceToken: address - The token that needs to be sent\n    * @param _user: address - user address needed to find if the proxy is valid in the registry\n    * @param _tsryPrice: uint256 - TESTING ONLY sets price of TSRY\n    */\n    function fundProxy(uint256 _tsryAmount, address _governanceToken, address _user, uint256 _tsryPrice) external  {\n        require((IVoteProxyRegistry(voteProxyRegistry).validProxy(_user, msg.sender)), \"Not a valid proxy address\");\n        uint256 totalBalance = IERC20(_governanceToken).balanceOf(address(this));\n        uint256 gtAllowance = getUserGTAllowance(_tsryAmount, _governanceToken, _tsryPrice);\n        if (gtAllowance > totalBalance) {\n            IERC20(_governanceToken).transfer(msg.sender, totalBalance);\n        } else {\n             IERC20(_governanceToken).transfer(msg.sender, gtAllowance);\n        }\n        \n    }\n\n    /**\n    * @dev Adds allowed tokens to mapping as well as its corresponding priceFeed.\n    * @param _token: address - Token to be whitelisted\n    * @param _priceFeed: address - Pricefeed of token\n    */\n    function addAllowedTokens(address _token,  address _priceFeed) external onlyOwner {\n        whiteListTokens[_token] = true;\n        tokenToPriceFeed[_token] = _priceFeed;\n        \n    }\n\n    /// -----------------------------\n    ///         Internal\n    /// -----------------------------\n\n\n    /**\n    * @dev Actually issues the treasury tokens to the user\n    * @param _recipient: address - The address recipient user\n    * @param _amount: uint - Amount of treasury tokens to be issued\n    */\n    function issueTreasury(address _recipient, uint _amount) internal {\n        treasuryToken.transfer(_recipient, _amount);\n    }\n\n        \n    /// -----------------------------\n    ///         Public View\n    /// -----------------------------\n\n    /**\n    * @dev Returns amount of GT from amount of TSRY (and price).\n    * Converts TSRY amount --> GT amount\n    * @param _tsryAmount: uint256 - Amount of tsry to covert to GT\n    * @param _token: address - which token to get allowance for\n    * @param _tsryPrice: uint256 - Price of TSRY (testing  only)\n    */\n    function getUserGTAllowance(uint256 _tsryAmount, address _token, uint256 _tsryPrice) public view returns (uint256) {\n        uint _usdAmountTsry = treasuryValue(_tsryAmount, _tsryPrice);\n        require(_usdAmountTsry > 1e36, \"Please fund proxy with more than 1 dollars worth of TSRY\");\n        uint gtAllowance = getGTamount(_usdAmountTsry, _token);\n        return gtAllowance;\n    }\n\n    /**\n    * @dev Calculates corresponding GT from amount of TSRY given.\n    * @param _usdAmountTsry: uint256 - Total value in USD (wei) of TSRY given.\n    * @param _governanceToken: address - GT needed to get price of\n    */\n    function getGTamount(uint256 _usdAmountTsry, address _governanceToken) public view returns (uint256) {\n        uint256 priceGt = getGTPrice(_governanceToken);\n        return (_usdAmountTsry / priceGt);\n    }\n\n    /**\n    * @dev Gets price from oracle for GT (i.e., Aave/dollars).\n    */\n    function getGTPrice(address _token) public view returns (uint256) {\n        // price feed\n        address priceFeedAddress = tokenToPriceFeed[_token];\n        AggregatorV3Interface oracle = AggregatorV2V3Interface(priceFeedAddress);\n        (, int256 price,,,) = oracle.latestRoundData();\n        return uint256(price)* 10**10; \n    }\n\n\n    /// -----------------------------\n    ///         Public Pure\n    /// -----------------------------\n\n\n    /**\n    * @dev Testing Only. Calculates value of TSRY given a set price and amount.\n    * @param _tsryAmount: uint256 - Amount of tsry (wei)\n    * @param _tsryPrice: uint256 - Price in dollars / token (not given as dollars/wei hence * 1e18)\n    */\n    function treasuryValue(uint256 _tsryAmount, uint256 _tsryPrice) public pure returns (uint256) {\n        uint256 usdAmount = (_tsryAmount  * (_tsryPrice * 10**18));\n        return usdAmount;\n    }\n\n}",
  "sourcePath": "contracts/TokenPool.sol",
  "type": "contract"
}