{
  "abi": [
    {
      "inputs": [],
      "name": "OnlyFactory",
      "type": "error"
    },
    {
      "anonymous": false,
      "inputs": [
        {
          "indexed": true,
          "internalType": "address",
          "name": "previousOwner",
          "type": "address"
        },
        {
          "indexed": true,
          "internalType": "address",
          "name": "newOwner",
          "type": "address"
        }
      ],
      "name": "OwnershipTransferred",
      "type": "event"
    },
    {
      "inputs": [
        {
          "internalType": "address",
          "name": "_factory",
          "type": "address"
        }
      ],
      "name": "addFactory",
      "outputs": [],
      "stateMutability": "nonpayable",
      "type": "function"
    },
    {
      "inputs": [
        {
          "internalType": "address",
          "name": "_governanceToken",
          "type": "address"
        },
        {
          "internalType": "address",
          "name": "_governor",
          "type": "address"
        }
      ],
      "name": "addGovernor",
      "outputs": [],
      "stateMutability": "nonpayable",
      "type": "function"
    },
    {
      "inputs": [
        {
          "internalType": "address",
          "name": "_user",
          "type": "address"
        },
        {
          "internalType": "address",
          "name": "_governanceToken",
          "type": "address"
        },
        {
          "internalType": "bool",
          "name": "_isOnChain",
          "type": "bool"
        }
      ],
      "name": "checkProxy",
      "outputs": [
        {
          "internalType": "bool",
          "name": "",
          "type": "bool"
        }
      ],
      "stateMutability": "view",
      "type": "function"
    },
    {
      "inputs": [
        {
          "internalType": "address",
          "name": "_user",
          "type": "address"
        },
        {
          "internalType": "address",
          "name": "_governanceToken",
          "type": "address"
        },
        {
          "internalType": "bool",
          "name": "_isOnChain",
          "type": "bool"
        }
      ],
      "name": "getProxyAddress",
      "outputs": [
        {
          "internalType": "address",
          "name": "",
          "type": "address"
        }
      ],
      "stateMutability": "view",
      "type": "function"
    },
    {
      "inputs": [],
      "name": "owner",
      "outputs": [
        {
          "internalType": "address",
          "name": "",
          "type": "address"
        }
      ],
      "stateMutability": "view",
      "type": "function"
    },
    {
      "inputs": [],
      "name": "proxyFactory",
      "outputs": [
        {
          "internalType": "address",
          "name": "",
          "type": "address"
        }
      ],
      "stateMutability": "view",
      "type": "function"
    },
    {
      "inputs": [
        {
          "internalType": "address",
          "name": "_user",
          "type": "address"
        },
        {
          "internalType": "address",
          "name": "_proxyAddress",
          "type": "address"
        },
        {
          "internalType": "address",
          "name": "_governanceToken",
          "type": "address"
        },
        {
          "internalType": "bool",
          "name": "_onChain",
          "type": "bool"
        }
      ],
      "name": "registerProxy",
      "outputs": [
        {
          "internalType": "bool",
          "name": "",
          "type": "bool"
        }
      ],
      "stateMutability": "nonpayable",
      "type": "function"
    },
    {
      "inputs": [],
      "name": "renounceOwnership",
      "outputs": [],
      "stateMutability": "nonpayable",
      "type": "function"
    },
    {
      "inputs": [
        {
          "internalType": "address",
          "name": "",
          "type": "address"
        }
      ],
      "name": "tokenToGovernor",
      "outputs": [
        {
          "internalType": "address",
          "name": "",
          "type": "address"
        }
      ],
      "stateMutability": "view",
      "type": "function"
    },
    {
      "inputs": [
        {
          "internalType": "address",
          "name": "newOwner",
          "type": "address"
        }
      ],
      "name": "transferOwnership",
      "outputs": [],
      "stateMutability": "nonpayable",
      "type": "function"
    },
    {
      "inputs": [
        {
          "internalType": "address",
          "name": "_user",
          "type": "address"
        },
        {
          "internalType": "address",
          "name": "_proxyAddress",
          "type": "address"
        }
      ],
      "name": "validProxy",
      "outputs": [
        {
          "internalType": "bool",
          "name": "",
          "type": "bool"
        }
      ],
      "stateMutability": "view",
      "type": "function"
    }
  ],
  "bytecode": "608060405234801561001057600080fd5b5061001a3361001f565b61006f565b600080546001600160a01b038381166001600160a01b0319831681178455604051919092169283917f8be0079c531659141344cd1fd0a4f28419497f9722a3daafe3b4186f6b6457e09190a35050565b6109128061007e6000396000f3fe608060405234801561001057600080fd5b50600436106100a95760003560e01c806368d9d3561161007157806368d9d35614610152578063715018a6146101655780638da5cb5b1461016d578063c10f1a751461017e578063f0594eb114610191578063f2fde38b146101a457600080fd5b8063172ed2dc146100ae57806329ce1ec5146100c357806332f89f6c146100d65780633acf9041146100fe578063518d7f401461013f575b600080fd5b6100c16100bc3660046107d1565b6101b7565b005b6100c16100d1366004610804565b6101ed565b6100e96100e436600461082f565b610217565b60405190151581526020015b60405180910390f35b61012761010c366004610804565b6002602052600090815260409020546001600160a01b031681565b6040516001600160a01b0390911681526020016100f5565b6100e961014d3660046107d1565b6102df565b610127610160366004610883565b6103df565b6100c161055a565b6000546001600160a01b0316610127565b600354610127906001600160a01b031681565b6100e961019f366004610883565b61056e565b6100c16101b2366004610804565b61068d565b6101bf61070b565b6001600160a01b03918216600090815260026020526040902080546001600160a01b03191691909216179055565b6101f561070b565b600380546001600160a01b0319166001600160a01b0392909216919091179055565b6003546000906001600160a01b0316331461024557604051630636a15760e11b815260040160405180910390fd5b50604080516060810182526001600160a01b038086168252848116602080840191825285151584860190815289841660009081526001808452968120805480890182559082529290209451600290920290940180549184166001600160a01b03199092169190911781559051908401805493511515600160a01b026001600160a81b03199094169190921617919091179055949350505050565b6001600160a01b038216600090815260016020908152604080832080548251818502810185019093528083528493849084015b82821015610372576000848152602090819020604080516060810182526002860290920180546001600160a01b03908116845260019182015490811684860152600160a01b900460ff161515918301919091529083529092019101610312565b5050825192935060009150505b818110156103d157846001600160a01b03168382815181106103a3576103a36108c6565b6020026020010151600001516001600160a01b0316036103c957600193505050506103d9565b60010161037f565b506000925050505b92915050565b6003546000906001600160a01b0316331461040d57604051630636a15760e11b815260040160405180910390fd5b6001600160a01b038416600090815260016020908152604080832080548251818502810185019093528083529192909190849084015b828210156104a3576000848152602090819020604080516060810182526002860290920180546001600160a01b03908116845260019182015490811684860152600160a01b900460ff161515918301919091529083529092019101610443565b5050825192935060009150505b8181101561054b57856001600160a01b03168382815181106104d4576104d46108c6565b6020026020010151602001516001600160a01b03161480156105165750841515838281518110610506576105066108c6565b6020026020010151604001511515145b156105435782818151811061052d5761052d6108c6565b6020026020010151600001519350505050610553565b6001016104b0565b506000925050505b9392505050565b61056261070b565b61056c6000610765565b565b6001600160a01b038316600090815260016020908152604080832080548251818502810185019093528083528493849084015b82821015610601576000848152602090819020604080516060810182526002860290920180546001600160a01b03908116845260019182015490811684860152600160a01b900460ff1615159183019190915290835290920191016105a1565b5050825192935060009150505b8181101561054b57856001600160a01b0316838281518110610632576106326108c6565b6020026020010151602001516001600160a01b03161480156106745750841515838281518110610664576106646108c6565b6020026020010151604001511515145b156106855760019350505050610553565b60010161060e565b61069561070b565b6001600160a01b0381166106ff5760405162461bcd60e51b815260206004820152602660248201527f4f776e61626c653a206e6577206f776e657220697320746865207a65726f206160448201526564647265737360d01b60648201526084015b60405180910390fd5b61070881610765565b50565b6000546001600160a01b0316331461056c5760405162461bcd60e51b815260206004820181905260248201527f4f776e61626c653a2063616c6c6572206973206e6f7420746865206f776e657260448201526064016106f6565b600080546001600160a01b038381166001600160a01b0319831681178455604051919092169283917f8be0079c531659141344cd1fd0a4f28419497f9722a3daafe3b4186f6b6457e09190a35050565b80356001600160a01b03811681146107cc57600080fd5b919050565b600080604083850312156107e457600080fd5b6107ed836107b5565b91506107fb602084016107b5565b90509250929050565b60006020828403121561081657600080fd5b610553826107b5565b803580151581146107cc57600080fd5b6000806000806080858703121561084557600080fd5b61084e856107b5565b935061085c602086016107b5565b925061086a604086016107b5565b91506108786060860161081f565b905092959194509250565b60008060006060848603121561089857600080fd5b6108a1846107b5565b92506108af602085016107b5565b91506108bd6040850161081f565b90509250925092565b634e487b7160e01b600052603260045260246000fdfea2646970667358221220c38228dd81d1e2c59e0751d1f310da0a1d2890cbbbe50b337dc66fb1e613403c64736f6c634300080f0033",
  "bytecodeSha1": "15bfd6268c5f50baea33903599093613095a5cf6",
  "compiler": {
    "evm_version": "istanbul",
    "optimizer": {
      "enabled": true,
      "runs": 200
    },
    "version": "0.8.15+commit.e14f2714"
  },
  "contractName": "VoteProxyRegistry",
  "language": "Solidity",
  "natspec": {
    "errors": {
      "OnlyFactory()": [
        {
          "notice": "-----------------------------         Error -----------------------------"
        }
      ]
    },
    "kind": "dev",
    "methods": {
      "addFactory(address)": {
        "details": "Sets the factory address",
        "params": {
          "_factory": ": address - factory"
        }
      },
      "addGovernor(address,address)": {
        "details": "Adds to the governor token --> governor contract mapping.",
        "params": {
          "_governanceToken": ": address - Governance token of DAO",
          "_governor": ": bool - Governor contract"
        }
      },
      "checkProxy(address,address,bool)": {
        "details": "Checks if a user already has a proxy for that token.",
        "params": {
          "_governanceToken": ": address - Governance token of DAO",
          "_isOnChain": ": bool - If the proxy relates to on vs off chain voting",
          "_user": ": address - Address of user"
        }
      },
      "getProxyAddress(address,address,bool)": {
        "notice": "-----------------------------        External View -----------------------------"
      },
      "owner()": {
        "details": "Returns the address of the current owner."
      },
      "registerProxy(address,address,address,bool)": {
        "details": "Adds proxy to the registry with proxy details",
        "params": {
          "_governanceToken": ": address - Address of governance token",
          "_onChain": ": Bool - whether voting mechanism is on or off chain",
          "_proxyAddress": ": address - Address of proxy",
          "_user": ": address - Address of user"
        }
      },
      "renounceOwnership()": {
        "details": "Leaves the contract without owner. It will not be possible to call `onlyOwner` functions anymore. Can only be called by the current owner. NOTE: Renouncing ownership will leave the contract without an owner, thereby removing any functionality that is only available to the owner."
      },
      "transferOwnership(address)": {
        "details": "Transfers ownership of the contract to a new account (`newOwner`). Can only be called by the current owner."
      },
      "validProxy(address,address)": {
        "details": "Checks that proxy is valid.",
        "params": {
          "_proxyAddress": ": address - Address of proxy",
          "_user": ": address - Address of user"
        }
      }
    },
    "version": 1
  },
  "opcodes": "PUSH1 0x80 PUSH1 0x40 MSTORE CALLVALUE DUP1 ISZERO PUSH2 0x10 JUMPI PUSH1 0x0 DUP1 REVERT JUMPDEST POP PUSH1 0x4 CALLDATASIZE LT PUSH2 0xA9 JUMPI PUSH1 0x0 CALLDATALOAD PUSH1 0xE0 SHR DUP1 PUSH4 0x68D9D356 GT PUSH2 0x71 JUMPI DUP1 PUSH4 0x68D9D356 EQ PUSH2 0x152 JUMPI DUP1 PUSH4 0x715018A6 EQ PUSH2 0x165 JUMPI DUP1 PUSH4 0x8DA5CB5B EQ PUSH2 0x16D JUMPI DUP1 PUSH4 0xC10F1A75 EQ PUSH2 0x17E JUMPI DUP1 PUSH4 0xF0594EB1 EQ PUSH2 0x191 JUMPI DUP1 PUSH4 0xF2FDE38B EQ PUSH2 0x1A4 JUMPI PUSH1 0x0 DUP1 REVERT JUMPDEST DUP1 PUSH4 0x172ED2DC EQ PUSH2 0xAE JUMPI DUP1 PUSH4 0x29CE1EC5 EQ PUSH2 0xC3 JUMPI DUP1 PUSH4 0x32F89F6C EQ PUSH2 0xD6 JUMPI DUP1 PUSH4 0x3ACF9041 EQ PUSH2 0xFE JUMPI DUP1 PUSH4 0x518D7F40 EQ PUSH2 0x13F JUMPI JUMPDEST PUSH1 0x0 DUP1 REVERT JUMPDEST PUSH2 0xC1 PUSH2 0xBC CALLDATASIZE PUSH1 0x4 PUSH2 0x7D1 JUMP JUMPDEST PUSH2 0x1B7 JUMP JUMPDEST STOP JUMPDEST PUSH2 0xC1 PUSH2 0xD1 CALLDATASIZE PUSH1 0x4 PUSH2 0x804 JUMP JUMPDEST PUSH2 0x1ED JUMP JUMPDEST PUSH2 0xE9 PUSH2 0xE4 CALLDATASIZE PUSH1 0x4 PUSH2 0x82F JUMP JUMPDEST PUSH2 0x217 JUMP JUMPDEST PUSH1 0x40 MLOAD SWAP1 ISZERO ISZERO DUP2 MSTORE PUSH1 0x20 ADD JUMPDEST PUSH1 0x40 MLOAD DUP1 SWAP2 SUB SWAP1 RETURN JUMPDEST PUSH2 0x127 PUSH2 0x10C CALLDATASIZE PUSH1 0x4 PUSH2 0x804 JUMP JUMPDEST PUSH1 0x2 PUSH1 0x20 MSTORE PUSH1 0x0 SWAP1 DUP2 MSTORE PUSH1 0x40 SWAP1 KECCAK256 SLOAD PUSH1 0x1 PUSH1 0x1 PUSH1 0xA0 SHL SUB AND DUP2 JUMP JUMPDEST PUSH1 0x40 MLOAD PUSH1 0x1 PUSH1 0x1 PUSH1 0xA0 SHL SUB SWAP1 SWAP2 AND DUP2 MSTORE PUSH1 0x20 ADD PUSH2 0xF5 JUMP JUMPDEST PUSH2 0xE9 PUSH2 0x14D CALLDATASIZE PUSH1 0x4 PUSH2 0x7D1 JUMP JUMPDEST PUSH2 0x2DF JUMP JUMPDEST PUSH2 0x127 PUSH2 0x160 CALLDATASIZE PUSH1 0x4 PUSH2 0x883 JUMP JUMPDEST PUSH2 0x3DF JUMP JUMPDEST PUSH2 0xC1 PUSH2 0x55A JUMP JUMPDEST PUSH1 0x0 SLOAD PUSH1 0x1 PUSH1 0x1 PUSH1 0xA0 SHL SUB AND PUSH2 0x127 JUMP JUMPDEST PUSH1 0x3 SLOAD PUSH2 0x127 SWAP1 PUSH1 0x1 PUSH1 0x1 PUSH1 0xA0 SHL SUB AND DUP2 JUMP JUMPDEST PUSH2 0xE9 PUSH2 0x19F CALLDATASIZE PUSH1 0x4 PUSH2 0x883 JUMP JUMPDEST PUSH2 0x56E JUMP JUMPDEST PUSH2 0xC1 PUSH2 0x1B2 CALLDATASIZE PUSH1 0x4 PUSH2 0x804 JUMP JUMPDEST PUSH2 0x68D JUMP JUMPDEST PUSH2 0x1BF PUSH2 0x70B JUMP JUMPDEST PUSH1 0x1 PUSH1 0x1 PUSH1 0xA0 SHL SUB SWAP2 DUP3 AND PUSH1 0x0 SWAP1 DUP2 MSTORE PUSH1 0x2 PUSH1 0x20 MSTORE PUSH1 0x40 SWAP1 KECCAK256 DUP1 SLOAD PUSH1 0x1 PUSH1 0x1 PUSH1 0xA0 SHL SUB NOT AND SWAP2 SWAP1 SWAP3 AND OR SWAP1 SSTORE JUMP JUMPDEST PUSH2 0x1F5 PUSH2 0x70B JUMP JUMPDEST PUSH1 0x3 DUP1 SLOAD PUSH1 0x1 PUSH1 0x1 PUSH1 0xA0 SHL SUB NOT AND PUSH1 0x1 PUSH1 0x1 PUSH1 0xA0 SHL SUB SWAP3 SWAP1 SWAP3 AND SWAP2 SWAP1 SWAP2 OR SWAP1 SSTORE JUMP JUMPDEST PUSH1 0x3 SLOAD PUSH1 0x0 SWAP1 PUSH1 0x1 PUSH1 0x1 PUSH1 0xA0 SHL SUB AND CALLER EQ PUSH2 0x245 JUMPI PUSH1 0x40 MLOAD PUSH4 0x636A157 PUSH1 0xE1 SHL DUP2 MSTORE PUSH1 0x4 ADD PUSH1 0x40 MLOAD DUP1 SWAP2 SUB SWAP1 REVERT JUMPDEST POP PUSH1 0x40 DUP1 MLOAD PUSH1 0x60 DUP2 ADD DUP3 MSTORE PUSH1 0x1 PUSH1 0x1 PUSH1 0xA0 SHL SUB DUP1 DUP7 AND DUP3 MSTORE DUP5 DUP2 AND PUSH1 0x20 DUP1 DUP5 ADD SWAP2 DUP3 MSTORE DUP6 ISZERO ISZERO DUP5 DUP7 ADD SWAP1 DUP2 MSTORE DUP10 DUP5 AND PUSH1 0x0 SWAP1 DUP2 MSTORE PUSH1 0x1 DUP1 DUP5 MSTORE SWAP7 DUP2 KECCAK256 DUP1 SLOAD DUP1 DUP10 ADD DUP3 SSTORE SWAP1 DUP3 MSTORE SWAP3 SWAP1 KECCAK256 SWAP5 MLOAD PUSH1 0x2 SWAP1 SWAP3 MUL SWAP1 SWAP5 ADD DUP1 SLOAD SWAP2 DUP5 AND PUSH1 0x1 PUSH1 0x1 PUSH1 0xA0 SHL SUB NOT SWAP1 SWAP3 AND SWAP2 SWAP1 SWAP2 OR DUP2 SSTORE SWAP1 MLOAD SWAP1 DUP5 ADD DUP1 SLOAD SWAP4 MLOAD ISZERO ISZERO PUSH1 0x1 PUSH1 0xA0 SHL MUL PUSH1 0x1 PUSH1 0x1 PUSH1 0xA8 SHL SUB NOT SWAP1 SWAP5 AND SWAP2 SWAP1 SWAP3 AND OR SWAP2 SWAP1 SWAP2 OR SWAP1 SSTORE SWAP5 SWAP4 POP POP POP POP JUMP JUMPDEST PUSH1 0x1 PUSH1 0x1 PUSH1 0xA0 SHL SUB DUP3 AND PUSH1 0x0 SWAP1 DUP2 MSTORE PUSH1 0x1 PUSH1 0x20 SWAP1 DUP2 MSTORE PUSH1 0x40 DUP1 DUP4 KECCAK256 DUP1 SLOAD DUP3 MLOAD DUP2 DUP6 MUL DUP2 ADD DUP6 ADD SWAP1 SWAP4 MSTORE DUP1 DUP4 MSTORE DUP5 SWAP4 DUP5 SWAP1 DUP5 ADD JUMPDEST DUP3 DUP3 LT ISZERO PUSH2 0x372 JUMPI PUSH1 0x0 DUP5 DUP2 MSTORE PUSH1 0x20 SWAP1 DUP2 SWAP1 KECCAK256 PUSH1 0x40 DUP1 MLOAD PUSH1 0x60 DUP2 ADD DUP3 MSTORE PUSH1 0x2 DUP7 MUL SWAP1 SWAP3 ADD DUP1 SLOAD PUSH1 0x1 PUSH1 0x1 PUSH1 0xA0 SHL SUB SWAP1 DUP2 AND DUP5 MSTORE PUSH1 0x1 SWAP2 DUP3 ADD SLOAD SWAP1 DUP2 AND DUP5 DUP7 ADD MSTORE PUSH1 0x1 PUSH1 0xA0 SHL SWAP1 DIV PUSH1 0xFF AND ISZERO ISZERO SWAP2 DUP4 ADD SWAP2 SWAP1 SWAP2 MSTORE SWAP1 DUP4 MSTORE SWAP1 SWAP3 ADD SWAP2 ADD PUSH2 0x312 JUMP JUMPDEST POP POP DUP3 MLOAD SWAP3 SWAP4 POP PUSH1 0x0 SWAP2 POP POP JUMPDEST DUP2 DUP2 LT ISZERO PUSH2 0x3D1 JUMPI DUP5 PUSH1 0x1 PUSH1 0x1 PUSH1 0xA0 SHL SUB AND DUP4 DUP3 DUP2 MLOAD DUP2 LT PUSH2 0x3A3 JUMPI PUSH2 0x3A3 PUSH2 0x8C6 JUMP JUMPDEST PUSH1 0x20 MUL PUSH1 0x20 ADD ADD MLOAD PUSH1 0x0 ADD MLOAD PUSH1 0x1 PUSH1 0x1 PUSH1 0xA0 SHL SUB AND SUB PUSH2 0x3C9 JUMPI PUSH1 0x1 SWAP4 POP POP POP POP PUSH2 0x3D9 JUMP JUMPDEST PUSH1 0x1 ADD PUSH2 0x37F JUMP JUMPDEST POP PUSH1 0x0 SWAP3 POP POP POP JUMPDEST SWAP3 SWAP2 POP POP JUMP JUMPDEST PUSH1 0x3 SLOAD PUSH1 0x0 SWAP1 PUSH1 0x1 PUSH1 0x1 PUSH1 0xA0 SHL SUB AND CALLER EQ PUSH2 0x40D JUMPI PUSH1 0x40 MLOAD PUSH4 0x636A157 PUSH1 0xE1 SHL DUP2 MSTORE PUSH1 0x4 ADD PUSH1 0x40 MLOAD DUP1 SWAP2 SUB SWAP1 REVERT JUMPDEST PUSH1 0x1 PUSH1 0x1 PUSH1 0xA0 SHL SUB DUP5 AND PUSH1 0x0 SWAP1 DUP2 MSTORE PUSH1 0x1 PUSH1 0x20 SWAP1 DUP2 MSTORE PUSH1 0x40 DUP1 DUP4 KECCAK256 DUP1 SLOAD DUP3 MLOAD DUP2 DUP6 MUL DUP2 ADD DUP6 ADD SWAP1 SWAP4 MSTORE DUP1 DUP4 MSTORE SWAP2 SWAP3 SWAP1 SWAP2 SWAP1 DUP5 SWAP1 DUP5 ADD JUMPDEST DUP3 DUP3 LT ISZERO PUSH2 0x4A3 JUMPI PUSH1 0x0 DUP5 DUP2 MSTORE PUSH1 0x20 SWAP1 DUP2 SWAP1 KECCAK256 PUSH1 0x40 DUP1 MLOAD PUSH1 0x60 DUP2 ADD DUP3 MSTORE PUSH1 0x2 DUP7 MUL SWAP1 SWAP3 ADD DUP1 SLOAD PUSH1 0x1 PUSH1 0x1 PUSH1 0xA0 SHL SUB SWAP1 DUP2 AND DUP5 MSTORE PUSH1 0x1 SWAP2 DUP3 ADD SLOAD SWAP1 DUP2 AND DUP5 DUP7 ADD MSTORE PUSH1 0x1 PUSH1 0xA0 SHL SWAP1 DIV PUSH1 0xFF AND ISZERO ISZERO SWAP2 DUP4 ADD SWAP2 SWAP1 SWAP2 MSTORE SWAP1 DUP4 MSTORE SWAP1 SWAP3 ADD SWAP2 ADD PUSH2 0x443 JUMP JUMPDEST POP POP DUP3 MLOAD SWAP3 SWAP4 POP PUSH1 0x0 SWAP2 POP POP JUMPDEST DUP2 DUP2 LT ISZERO PUSH2 0x54B JUMPI DUP6 PUSH1 0x1 PUSH1 0x1 PUSH1 0xA0 SHL SUB AND DUP4 DUP3 DUP2 MLOAD DUP2 LT PUSH2 0x4D4 JUMPI PUSH2 0x4D4 PUSH2 0x8C6 JUMP JUMPDEST PUSH1 0x20 MUL PUSH1 0x20 ADD ADD MLOAD PUSH1 0x20 ADD MLOAD PUSH1 0x1 PUSH1 0x1 PUSH1 0xA0 SHL SUB AND EQ DUP1 ISZERO PUSH2 0x516 JUMPI POP DUP5 ISZERO ISZERO DUP4 DUP3 DUP2 MLOAD DUP2 LT PUSH2 0x506 JUMPI PUSH2 0x506 PUSH2 0x8C6 JUMP JUMPDEST PUSH1 0x20 MUL PUSH1 0x20 ADD ADD MLOAD PUSH1 0x40 ADD MLOAD ISZERO ISZERO EQ JUMPDEST ISZERO PUSH2 0x543 JUMPI DUP3 DUP2 DUP2 MLOAD DUP2 LT PUSH2 0x52D JUMPI PUSH2 0x52D PUSH2 0x8C6 JUMP JUMPDEST PUSH1 0x20 MUL PUSH1 0x20 ADD ADD MLOAD PUSH1 0x0 ADD MLOAD SWAP4 POP POP POP POP PUSH2 0x553 JUMP JUMPDEST PUSH1 0x1 ADD PUSH2 0x4B0 JUMP JUMPDEST POP PUSH1 0x0 SWAP3 POP POP POP JUMPDEST SWAP4 SWAP3 POP POP POP JUMP JUMPDEST PUSH2 0x562 PUSH2 0x70B JUMP JUMPDEST PUSH2 0x56C PUSH1 0x0 PUSH2 0x765 JUMP JUMPDEST JUMP JUMPDEST PUSH1 0x1 PUSH1 0x1 PUSH1 0xA0 SHL SUB DUP4 AND PUSH1 0x0 SWAP1 DUP2 MSTORE PUSH1 0x1 PUSH1 0x20 SWAP1 DUP2 MSTORE PUSH1 0x40 DUP1 DUP4 KECCAK256 DUP1 SLOAD DUP3 MLOAD DUP2 DUP6 MUL DUP2 ADD DUP6 ADD SWAP1 SWAP4 MSTORE DUP1 DUP4 MSTORE DUP5 SWAP4 DUP5 SWAP1 DUP5 ADD JUMPDEST DUP3 DUP3 LT ISZERO PUSH2 0x601 JUMPI PUSH1 0x0 DUP5 DUP2 MSTORE PUSH1 0x20 SWAP1 DUP2 SWAP1 KECCAK256 PUSH1 0x40 DUP1 MLOAD PUSH1 0x60 DUP2 ADD DUP3 MSTORE PUSH1 0x2 DUP7 MUL SWAP1 SWAP3 ADD DUP1 SLOAD PUSH1 0x1 PUSH1 0x1 PUSH1 0xA0 SHL SUB SWAP1 DUP2 AND DUP5 MSTORE PUSH1 0x1 SWAP2 DUP3 ADD SLOAD SWAP1 DUP2 AND DUP5 DUP7 ADD MSTORE PUSH1 0x1 PUSH1 0xA0 SHL SWAP1 DIV PUSH1 0xFF AND ISZERO ISZERO SWAP2 DUP4 ADD SWAP2 SWAP1 SWAP2 MSTORE SWAP1 DUP4 MSTORE SWAP1 SWAP3 ADD SWAP2 ADD PUSH2 0x5A1 JUMP JUMPDEST POP POP DUP3 MLOAD SWAP3 SWAP4 POP PUSH1 0x0 SWAP2 POP POP JUMPDEST DUP2 DUP2 LT ISZERO PUSH2 0x54B JUMPI DUP6 PUSH1 0x1 PUSH1 0x1 PUSH1 0xA0 SHL SUB AND DUP4 DUP3 DUP2 MLOAD DUP2 LT PUSH2 0x632 JUMPI PUSH2 0x632 PUSH2 0x8C6 JUMP JUMPDEST PUSH1 0x20 MUL PUSH1 0x20 ADD ADD MLOAD PUSH1 0x20 ADD MLOAD PUSH1 0x1 PUSH1 0x1 PUSH1 0xA0 SHL SUB AND EQ DUP1 ISZERO PUSH2 0x674 JUMPI POP DUP5 ISZERO ISZERO DUP4 DUP3 DUP2 MLOAD DUP2 LT PUSH2 0x664 JUMPI PUSH2 0x664 PUSH2 0x8C6 JUMP JUMPDEST PUSH1 0x20 MUL PUSH1 0x20 ADD ADD MLOAD PUSH1 0x40 ADD MLOAD ISZERO ISZERO EQ JUMPDEST ISZERO PUSH2 0x685 JUMPI PUSH1 0x1 SWAP4 POP POP POP POP PUSH2 0x553 JUMP JUMPDEST PUSH1 0x1 ADD PUSH2 0x60E JUMP JUMPDEST PUSH2 0x695 PUSH2 0x70B JUMP JUMPDEST PUSH1 0x1 PUSH1 0x1 PUSH1 0xA0 SHL SUB DUP2 AND PUSH2 0x6FF JUMPI PUSH1 0x40 MLOAD PUSH3 0x461BCD PUSH1 0xE5 SHL DUP2 MSTORE PUSH1 0x20 PUSH1 0x4 DUP3 ADD MSTORE PUSH1 0x26 PUSH1 0x24 DUP3 ADD MSTORE PUSH32 0x4F776E61626C653A206E6577206F776E657220697320746865207A65726F2061 PUSH1 0x44 DUP3 ADD MSTORE PUSH6 0x646472657373 PUSH1 0xD0 SHL PUSH1 0x64 DUP3 ADD MSTORE PUSH1 0x84 ADD JUMPDEST PUSH1 0x40 MLOAD DUP1 SWAP2 SUB SWAP1 REVERT JUMPDEST PUSH2 0x708 DUP2 PUSH2 0x765 JUMP JUMPDEST POP JUMP JUMPDEST PUSH1 0x0 SLOAD PUSH1 0x1 PUSH1 0x1 PUSH1 0xA0 SHL SUB AND CALLER EQ PUSH2 0x56C JUMPI PUSH1 0x40 MLOAD PUSH3 0x461BCD PUSH1 0xE5 SHL DUP2 MSTORE PUSH1 0x20 PUSH1 0x4 DUP3 ADD DUP2 SWAP1 MSTORE PUSH1 0x24 DUP3 ADD MSTORE PUSH32 0x4F776E61626C653A2063616C6C6572206973206E6F7420746865206F776E6572 PUSH1 0x44 DUP3 ADD MSTORE PUSH1 0x64 ADD PUSH2 0x6F6 JUMP JUMPDEST PUSH1 0x0 DUP1 SLOAD PUSH1 0x1 PUSH1 0x1 PUSH1 0xA0 SHL SUB DUP4 DUP2 AND PUSH1 0x1 PUSH1 0x1 PUSH1 0xA0 SHL SUB NOT DUP4 AND DUP2 OR DUP5 SSTORE PUSH1 0x40 MLOAD SWAP2 SWAP1 SWAP3 AND SWAP3 DUP4 SWAP2 PUSH32 0x8BE0079C531659141344CD1FD0A4F28419497F9722A3DAAFE3B4186F6B6457E0 SWAP2 SWAP1 LOG3 POP POP JUMP JUMPDEST DUP1 CALLDATALOAD PUSH1 0x1 PUSH1 0x1 PUSH1 0xA0 SHL SUB DUP2 AND DUP2 EQ PUSH2 0x7CC JUMPI PUSH1 0x0 DUP1 REVERT JUMPDEST SWAP2 SWAP1 POP JUMP JUMPDEST PUSH1 0x0 DUP1 PUSH1 0x40 DUP4 DUP6 SUB SLT ISZERO PUSH2 0x7E4 JUMPI PUSH1 0x0 DUP1 REVERT JUMPDEST PUSH2 0x7ED DUP4 PUSH2 0x7B5 JUMP JUMPDEST SWAP2 POP PUSH2 0x7FB PUSH1 0x20 DUP5 ADD PUSH2 0x7B5 JUMP JUMPDEST SWAP1 POP SWAP3 POP SWAP3 SWAP1 POP JUMP JUMPDEST PUSH1 0x0 PUSH1 0x20 DUP3 DUP5 SUB SLT ISZERO PUSH2 0x816 JUMPI PUSH1 0x0 DUP1 REVERT JUMPDEST PUSH2 0x553 DUP3 PUSH2 0x7B5 JUMP JUMPDEST DUP1 CALLDATALOAD DUP1 ISZERO ISZERO DUP2 EQ PUSH2 0x7CC JUMPI PUSH1 0x0 DUP1 REVERT JUMPDEST PUSH1 0x0 DUP1 PUSH1 0x0 DUP1 PUSH1 0x80 DUP6 DUP8 SUB SLT ISZERO PUSH2 0x845 JUMPI PUSH1 0x0 DUP1 REVERT JUMPDEST PUSH2 0x84E DUP6 PUSH2 0x7B5 JUMP JUMPDEST SWAP4 POP PUSH2 0x85C PUSH1 0x20 DUP7 ADD PUSH2 0x7B5 JUMP JUMPDEST SWAP3 POP PUSH2 0x86A PUSH1 0x40 DUP7 ADD PUSH2 0x7B5 JUMP JUMPDEST SWAP2 POP PUSH2 0x878 PUSH1 0x60 DUP7 ADD PUSH2 0x81F JUMP JUMPDEST SWAP1 POP SWAP3 SWAP6 SWAP2 SWAP5 POP SWAP3 POP JUMP JUMPDEST PUSH1 0x0 DUP1 PUSH1 0x0 PUSH1 0x60 DUP5 DUP7 SUB SLT ISZERO PUSH2 0x898 JUMPI PUSH1 0x0 DUP1 REVERT JUMPDEST PUSH2 0x8A1 DUP5 PUSH2 0x7B5 JUMP JUMPDEST SWAP3 POP PUSH2 0x8AF PUSH1 0x20 DUP6 ADD PUSH2 0x7B5 JUMP JUMPDEST SWAP2 POP PUSH2 0x8BD PUSH1 0x40 DUP6 ADD PUSH2 0x81F JUMP JUMPDEST SWAP1 POP SWAP3 POP SWAP3 POP SWAP3 JUMP JUMPDEST PUSH4 0x4E487B71 PUSH1 0xE0 SHL PUSH1 0x0 MSTORE PUSH1 0x32 PUSH1 0x4 MSTORE PUSH1 0x24 PUSH1 0x0 REVERT INVALID LOG2 PUSH5 0x6970667358 0x22 SLT KECCAK256 0xC3 DUP3 0x28 0xDD DUP2 0xD1 0xE2 0xC5 SWAP15 SMOD MLOAD 0xD1 RETURN LT 0xDA EXP SAR 0x28 SWAP1 0xCB 0xBB 0xE5 SIGNEXTEND CALLER PUSH30 0xC66FB1E613403C64736F6C634300080F0033000000000000000000000000 ",
  "sha1": "1ce04505b76b09004a19b31b85a2576272c421c3",
  "source": "// SPDX-License-Identifier: UNLICENSED\npragma solidity ^0.8.12;\n\nimport \"@openzeppelin/contracts/access/Ownable.sol\";\n\n/*\n ________  _______   ________  ___  ________  _________  ________      ___    ___ \n|\\   __  \\|\\  ___ \\ |\\   ____\\|\\  \\|\\   ____\\|\\___   ___\\\\   __  \\    |\\  \\  /  /|\n\\ \\  \\|\\  \\ \\   __/|\\ \\  \\___|\\ \\  \\ \\  \\___|\\|___ \\  \\_\\ \\  \\|\\  \\   \\ \\  \\/  / /\n \\ \\   _  _\\ \\  \\_|/_\\ \\  \\  __\\ \\  \\ \\_____  \\   \\ \\  \\ \\ \\   _  _\\   \\ \\    / / \n  \\ \\  \\\\  \\\\ \\  \\_|\\ \\ \\  \\|\\  \\ \\  \\|____|\\  \\   \\ \\  \\ \\ \\  \\\\  \\|   \\/  /  /  \n   \\ \\__\\\\ _\\\\ \\_______\\ \\_______\\ \\__\\____\\_\\  \\   \\ \\__\\ \\ \\__\\\\ _\\ __/  / /    \n    \\|__|\\|__|\\|_______|\\|_______|\\|__|\\_________\\   \\|__|  \\|__|\\|__|\\___/ /     \n                                      \\|_________|                   \\|___|/      \n*/\n\ncontract VoteProxyRegistry is Ownable {\n\n    /// -----------------------------\n    ///         Storage\n    /// -----------------------------\n\n    struct ProxyDetails {\n        address proxyAddress;\n        address governanceToken;\n        bool onChain;\n    }\n\n    // unique user --> proxy details\n    mapping(address => ProxyDetails[]) registry;\n\n    // token address to governor contract\n    mapping(address => address) public tokenToGovernor;\n\n    address public proxyFactory;\n\n    /// -----------------------------\n    ///         Error\n    /// -----------------------------\n    \n    error OnlyFactory();\n\n    /// -----------------------------\n    ///         Modifiers\n    /// -----------------------------\n\n    modifier onlyFactory() {\n        if (msg.sender != proxyFactory){\n            revert OnlyFactory();\n        }\n        _;\n    }\n\n    /// -----------------------------\n    ///         External\n    /// -----------------------------\n\n    /**\n    * @dev Sets the factory address\n    * @param _factory: address - factory\n    */\n    function addFactory(address _factory) external onlyOwner {\n        proxyFactory = _factory;\n    }\n\n    /**\n    * @dev Adds to the governor token --> governor contract mapping.\n    * @param _governanceToken: address - Governance token of DAO\n    * @param _governor: bool - Governor contract\n    */\n    function addGovernor(address _governanceToken, address _governor) external onlyOwner {\n        tokenToGovernor[_governanceToken] = _governor;\n    }\n\n     /**\n    * @dev Checks if a user already has a proxy for that token.\n    * @param _user: address - Address of user\n    * @param _governanceToken: address - Governance token of DAO\n    * @param _isOnChain: bool - If the proxy relates to on vs off chain voting\n    */\n    function checkProxy(address _user, address _governanceToken, bool _isOnChain) external view returns (bool)  {\n        ProxyDetails[] memory proxiesForUser = registry[_user];\n        uint proxyListLength = proxiesForUser.length;\n        for(uint i; i < proxyListLength;){\n            if(proxiesForUser[i].governanceToken == _governanceToken && proxiesForUser[i].onChain == _isOnChain) {\n                return true; \n            }\n            unchecked{++i;}\n        }\n        return false;\n    }\n\n    /**\n    * @dev Checks that proxy is valid.\n    * @param _user: address - Address of user\n    * @param _proxyAddress: address - Address of proxy\n    */\n    function validProxy(address _user, address _proxyAddress) external view returns (bool) {\n        ProxyDetails[] memory proxiesForUser = registry[_user];\n        uint proxyListLength = proxiesForUser.length;\n        for(uint i; i < proxyListLength;){\n            if(proxiesForUser[i].proxyAddress == _proxyAddress) {\n                return true; \n            }\n            unchecked{++i;}\n        }\n        return false;\n    }\n\n\n    /**\n    * @dev Adds proxy to the registry with proxy details\n    * @param _user: address - Address of user\n    * @param _proxyAddress: address - Address of proxy\n    * @param _governanceToken: address - Address of governance token\n    * @param _onChain: Bool - whether voting mechanism is on or off chain\n    */\n    function registerProxy(address _user, address _proxyAddress, address _governanceToken, bool _onChain) external onlyFactory returns (bool){\n        ProxyDetails memory info = ProxyDetails({\n            proxyAddress: _proxyAddress,\n            governanceToken: _governanceToken,\n            onChain: _onChain\n        });\n        // update record in the registry\n        registry[_user].push(info);\n        return true;\n    }\n\n    \n    /// -----------------------------\n    ///        External View\n    /// -----------------------------\n\n\n    function getProxyAddress(address _user, address _governanceToken, bool _isOnChain) external view onlyFactory returns (address) {\n        ProxyDetails[] memory proxiesForUser = registry[_user];\n        uint proxyListLength = proxiesForUser.length;\n        for(uint i; i < proxyListLength;){\n            if(proxiesForUser[i].governanceToken == _governanceToken && proxiesForUser[i].onChain == _isOnChain) {\n                return (proxiesForUser[i].proxyAddress); \n            }\n            unchecked{++i;}\n        }\n        return address(0);\n        \n    }\n\n}\n",
  "sourcePath": "contracts/Proxies/VoteProxyRegistry.sol",
  "type": "contract"
}