{
  "abi": [
    {
      "inputs": [
        {
          "internalType": "address",
          "name": "_treasuryToken",
          "type": "address"
        },
        {
          "internalType": "address",
          "name": "_voteProxyRegistry",
          "type": "address"
        }
      ],
      "stateMutability": "nonpayable",
      "type": "constructor"
    },
    {
      "anonymous": false,
      "inputs": [
        {
          "indexed": true,
          "internalType": "address",
          "name": "proxyAddress",
          "type": "address"
        },
        {
          "indexed": false,
          "internalType": "address",
          "name": "governanceTokenAddress",
          "type": "address"
        }
      ],
      "name": "VoteProxyDeployed",
      "type": "event"
    },
    {
      "inputs": [
        {
          "internalType": "address",
          "name": "_governanceToken",
          "type": "address"
        },
        {
          "internalType": "address",
          "name": "_tokenPool",
          "type": "address"
        },
        {
          "internalType": "bool",
          "name": "_isGovernorAlpha",
          "type": "bool"
        }
      ],
      "name": "createERC20VotesProxy",
      "outputs": [
        {
          "internalType": "address",
          "name": "",
          "type": "address"
        }
      ],
      "stateMutability": "nonpayable",
      "type": "function"
    },
    {
      "inputs": [],
      "name": "treasuryToken",
      "outputs": [
        {
          "internalType": "address",
          "name": "",
          "type": "address"
        }
      ],
      "stateMutability": "view",
      "type": "function"
    },
    {
      "inputs": [],
      "name": "voteProxyRegistry",
      "outputs": [
        {
          "internalType": "address",
          "name": "",
          "type": "address"
        }
      ],
      "stateMutability": "view",
      "type": "function"
    }
  ],
  "bytecode": "608060405234801561001057600080fd5b5060405161157c38038061157c83398101604081905261002f9161007c565b600080546001600160a01b039384166001600160a01b031991821617909155600180549290931691161790556100af565b80516001600160a01b038116811461007757600080fd5b919050565b6000806040838503121561008f57600080fd5b61009883610060565b91506100a660208401610060565b90509250929050565b6114be806100be6000396000f3fe608060405234801561001057600080fd5b50600436106100415760003560e01c806328cae1ad14610046578063416940e714610075578063b2ce514b14610088575b600080fd5b600154610059906001600160a01b031681565b6040516001600160a01b03909116815260200160405180910390f35b610059610083366004610430565b61009b565b600054610059906001600160a01b031681565b6001805460405163f0594eb160e01b81523360048201526001600160a01b0386811660248301526044820184905260009392169063f0594eb1906064016020604051808303816000875af11580156100f7573d6000803e3d6000fd5b505050506040513d601f19601f8201168201806040525081019061011b919061047b565b156101875760405162461bcd60e51b815260206004820152603160248201527f5573657220616c7265616479206861732070726f7879206173736f636961746560448201527032103bb4ba34103a3434b9903a37b5b2b760791b60648201526084015b60405180910390fd5b60405163e6e8712d60e01b81526001600160a01b03868116600483015285169063e6e8712d90602401602060405180830381865afa1580156101cd573d6000803e3d6000fd5b505050506040513d601f19601f820116820180604052508101906101f1919061047b565b61023d5760405162461bcd60e51b815260206004820152601860248201527f546f6b656e206973206e6f742077686974656c69737465640000000000000000604482015260640161017e565b600154604051633acf904160e01b81526001600160a01b0387811660048301526000921690633acf904190602401602060405180830381865afa158015610288573d6000803e3d6000fd5b505050506040513d601f19601f820116820180604052508101906102ac919061049f565b905060008682873360008054906101000a90046001600160a01b0316896040516102d5906103fd565b6001600160a01b039687168152948616602086015292851660408501529084166060840152909216608082015290151560a082015260c001604051809103906000f080158015610329573d6000803e3d6000fd5b50600154604051630cbe27db60e21b81523360048201526001600160a01b0380841660248301528a8116604483015286151560648301529293509116906332f89f6c906084016020604051808303816000875af115801561038e573d6000803e3d6000fd5b505050506040513d601f19601f820116820180604052508101906103b2919061047b565b506040516001600160a01b0388811682528216907f7033e1a73b622d2ee6f025304d15a8f3f7eca1870aeeb5b0c5bc6714b8395add9060200160405180910390a29695505050505050565b610fcc806104bd83390190565b6001600160a01b038116811461041f57600080fd5b50565b801515811461041f57600080fd5b60008060006060848603121561044557600080fd5b83356104508161040a565b925060208401356104608161040a565b9150604084013561047081610422565b809150509250925092565b60006020828403121561048d57600080fd5b815161049881610422565b9392505050565b6000602082840312156104b157600080fd5b81516104988161040a56fe60806040523480156200001157600080fd5b5060405162000fcc38038062000fcc83398101604081905262000034916200021a565b6200003f33620000cc565b6200004a836200011c565b600180546001600160a01b039788166001600160a01b031991821617909155600380549688169682169690961790955560048054948716948616949094179093556005805460028054939097169290951691909117909455501515600160a01b0260ff60a01b1933166001600160a81b031990921691909117179055620002a3565b600080546001600160a01b038381166001600160a01b0319831681178455604051919092169283917f8be0079c531659141344cd1fd0a4f28419497f9722a3daafe3b4186f6b6457e09190a35050565b620001266200019f565b6001600160a01b038116620001915760405162461bcd60e51b815260206004820152602660248201527f4f776e61626c653a206e6577206f776e657220697320746865207a65726f206160448201526564647265737360d01b60648201526084015b60405180910390fd5b6200019c81620000cc565b50565b6000546001600160a01b03163314620001fb5760405162461bcd60e51b815260206004820181905260248201527f4f776e61626c653a2063616c6c6572206973206e6f7420746865206f776e6572604482015260640162000188565b565b80516001600160a01b03811681146200021557600080fd5b919050565b60008060008060008060c087890312156200023457600080fd5b6200023f87620001fd565b95506200024f60208801620001fd565b94506200025f60408801620001fd565b93506200026f60608801620001fd565b92506200027f60808801620001fd565b915060a087015180151581146200029557600080fd5b809150509295509295509295565b610d1980620002b36000396000f3fe608060405234801561001057600080fd5b50600436106100ea5760003560e01c80638da5cb5b1161008c578063c10f1a7511610066578063c10f1a75146101c1578063dc1c32cd146101d4578063f2fde38b146101f8578063f96dae0a1461020b57600080fd5b80638da5cb5b14610195578063b2ce514b146101a6578063b2f8009e146101b957600080fd5b806344c9af28116100c857806344c9af2814610147578063577b10a01461016757806367df14901461017a578063715018a61461018d57600080fd5b80630c340a24146100ef578063104e99291461011f5780632ec1a4c214610132575b600080fd5b600354610102906001600160a01b031681565b6040516001600160a01b0390911681526020015b60405180910390f35b600454610102906001600160a01b031681565b610145610140366004610ba2565b61021e565b005b61015a610155366004610bd2565b6102c5565b6040516101169190610c01565b610145610175366004610c29565b610339565b610145610188366004610c55565b61068b565b610145610891565b6000546001600160a01b0316610102565b600254610102906001600160a01b031681565b6101456108a5565b600554610102906001600160a01b031681565b6005546101e890600160a01b900460ff1681565b6040519015158152602001610116565b610145610206366004610ba2565b610a82565b600154610102906001600160a01b031681565b610226610af8565b6001546040516317066a5760e21b81526001600160a01b03838116600483015290911690635c19a95c90602401600060405180830381600087803b15801561026d57600080fd5b505af1158015610281573d6000803e3d6000fd5b50506040516001600160a01b03841681527f62150de87881e096697cc43aece19d304cb2e5a49f65bc6b74b1a31d9c1c2a419250602001905060405180910390a150565b600354604051631f27a4f360e11b8152600481018390526000916001600160a01b031690633e4f49e690602401602060405180830381865afa15801561030f573d6000803e3d6000fd5b505050506040513d601f19601f820116820180604052508101906103339190610c87565b92915050565b610341610af8565b600061034c836102c5565b600781111561035d5761035d610beb565b146103c25760405162461bcd60e51b815260206004820152602a60248201527f43616e206f6e6c792066756e642070726f78792069662070726f706f73616c2060448201526969732070656e64696e6760b01b60648201526084015b60405180910390fd5b600154600480546040516370a0823160e01b81526001600160a01b039182169281019290925260009216906370a0823190602401602060405180830381865afa158015610413573d6000803e3d6000fd5b505050506040513d601f19601f820116820180604052508101906104379190610ca8565b9050600081116104895760405162461bcd60e51b815260206004820152601960248201527f546f6b656e20506f6f6c20686173206e6f206d6f72652047540000000000000060448201526064016103b9565b600084116104d95760405162461bcd60e51b815260206004820152601b60248201527f506c656173652066756e642077697468206d6f7265205453525920000000000060448201526064016103b9565b6002546040516323b872dd60e01b8152336004820152306024820152604481018690526000916001600160a01b0316906323b872dd906064016020604051808303816000875af1158015610531573d6000803e3d6000fd5b505050506040513d601f19601f820116820180604052508101906105559190610cc1565b9050806105b35760405162461bcd60e51b815260206004820152602660248201527f54535259207374616b6520747261736e66657220776173206e6f742073756363604482015265195cdcd99d5b60d21b60648201526084016103b9565b6004805460015460405163037a083760e51b81529283018890526001600160a01b039081166024840152336044840152606483018690521690636f4106e090608401600060405180830381600087803b15801561060f57600080fd5b505af1158015610623573d6000803e3d6000fd5b50506001546040516317066a5760e21b81523060048201526001600160a01b039091169250635c19a95c9150602401600060405180830381600087803b15801561066c57600080fd5b505af1158015610680573d6000803e3d6000fd5b505050505050505050565b610693610af8565b600554600160a01b900460ff16156107d05760ff821615806106b857508160ff166001145b6107225760405162461bcd60e51b815260206004820152603560248201527f476f7665726e6f7220416c706861206f6e6c79206163636570747320626f6f6c604482015274207479706520766f74696e67202830206f7220312960581b60648201526084016103b9565b8160ff16600114610798576003546040516315373e3d60e01b815260048101839052600060248201526001600160a01b03909116906315373e3d906044015b600060405180830381600087803b15801561077b57600080fd5b505af115801561078f573d6000803e3d6000fd5b5050505061084a565b6003546040516315373e3d60e01b815260048101839052600160248201526001600160a01b03909116906315373e3d90604401610761565b600354604051630acf027160e31b81526004810183905260ff841660248201526001600160a01b03909116906356781388906044016020604051808303816000875af1158015610824573d6000803e3d6000fd5b505050506040513d601f19601f820116820180604052508101906108489190610ca8565b505b6108526108a5565b6040805182815260ff841660208201527f5d4760119c8e8650149aac097d38c70515dfce015031561ad115606533e479be910160405180910390a15050565b610899610af8565b6108a36000610b52565b565b6108ad610af8565b600154600480546040516370a0823160e01b815230928101929092526001600160a01b039283169263a9059cbb9291169083906370a0823190602401602060405180830381865afa158015610906573d6000803e3d6000fd5b505050506040513d601f19601f8201168201806040525081019061092a9190610ca8565b6040516001600160e01b031960e085901b1681526001600160a01b03909216600483015260248201526044016020604051808303816000875af1158015610975573d6000803e3d6000fd5b505050506040513d601f19601f820116820180604052508101906109999190610cc1565b506002546040516370a0823160e01b81523060048201526001600160a01b039091169063a9059cbb90339083906370a0823190602401602060405180830381865afa1580156109ec573d6000803e3d6000fd5b505050506040513d601f19601f82011682018060405250810190610a109190610ca8565b6040516001600160e01b031960e085901b1681526001600160a01b03909216600483015260248201526044016020604051808303816000875af1158015610a5b573d6000803e3d6000fd5b505050506040513d601f19601f82011682018060405250810190610a7f9190610cc1565b50565b610a8a610af8565b6001600160a01b038116610aef5760405162461bcd60e51b815260206004820152602660248201527f4f776e61626c653a206e6577206f776e657220697320746865207a65726f206160448201526564647265737360d01b60648201526084016103b9565b610a7f81610b52565b6000546001600160a01b031633146108a35760405162461bcd60e51b815260206004820181905260248201527f4f776e61626c653a2063616c6c6572206973206e6f7420746865206f776e657260448201526064016103b9565b600080546001600160a01b038381166001600160a01b0319831681178455604051919092169283917f8be0079c531659141344cd1fd0a4f28419497f9722a3daafe3b4186f6b6457e09190a35050565b600060208284031215610bb457600080fd5b81356001600160a01b0381168114610bcb57600080fd5b9392505050565b600060208284031215610be457600080fd5b5035919050565b634e487b7160e01b600052602160045260246000fd5b6020810160088310610c2357634e487b7160e01b600052602160045260246000fd5b91905290565b600080600060608486031215610c3e57600080fd5b505081359360208301359350604090920135919050565b60008060408385031215610c6857600080fd5b823560ff81168114610c7957600080fd5b946020939093013593505050565b600060208284031215610c9957600080fd5b815160088110610bcb57600080fd5b600060208284031215610cba57600080fd5b5051919050565b600060208284031215610cd357600080fd5b81518015158114610bcb57600080fdfea26469706673582212209e13dd05ff3069a57df210ca023c8af2d68b933ae5542732a56b0b6cf41acd0d64736f6c634300080f0033a26469706673582212200b34fe20900e91e917cae9d9cea2865f3a2434d76c3002dda92a346c9c75314664736f6c634300080f0033",
  "bytecodeSha1": "ccbd2e391b22a5495f833c7594b1151cabe2186f",
  "compiler": {
    "evm_version": "istanbul",
    "optimizer": {
      "enabled": true,
      "runs": 200
    },
    "version": "0.8.15+commit.e14f2714"
  },
  "contractName": "VoteProxyFactory",
  "language": "Solidity",
  "natspec": {
    "kind": "dev",
    "methods": {
      "constructor": {
        "details": "Constructor - (N.B. Will likely change a lot during development) likely will not need treasury token address. possibly add tokenpool address, as there will only be one pool"
      },
      "createERC20VotesProxy(address,address,bool)": {
        "details": "Creates a proxy for a user corresponding to one token (DAO). ",
        "params": {
          "_governanceToken": ": address - The address of governance token",
          "_isGovernorAlpha": ": bool - Is the governor voting mechanism compounds' Alphas",
          "_tokenPool": ": address - The address of the token pool (will most likely be known or mapping of token --> token pool)"
        }
      },
      "treasuryToken()": {
        "notice": "-----------------------------         Storage -----------------------------"
      }
    },
    "version": 1
  },
  "opcodes": "PUSH1 0x80 PUSH1 0x40 MSTORE CALLVALUE DUP1 ISZERO PUSH2 0x10 JUMPI PUSH1 0x0 DUP1 REVERT JUMPDEST POP PUSH1 0x4 CALLDATASIZE LT PUSH2 0x41 JUMPI PUSH1 0x0 CALLDATALOAD PUSH1 0xE0 SHR DUP1 PUSH4 0x28CAE1AD EQ PUSH2 0x46 JUMPI DUP1 PUSH4 0x416940E7 EQ PUSH2 0x75 JUMPI DUP1 PUSH4 0xB2CE514B EQ PUSH2 0x88 JUMPI JUMPDEST PUSH1 0x0 DUP1 REVERT JUMPDEST PUSH1 0x1 SLOAD PUSH2 0x59 SWAP1 PUSH1 0x1 PUSH1 0x1 PUSH1 0xA0 SHL SUB AND DUP2 JUMP JUMPDEST PUSH1 0x40 MLOAD PUSH1 0x1 PUSH1 0x1 PUSH1 0xA0 SHL SUB SWAP1 SWAP2 AND DUP2 MSTORE PUSH1 0x20 ADD PUSH1 0x40 MLOAD DUP1 SWAP2 SUB SWAP1 RETURN JUMPDEST PUSH2 0x59 PUSH2 0x83 CALLDATASIZE PUSH1 0x4 PUSH2 0x430 JUMP JUMPDEST PUSH2 0x9B JUMP JUMPDEST PUSH1 0x0 SLOAD PUSH2 0x59 SWAP1 PUSH1 0x1 PUSH1 0x1 PUSH1 0xA0 SHL SUB AND DUP2 JUMP JUMPDEST PUSH1 0x1 DUP1 SLOAD PUSH1 0x40 MLOAD PUSH4 0xF0594EB1 PUSH1 0xE0 SHL DUP2 MSTORE CALLER PUSH1 0x4 DUP3 ADD MSTORE PUSH1 0x1 PUSH1 0x1 PUSH1 0xA0 SHL SUB DUP7 DUP2 AND PUSH1 0x24 DUP4 ADD MSTORE PUSH1 0x44 DUP3 ADD DUP5 SWAP1 MSTORE PUSH1 0x0 SWAP4 SWAP3 AND SWAP1 PUSH4 0xF0594EB1 SWAP1 PUSH1 0x64 ADD PUSH1 0x20 PUSH1 0x40 MLOAD DUP1 DUP4 SUB DUP2 PUSH1 0x0 DUP8 GAS CALL ISZERO DUP1 ISZERO PUSH2 0xF7 JUMPI RETURNDATASIZE PUSH1 0x0 DUP1 RETURNDATACOPY RETURNDATASIZE PUSH1 0x0 REVERT JUMPDEST POP POP POP POP PUSH1 0x40 MLOAD RETURNDATASIZE PUSH1 0x1F NOT PUSH1 0x1F DUP3 ADD AND DUP3 ADD DUP1 PUSH1 0x40 MSTORE POP DUP2 ADD SWAP1 PUSH2 0x11B SWAP2 SWAP1 PUSH2 0x47B JUMP JUMPDEST ISZERO PUSH2 0x187 JUMPI PUSH1 0x40 MLOAD PUSH3 0x461BCD PUSH1 0xE5 SHL DUP2 MSTORE PUSH1 0x20 PUSH1 0x4 DUP3 ADD MSTORE PUSH1 0x31 PUSH1 0x24 DUP3 ADD MSTORE PUSH32 0x5573657220616C7265616479206861732070726F7879206173736F6369617465 PUSH1 0x44 DUP3 ADD MSTORE PUSH17 0x32103BB4BA34103A3434B9903A37B5B2B7 PUSH1 0x79 SHL PUSH1 0x64 DUP3 ADD MSTORE PUSH1 0x84 ADD JUMPDEST PUSH1 0x40 MLOAD DUP1 SWAP2 SUB SWAP1 REVERT JUMPDEST PUSH1 0x40 MLOAD PUSH4 0xE6E8712D PUSH1 0xE0 SHL DUP2 MSTORE PUSH1 0x1 PUSH1 0x1 PUSH1 0xA0 SHL SUB DUP7 DUP2 AND PUSH1 0x4 DUP4 ADD MSTORE DUP6 AND SWAP1 PUSH4 0xE6E8712D SWAP1 PUSH1 0x24 ADD PUSH1 0x20 PUSH1 0x40 MLOAD DUP1 DUP4 SUB DUP2 DUP7 GAS STATICCALL ISZERO DUP1 ISZERO PUSH2 0x1CD JUMPI RETURNDATASIZE PUSH1 0x0 DUP1 RETURNDATACOPY RETURNDATASIZE PUSH1 0x0 REVERT JUMPDEST POP POP POP POP PUSH1 0x40 MLOAD RETURNDATASIZE PUSH1 0x1F NOT PUSH1 0x1F DUP3 ADD AND DUP3 ADD DUP1 PUSH1 0x40 MSTORE POP DUP2 ADD SWAP1 PUSH2 0x1F1 SWAP2 SWAP1 PUSH2 0x47B JUMP JUMPDEST PUSH2 0x23D JUMPI PUSH1 0x40 MLOAD PUSH3 0x461BCD PUSH1 0xE5 SHL DUP2 MSTORE PUSH1 0x20 PUSH1 0x4 DUP3 ADD MSTORE PUSH1 0x18 PUSH1 0x24 DUP3 ADD MSTORE PUSH32 0x546F6B656E206973206E6F742077686974656C69737465640000000000000000 PUSH1 0x44 DUP3 ADD MSTORE PUSH1 0x64 ADD PUSH2 0x17E JUMP JUMPDEST PUSH1 0x1 SLOAD PUSH1 0x40 MLOAD PUSH4 0x3ACF9041 PUSH1 0xE0 SHL DUP2 MSTORE PUSH1 0x1 PUSH1 0x1 PUSH1 0xA0 SHL SUB DUP8 DUP2 AND PUSH1 0x4 DUP4 ADD MSTORE PUSH1 0x0 SWAP3 AND SWAP1 PUSH4 0x3ACF9041 SWAP1 PUSH1 0x24 ADD PUSH1 0x20 PUSH1 0x40 MLOAD DUP1 DUP4 SUB DUP2 DUP7 GAS STATICCALL ISZERO DUP1 ISZERO PUSH2 0x288 JUMPI RETURNDATASIZE PUSH1 0x0 DUP1 RETURNDATACOPY RETURNDATASIZE PUSH1 0x0 REVERT JUMPDEST POP POP POP POP PUSH1 0x40 MLOAD RETURNDATASIZE PUSH1 0x1F NOT PUSH1 0x1F DUP3 ADD AND DUP3 ADD DUP1 PUSH1 0x40 MSTORE POP DUP2 ADD SWAP1 PUSH2 0x2AC SWAP2 SWAP1 PUSH2 0x49F JUMP JUMPDEST SWAP1 POP PUSH1 0x0 DUP7 DUP3 DUP8 CALLER PUSH1 0x0 DUP1 SLOAD SWAP1 PUSH2 0x100 EXP SWAP1 DIV PUSH1 0x1 PUSH1 0x1 PUSH1 0xA0 SHL SUB AND DUP10 PUSH1 0x40 MLOAD PUSH2 0x2D5 SWAP1 PUSH2 0x3FD JUMP JUMPDEST PUSH1 0x1 PUSH1 0x1 PUSH1 0xA0 SHL SUB SWAP7 DUP8 AND DUP2 MSTORE SWAP5 DUP7 AND PUSH1 0x20 DUP7 ADD MSTORE SWAP3 DUP6 AND PUSH1 0x40 DUP6 ADD MSTORE SWAP1 DUP5 AND PUSH1 0x60 DUP5 ADD MSTORE SWAP1 SWAP3 AND PUSH1 0x80 DUP3 ADD MSTORE SWAP1 ISZERO ISZERO PUSH1 0xA0 DUP3 ADD MSTORE PUSH1 0xC0 ADD PUSH1 0x40 MLOAD DUP1 SWAP2 SUB SWAP1 PUSH1 0x0 CREATE DUP1 ISZERO DUP1 ISZERO PUSH2 0x329 JUMPI RETURNDATASIZE PUSH1 0x0 DUP1 RETURNDATACOPY RETURNDATASIZE PUSH1 0x0 REVERT JUMPDEST POP PUSH1 0x1 SLOAD PUSH1 0x40 MLOAD PUSH4 0xCBE27DB PUSH1 0xE2 SHL DUP2 MSTORE CALLER PUSH1 0x4 DUP3 ADD MSTORE PUSH1 0x1 PUSH1 0x1 PUSH1 0xA0 SHL SUB DUP1 DUP5 AND PUSH1 0x24 DUP4 ADD MSTORE DUP11 DUP2 AND PUSH1 0x44 DUP4 ADD MSTORE DUP7 ISZERO ISZERO PUSH1 0x64 DUP4 ADD MSTORE SWAP3 SWAP4 POP SWAP2 AND SWAP1 PUSH4 0x32F89F6C SWAP1 PUSH1 0x84 ADD PUSH1 0x20 PUSH1 0x40 MLOAD DUP1 DUP4 SUB DUP2 PUSH1 0x0 DUP8 GAS CALL ISZERO DUP1 ISZERO PUSH2 0x38E JUMPI RETURNDATASIZE PUSH1 0x0 DUP1 RETURNDATACOPY RETURNDATASIZE PUSH1 0x0 REVERT JUMPDEST POP POP POP POP PUSH1 0x40 MLOAD RETURNDATASIZE PUSH1 0x1F NOT PUSH1 0x1F DUP3 ADD AND DUP3 ADD DUP1 PUSH1 0x40 MSTORE POP DUP2 ADD SWAP1 PUSH2 0x3B2 SWAP2 SWAP1 PUSH2 0x47B JUMP JUMPDEST POP PUSH1 0x40 MLOAD PUSH1 0x1 PUSH1 0x1 PUSH1 0xA0 SHL SUB DUP9 DUP2 AND DUP3 MSTORE DUP3 AND SWAP1 PUSH32 0x7033E1A73B622D2EE6F025304D15A8F3F7ECA1870AEEB5B0C5BC6714B8395ADD SWAP1 PUSH1 0x20 ADD PUSH1 0x40 MLOAD DUP1 SWAP2 SUB SWAP1 LOG2 SWAP7 SWAP6 POP POP POP POP POP POP JUMP JUMPDEST PUSH2 0xFCC DUP1 PUSH2 0x4BD DUP4 CODECOPY ADD SWAP1 JUMP JUMPDEST PUSH1 0x1 PUSH1 0x1 PUSH1 0xA0 SHL SUB DUP2 AND DUP2 EQ PUSH2 0x41F JUMPI PUSH1 0x0 DUP1 REVERT JUMPDEST POP JUMP JUMPDEST DUP1 ISZERO ISZERO DUP2 EQ PUSH2 0x41F JUMPI PUSH1 0x0 DUP1 REVERT JUMPDEST PUSH1 0x0 DUP1 PUSH1 0x0 PUSH1 0x60 DUP5 DUP7 SUB SLT ISZERO PUSH2 0x445 JUMPI PUSH1 0x0 DUP1 REVERT JUMPDEST DUP4 CALLDATALOAD PUSH2 0x450 DUP2 PUSH2 0x40A JUMP JUMPDEST SWAP3 POP PUSH1 0x20 DUP5 ADD CALLDATALOAD PUSH2 0x460 DUP2 PUSH2 0x40A JUMP JUMPDEST SWAP2 POP PUSH1 0x40 DUP5 ADD CALLDATALOAD PUSH2 0x470 DUP2 PUSH2 0x422 JUMP JUMPDEST DUP1 SWAP2 POP POP SWAP3 POP SWAP3 POP SWAP3 JUMP JUMPDEST PUSH1 0x0 PUSH1 0x20 DUP3 DUP5 SUB SLT ISZERO PUSH2 0x48D JUMPI PUSH1 0x0 DUP1 REVERT JUMPDEST DUP2 MLOAD PUSH2 0x498 DUP2 PUSH2 0x422 JUMP JUMPDEST SWAP4 SWAP3 POP POP POP JUMP JUMPDEST PUSH1 0x0 PUSH1 0x20 DUP3 DUP5 SUB SLT ISZERO PUSH2 0x4B1 JUMPI PUSH1 0x0 DUP1 REVERT JUMPDEST DUP2 MLOAD PUSH2 0x498 DUP2 PUSH2 0x40A JUMP INVALID PUSH1 0x80 PUSH1 0x40 MSTORE CALLVALUE DUP1 ISZERO PUSH3 0x11 JUMPI PUSH1 0x0 DUP1 REVERT JUMPDEST POP PUSH1 0x40 MLOAD PUSH3 0xFCC CODESIZE SUB DUP1 PUSH3 0xFCC DUP4 CODECOPY DUP2 ADD PUSH1 0x40 DUP2 SWAP1 MSTORE PUSH3 0x34 SWAP2 PUSH3 0x21A JUMP JUMPDEST PUSH3 0x3F CALLER PUSH3 0xCC JUMP JUMPDEST PUSH3 0x4A DUP4 PUSH3 0x11C JUMP JUMPDEST PUSH1 0x1 DUP1 SLOAD PUSH1 0x1 PUSH1 0x1 PUSH1 0xA0 SHL SUB SWAP8 DUP9 AND PUSH1 0x1 PUSH1 0x1 PUSH1 0xA0 SHL SUB NOT SWAP2 DUP3 AND OR SWAP1 SWAP2 SSTORE PUSH1 0x3 DUP1 SLOAD SWAP7 DUP9 AND SWAP7 DUP3 AND SWAP7 SWAP1 SWAP7 OR SWAP1 SWAP6 SSTORE PUSH1 0x4 DUP1 SLOAD SWAP5 DUP8 AND SWAP5 DUP7 AND SWAP5 SWAP1 SWAP5 OR SWAP1 SWAP4 SSTORE PUSH1 0x5 DUP1 SLOAD PUSH1 0x2 DUP1 SLOAD SWAP4 SWAP1 SWAP8 AND SWAP3 SWAP1 SWAP6 AND SWAP2 SWAP1 SWAP2 OR SWAP1 SWAP5 SSTORE POP ISZERO ISZERO PUSH1 0x1 PUSH1 0xA0 SHL MUL PUSH1 0xFF PUSH1 0xA0 SHL NOT CALLER AND PUSH1 0x1 PUSH1 0x1 PUSH1 0xA8 SHL SUB NOT SWAP1 SWAP3 AND SWAP2 SWAP1 SWAP2 OR OR SWAP1 SSTORE PUSH3 0x2A3 JUMP JUMPDEST PUSH1 0x0 DUP1 SLOAD PUSH1 0x1 PUSH1 0x1 PUSH1 0xA0 SHL SUB DUP4 DUP2 AND PUSH1 0x1 PUSH1 0x1 PUSH1 0xA0 SHL SUB NOT DUP4 AND DUP2 OR DUP5 SSTORE PUSH1 0x40 MLOAD SWAP2 SWAP1 SWAP3 AND SWAP3 DUP4 SWAP2 PUSH32 0x8BE0079C531659141344CD1FD0A4F28419497F9722A3DAAFE3B4186F6B6457E0 SWAP2 SWAP1 LOG3 POP POP JUMP JUMPDEST PUSH3 0x126 PUSH3 0x19F JUMP JUMPDEST PUSH1 0x1 PUSH1 0x1 PUSH1 0xA0 SHL SUB DUP2 AND PUSH3 0x191 JUMPI PUSH1 0x40 MLOAD PUSH3 0x461BCD PUSH1 0xE5 SHL DUP2 MSTORE PUSH1 0x20 PUSH1 0x4 DUP3 ADD MSTORE PUSH1 0x26 PUSH1 0x24 DUP3 ADD MSTORE PUSH32 0x4F776E61626C653A206E6577206F776E657220697320746865207A65726F2061 PUSH1 0x44 DUP3 ADD MSTORE PUSH6 0x646472657373 PUSH1 0xD0 SHL PUSH1 0x64 DUP3 ADD MSTORE PUSH1 0x84 ADD JUMPDEST PUSH1 0x40 MLOAD DUP1 SWAP2 SUB SWAP1 REVERT JUMPDEST PUSH3 0x19C DUP2 PUSH3 0xCC JUMP JUMPDEST POP JUMP JUMPDEST PUSH1 0x0 SLOAD PUSH1 0x1 PUSH1 0x1 PUSH1 0xA0 SHL SUB AND CALLER EQ PUSH3 0x1FB JUMPI PUSH1 0x40 MLOAD PUSH3 0x461BCD PUSH1 0xE5 SHL DUP2 MSTORE PUSH1 0x20 PUSH1 0x4 DUP3 ADD DUP2 SWAP1 MSTORE PUSH1 0x24 DUP3 ADD MSTORE PUSH32 0x4F776E61626C653A2063616C6C6572206973206E6F7420746865206F776E6572 PUSH1 0x44 DUP3 ADD MSTORE PUSH1 0x64 ADD PUSH3 0x188 JUMP JUMPDEST JUMP JUMPDEST DUP1 MLOAD PUSH1 0x1 PUSH1 0x1 PUSH1 0xA0 SHL SUB DUP2 AND DUP2 EQ PUSH3 0x215 JUMPI PUSH1 0x0 DUP1 REVERT JUMPDEST SWAP2 SWAP1 POP JUMP JUMPDEST PUSH1 0x0 DUP1 PUSH1 0x0 DUP1 PUSH1 0x0 DUP1 PUSH1 0xC0 DUP8 DUP10 SUB SLT ISZERO PUSH3 0x234 JUMPI PUSH1 0x0 DUP1 REVERT JUMPDEST PUSH3 0x23F DUP8 PUSH3 0x1FD JUMP JUMPDEST SWAP6 POP PUSH3 0x24F PUSH1 0x20 DUP9 ADD PUSH3 0x1FD JUMP JUMPDEST SWAP5 POP PUSH3 0x25F PUSH1 0x40 DUP9 ADD PUSH3 0x1FD JUMP JUMPDEST SWAP4 POP PUSH3 0x26F PUSH1 0x60 DUP9 ADD PUSH3 0x1FD JUMP JUMPDEST SWAP3 POP PUSH3 0x27F PUSH1 0x80 DUP9 ADD PUSH3 0x1FD JUMP JUMPDEST SWAP2 POP PUSH1 0xA0 DUP8 ADD MLOAD DUP1 ISZERO ISZERO DUP2 EQ PUSH3 0x295 JUMPI PUSH1 0x0 DUP1 REVERT JUMPDEST DUP1 SWAP2 POP POP SWAP3 SWAP6 POP SWAP3 SWAP6 POP SWAP3 SWAP6 JUMP JUMPDEST PUSH2 0xD19 DUP1 PUSH3 0x2B3 PUSH1 0x0 CODECOPY PUSH1 0x0 RETURN INVALID PUSH1 0x80 PUSH1 0x40 MSTORE CALLVALUE DUP1 ISZERO PUSH2 0x10 JUMPI PUSH1 0x0 DUP1 REVERT JUMPDEST POP PUSH1 0x4 CALLDATASIZE LT PUSH2 0xEA JUMPI PUSH1 0x0 CALLDATALOAD PUSH1 0xE0 SHR DUP1 PUSH4 0x8DA5CB5B GT PUSH2 0x8C JUMPI DUP1 PUSH4 0xC10F1A75 GT PUSH2 0x66 JUMPI DUP1 PUSH4 0xC10F1A75 EQ PUSH2 0x1C1 JUMPI DUP1 PUSH4 0xDC1C32CD EQ PUSH2 0x1D4 JUMPI DUP1 PUSH4 0xF2FDE38B EQ PUSH2 0x1F8 JUMPI DUP1 PUSH4 0xF96DAE0A EQ PUSH2 0x20B JUMPI PUSH1 0x0 DUP1 REVERT JUMPDEST DUP1 PUSH4 0x8DA5CB5B EQ PUSH2 0x195 JUMPI DUP1 PUSH4 0xB2CE514B EQ PUSH2 0x1A6 JUMPI DUP1 PUSH4 0xB2F8009E EQ PUSH2 0x1B9 JUMPI PUSH1 0x0 DUP1 REVERT JUMPDEST DUP1 PUSH4 0x44C9AF28 GT PUSH2 0xC8 JUMPI DUP1 PUSH4 0x44C9AF28 EQ PUSH2 0x147 JUMPI DUP1 PUSH4 0x577B10A0 EQ PUSH2 0x167 JUMPI DUP1 PUSH4 0x67DF1490 EQ PUSH2 0x17A JUMPI DUP1 PUSH4 0x715018A6 EQ PUSH2 0x18D JUMPI PUSH1 0x0 DUP1 REVERT JUMPDEST DUP1 PUSH4 0xC340A24 EQ PUSH2 0xEF JUMPI DUP1 PUSH4 0x104E9929 EQ PUSH2 0x11F JUMPI DUP1 PUSH4 0x2EC1A4C2 EQ PUSH2 0x132 JUMPI JUMPDEST PUSH1 0x0 DUP1 REVERT JUMPDEST PUSH1 0x3 SLOAD PUSH2 0x102 SWAP1 PUSH1 0x1 PUSH1 0x1 PUSH1 0xA0 SHL SUB AND DUP2 JUMP JUMPDEST PUSH1 0x40 MLOAD PUSH1 0x1 PUSH1 0x1 PUSH1 0xA0 SHL SUB SWAP1 SWAP2 AND DUP2 MSTORE PUSH1 0x20 ADD JUMPDEST PUSH1 0x40 MLOAD DUP1 SWAP2 SUB SWAP1 RETURN JUMPDEST PUSH1 0x4 SLOAD PUSH2 0x102 SWAP1 PUSH1 0x1 PUSH1 0x1 PUSH1 0xA0 SHL SUB AND DUP2 JUMP JUMPDEST PUSH2 0x145 PUSH2 0x140 CALLDATASIZE PUSH1 0x4 PUSH2 0xBA2 JUMP JUMPDEST PUSH2 0x21E JUMP JUMPDEST STOP JUMPDEST PUSH2 0x15A PUSH2 0x155 CALLDATASIZE PUSH1 0x4 PUSH2 0xBD2 JUMP JUMPDEST PUSH2 0x2C5 JUMP JUMPDEST PUSH1 0x40 MLOAD PUSH2 0x116 SWAP2 SWAP1 PUSH2 0xC01 JUMP JUMPDEST PUSH2 0x145 PUSH2 0x175 CALLDATASIZE PUSH1 0x4 PUSH2 0xC29 JUMP JUMPDEST PUSH2 0x339 JUMP JUMPDEST PUSH2 0x145 PUSH2 0x188 CALLDATASIZE PUSH1 0x4 PUSH2 0xC55 JUMP JUMPDEST PUSH2 0x68B JUMP JUMPDEST PUSH2 0x145 PUSH2 0x891 JUMP JUMPDEST PUSH1 0x0 SLOAD PUSH1 0x1 PUSH1 0x1 PUSH1 0xA0 SHL SUB AND PUSH2 0x102 JUMP JUMPDEST PUSH1 0x2 SLOAD PUSH2 0x102 SWAP1 PUSH1 0x1 PUSH1 0x1 PUSH1 0xA0 SHL SUB AND DUP2 JUMP JUMPDEST PUSH2 0x145 PUSH2 0x8A5 JUMP JUMPDEST PUSH1 0x5 SLOAD PUSH2 0x102 SWAP1 PUSH1 0x1 PUSH1 0x1 PUSH1 0xA0 SHL SUB AND DUP2 JUMP JUMPDEST PUSH1 0x5 SLOAD PUSH2 0x1E8 SWAP1 PUSH1 0x1 PUSH1 0xA0 SHL SWAP1 DIV PUSH1 0xFF AND DUP2 JUMP JUMPDEST PUSH1 0x40 MLOAD SWAP1 ISZERO ISZERO DUP2 MSTORE PUSH1 0x20 ADD PUSH2 0x116 JUMP JUMPDEST PUSH2 0x145 PUSH2 0x206 CALLDATASIZE PUSH1 0x4 PUSH2 0xBA2 JUMP JUMPDEST PUSH2 0xA82 JUMP JUMPDEST PUSH1 0x1 SLOAD PUSH2 0x102 SWAP1 PUSH1 0x1 PUSH1 0x1 PUSH1 0xA0 SHL SUB AND DUP2 JUMP JUMPDEST PUSH2 0x226 PUSH2 0xAF8 JUMP JUMPDEST PUSH1 0x1 SLOAD PUSH1 0x40 MLOAD PUSH4 0x17066A57 PUSH1 0xE2 SHL DUP2 MSTORE PUSH1 0x1 PUSH1 0x1 PUSH1 0xA0 SHL SUB DUP4 DUP2 AND PUSH1 0x4 DUP4 ADD MSTORE SWAP1 SWAP2 AND SWAP1 PUSH4 0x5C19A95C SWAP1 PUSH1 0x24 ADD PUSH1 0x0 PUSH1 0x40 MLOAD DUP1 DUP4 SUB DUP2 PUSH1 0x0 DUP8 DUP1 EXTCODESIZE ISZERO DUP1 ISZERO PUSH2 0x26D JUMPI PUSH1 0x0 DUP1 REVERT JUMPDEST POP GAS CALL ISZERO DUP1 ISZERO PUSH2 0x281 JUMPI RETURNDATASIZE PUSH1 0x0 DUP1 RETURNDATACOPY RETURNDATASIZE PUSH1 0x0 REVERT JUMPDEST POP POP PUSH1 0x40 MLOAD PUSH1 0x1 PUSH1 0x1 PUSH1 0xA0 SHL SUB DUP5 AND DUP2 MSTORE PUSH32 0x62150DE87881E096697CC43AECE19D304CB2E5A49F65BC6B74B1A31D9C1C2A41 SWAP3 POP PUSH1 0x20 ADD SWAP1 POP PUSH1 0x40 MLOAD DUP1 SWAP2 SUB SWAP1 LOG1 POP JUMP JUMPDEST PUSH1 0x3 SLOAD PUSH1 0x40 MLOAD PUSH4 0x1F27A4F3 PUSH1 0xE1 SHL DUP2 MSTORE PUSH1 0x4 DUP2 ADD DUP4 SWAP1 MSTORE PUSH1 0x0 SWAP2 PUSH1 0x1 PUSH1 0x1 PUSH1 0xA0 SHL SUB AND SWAP1 PUSH4 0x3E4F49E6 SWAP1 PUSH1 0x24 ADD PUSH1 0x20 PUSH1 0x40 MLOAD DUP1 DUP4 SUB DUP2 DUP7 GAS STATICCALL ISZERO DUP1 ISZERO PUSH2 0x30F JUMPI RETURNDATASIZE PUSH1 0x0 DUP1 RETURNDATACOPY RETURNDATASIZE PUSH1 0x0 REVERT JUMPDEST POP POP POP POP PUSH1 0x40 MLOAD RETURNDATASIZE PUSH1 0x1F NOT PUSH1 0x1F DUP3 ADD AND DUP3 ADD DUP1 PUSH1 0x40 MSTORE POP DUP2 ADD SWAP1 PUSH2 0x333 SWAP2 SWAP1 PUSH2 0xC87 JUMP JUMPDEST SWAP3 SWAP2 POP POP JUMP JUMPDEST PUSH2 0x341 PUSH2 0xAF8 JUMP JUMPDEST PUSH1 0x0 PUSH2 0x34C DUP4 PUSH2 0x2C5 JUMP JUMPDEST PUSH1 0x7 DUP2 GT ISZERO PUSH2 0x35D JUMPI PUSH2 0x35D PUSH2 0xBEB JUMP JUMPDEST EQ PUSH2 0x3C2 JUMPI PUSH1 0x40 MLOAD PUSH3 0x461BCD PUSH1 0xE5 SHL DUP2 MSTORE PUSH1 0x20 PUSH1 0x4 DUP3 ADD MSTORE PUSH1 0x2A PUSH1 0x24 DUP3 ADD MSTORE PUSH32 0x43616E206F6E6C792066756E642070726F78792069662070726F706F73616C20 PUSH1 0x44 DUP3 ADD MSTORE PUSH10 0x69732070656E64696E67 PUSH1 0xB0 SHL PUSH1 0x64 DUP3 ADD MSTORE PUSH1 0x84 ADD JUMPDEST PUSH1 0x40 MLOAD DUP1 SWAP2 SUB SWAP1 REVERT JUMPDEST PUSH1 0x1 SLOAD PUSH1 0x4 DUP1 SLOAD PUSH1 0x40 MLOAD PUSH4 0x70A08231 PUSH1 0xE0 SHL DUP2 MSTORE PUSH1 0x1 PUSH1 0x1 PUSH1 0xA0 SHL SUB SWAP2 DUP3 AND SWAP3 DUP2 ADD SWAP3 SWAP1 SWAP3 MSTORE PUSH1 0x0 SWAP3 AND SWAP1 PUSH4 0x70A08231 SWAP1 PUSH1 0x24 ADD PUSH1 0x20 PUSH1 0x40 MLOAD DUP1 DUP4 SUB DUP2 DUP7 GAS STATICCALL ISZERO DUP1 ISZERO PUSH2 0x413 JUMPI RETURNDATASIZE PUSH1 0x0 DUP1 RETURNDATACOPY RETURNDATASIZE PUSH1 0x0 REVERT JUMPDEST POP POP POP POP PUSH1 0x40 MLOAD RETURNDATASIZE PUSH1 0x1F NOT PUSH1 0x1F DUP3 ADD AND DUP3 ADD DUP1 PUSH1 0x40 MSTORE POP DUP2 ADD SWAP1 PUSH2 0x437 SWAP2 SWAP1 PUSH2 0xCA8 JUMP JUMPDEST SWAP1 POP PUSH1 0x0 DUP2 GT PUSH2 0x489 JUMPI PUSH1 0x40 MLOAD PUSH3 0x461BCD PUSH1 0xE5 SHL DUP2 MSTORE PUSH1 0x20 PUSH1 0x4 DUP3 ADD MSTORE PUSH1 0x19 PUSH1 0x24 DUP3 ADD MSTORE PUSH32 0x546F6B656E20506F6F6C20686173206E6F206D6F726520475400000000000000 PUSH1 0x44 DUP3 ADD MSTORE PUSH1 0x64 ADD PUSH2 0x3B9 JUMP JUMPDEST PUSH1 0x0 DUP5 GT PUSH2 0x4D9 JUMPI PUSH1 0x40 MLOAD PUSH3 0x461BCD PUSH1 0xE5 SHL DUP2 MSTORE PUSH1 0x20 PUSH1 0x4 DUP3 ADD MSTORE PUSH1 0x1B PUSH1 0x24 DUP3 ADD MSTORE PUSH32 0x506C656173652066756E642077697468206D6F72652054535259200000000000 PUSH1 0x44 DUP3 ADD MSTORE PUSH1 0x64 ADD PUSH2 0x3B9 JUMP JUMPDEST PUSH1 0x2 SLOAD PUSH1 0x40 MLOAD PUSH4 0x23B872DD PUSH1 0xE0 SHL DUP2 MSTORE CALLER PUSH1 0x4 DUP3 ADD MSTORE ADDRESS PUSH1 0x24 DUP3 ADD MSTORE PUSH1 0x44 DUP2 ADD DUP7 SWAP1 MSTORE PUSH1 0x0 SWAP2 PUSH1 0x1 PUSH1 0x1 PUSH1 0xA0 SHL SUB AND SWAP1 PUSH4 0x23B872DD SWAP1 PUSH1 0x64 ADD PUSH1 0x20 PUSH1 0x40 MLOAD DUP1 DUP4 SUB DUP2 PUSH1 0x0 DUP8 GAS CALL ISZERO DUP1 ISZERO PUSH2 0x531 JUMPI RETURNDATASIZE PUSH1 0x0 DUP1 RETURNDATACOPY RETURNDATASIZE PUSH1 0x0 REVERT JUMPDEST POP POP POP POP PUSH1 0x40 MLOAD RETURNDATASIZE PUSH1 0x1F NOT PUSH1 0x1F DUP3 ADD AND DUP3 ADD DUP1 PUSH1 0x40 MSTORE POP DUP2 ADD SWAP1 PUSH2 0x555 SWAP2 SWAP1 PUSH2 0xCC1 JUMP JUMPDEST SWAP1 POP DUP1 PUSH2 0x5B3 JUMPI PUSH1 0x40 MLOAD PUSH3 0x461BCD PUSH1 0xE5 SHL DUP2 MSTORE PUSH1 0x20 PUSH1 0x4 DUP3 ADD MSTORE PUSH1 0x26 PUSH1 0x24 DUP3 ADD MSTORE PUSH32 0x54535259207374616B6520747261736E66657220776173206E6F742073756363 PUSH1 0x44 DUP3 ADD MSTORE PUSH6 0x195CDCD99D5B PUSH1 0xD2 SHL PUSH1 0x64 DUP3 ADD MSTORE PUSH1 0x84 ADD PUSH2 0x3B9 JUMP JUMPDEST PUSH1 0x4 DUP1 SLOAD PUSH1 0x1 SLOAD PUSH1 0x40 MLOAD PUSH4 0x37A0837 PUSH1 0xE5 SHL DUP2 MSTORE SWAP3 DUP4 ADD DUP9 SWAP1 MSTORE PUSH1 0x1 PUSH1 0x1 PUSH1 0xA0 SHL SUB SWAP1 DUP2 AND PUSH1 0x24 DUP5 ADD MSTORE CALLER PUSH1 0x44 DUP5 ADD MSTORE PUSH1 0x64 DUP4 ADD DUP7 SWAP1 MSTORE AND SWAP1 PUSH4 0x6F4106E0 SWAP1 PUSH1 0x84 ADD PUSH1 0x0 PUSH1 0x40 MLOAD DUP1 DUP4 SUB DUP2 PUSH1 0x0 DUP8 DUP1 EXTCODESIZE ISZERO DUP1 ISZERO PUSH2 0x60F JUMPI PUSH1 0x0 DUP1 REVERT JUMPDEST POP GAS CALL ISZERO DUP1 ISZERO PUSH2 0x623 JUMPI RETURNDATASIZE PUSH1 0x0 DUP1 RETURNDATACOPY RETURNDATASIZE PUSH1 0x0 REVERT JUMPDEST POP POP PUSH1 0x1 SLOAD PUSH1 0x40 MLOAD PUSH4 0x17066A57 PUSH1 0xE2 SHL DUP2 MSTORE ADDRESS PUSH1 0x4 DUP3 ADD MSTORE PUSH1 0x1 PUSH1 0x1 PUSH1 0xA0 SHL SUB SWAP1 SWAP2 AND SWAP3 POP PUSH4 0x5C19A95C SWAP2 POP PUSH1 0x24 ADD PUSH1 0x0 PUSH1 0x40 MLOAD DUP1 DUP4 SUB DUP2 PUSH1 0x0 DUP8 DUP1 EXTCODESIZE ISZERO DUP1 ISZERO PUSH2 0x66C JUMPI PUSH1 0x0 DUP1 REVERT JUMPDEST POP GAS CALL ISZERO DUP1 ISZERO PUSH2 0x680 JUMPI RETURNDATASIZE PUSH1 0x0 DUP1 RETURNDATACOPY RETURNDATASIZE PUSH1 0x0 REVERT JUMPDEST POP POP POP POP POP POP POP POP POP JUMP JUMPDEST PUSH2 0x693 PUSH2 0xAF8 JUMP JUMPDEST PUSH1 0x5 SLOAD PUSH1 0x1 PUSH1 0xA0 SHL SWAP1 DIV PUSH1 0xFF AND ISZERO PUSH2 0x7D0 JUMPI PUSH1 0xFF DUP3 AND ISZERO DUP1 PUSH2 0x6B8 JUMPI POP DUP2 PUSH1 0xFF AND PUSH1 0x1 EQ JUMPDEST PUSH2 0x722 JUMPI PUSH1 0x40 MLOAD PUSH3 0x461BCD PUSH1 0xE5 SHL DUP2 MSTORE PUSH1 0x20 PUSH1 0x4 DUP3 ADD MSTORE PUSH1 0x35 PUSH1 0x24 DUP3 ADD MSTORE PUSH32 0x476F7665726E6F7220416C706861206F6E6C79206163636570747320626F6F6C PUSH1 0x44 DUP3 ADD MSTORE PUSH21 0x207479706520766F74696E67202830206F72203129 PUSH1 0x58 SHL PUSH1 0x64 DUP3 ADD MSTORE PUSH1 0x84 ADD PUSH2 0x3B9 JUMP JUMPDEST DUP2 PUSH1 0xFF AND PUSH1 0x1 EQ PUSH2 0x798 JUMPI PUSH1 0x3 SLOAD PUSH1 0x40 MLOAD PUSH4 0x15373E3D PUSH1 0xE0 SHL DUP2 MSTORE PUSH1 0x4 DUP2 ADD DUP4 SWAP1 MSTORE PUSH1 0x0 PUSH1 0x24 DUP3 ADD MSTORE PUSH1 0x1 PUSH1 0x1 PUSH1 0xA0 SHL SUB SWAP1 SWAP2 AND SWAP1 PUSH4 0x15373E3D SWAP1 PUSH1 0x44 ADD JUMPDEST PUSH1 0x0 PUSH1 0x40 MLOAD DUP1 DUP4 SUB DUP2 PUSH1 0x0 DUP8 DUP1 EXTCODESIZE ISZERO DUP1 ISZERO PUSH2 0x77B JUMPI PUSH1 0x0 DUP1 REVERT JUMPDEST POP GAS CALL ISZERO DUP1 ISZERO PUSH2 0x78F JUMPI RETURNDATASIZE PUSH1 0x0 DUP1 RETURNDATACOPY RETURNDATASIZE PUSH1 0x0 REVERT JUMPDEST POP POP POP POP PUSH2 0x84A JUMP JUMPDEST PUSH1 0x3 SLOAD PUSH1 0x40 MLOAD PUSH4 0x15373E3D PUSH1 0xE0 SHL DUP2 MSTORE PUSH1 0x4 DUP2 ADD DUP4 SWAP1 MSTORE PUSH1 0x1 PUSH1 0x24 DUP3 ADD MSTORE PUSH1 0x1 PUSH1 0x1 PUSH1 0xA0 SHL SUB SWAP1 SWAP2 AND SWAP1 PUSH4 0x15373E3D SWAP1 PUSH1 0x44 ADD PUSH2 0x761 JUMP JUMPDEST PUSH1 0x3 SLOAD PUSH1 0x40 MLOAD PUSH4 0xACF0271 PUSH1 0xE3 SHL DUP2 MSTORE PUSH1 0x4 DUP2 ADD DUP4 SWAP1 MSTORE PUSH1 0xFF DUP5 AND PUSH1 0x24 DUP3 ADD MSTORE PUSH1 0x1 PUSH1 0x1 PUSH1 0xA0 SHL SUB SWAP1 SWAP2 AND SWAP1 PUSH4 0x56781388 SWAP1 PUSH1 0x44 ADD PUSH1 0x20 PUSH1 0x40 MLOAD DUP1 DUP4 SUB DUP2 PUSH1 0x0 DUP8 GAS CALL ISZERO DUP1 ISZERO PUSH2 0x824 JUMPI RETURNDATASIZE PUSH1 0x0 DUP1 RETURNDATACOPY RETURNDATASIZE PUSH1 0x0 REVERT JUMPDEST POP POP POP POP PUSH1 0x40 MLOAD RETURNDATASIZE PUSH1 0x1F NOT PUSH1 0x1F DUP3 ADD AND DUP3 ADD DUP1 PUSH1 0x40 MSTORE POP DUP2 ADD SWAP1 PUSH2 0x848 SWAP2 SWAP1 PUSH2 0xCA8 JUMP JUMPDEST POP JUMPDEST PUSH2 0x852 PUSH2 0x8A5 JUMP JUMPDEST PUSH1 0x40 DUP1 MLOAD DUP3 DUP2 MSTORE PUSH1 0xFF DUP5 AND PUSH1 0x20 DUP3 ADD MSTORE PUSH32 0x5D4760119C8E8650149AAC097D38C70515DFCE015031561AD115606533E479BE SWAP2 ADD PUSH1 0x40 MLOAD DUP1 SWAP2 SUB SWAP1 LOG1 POP POP JUMP JUMPDEST PUSH2 0x899 PUSH2 0xAF8 JUMP JUMPDEST PUSH2 0x8A3 PUSH1 0x0 PUSH2 0xB52 JUMP JUMPDEST JUMP JUMPDEST PUSH2 0x8AD PUSH2 0xAF8 JUMP JUMPDEST PUSH1 0x1 SLOAD PUSH1 0x4 DUP1 SLOAD PUSH1 0x40 MLOAD PUSH4 0x70A08231 PUSH1 0xE0 SHL DUP2 MSTORE ADDRESS SWAP3 DUP2 ADD SWAP3 SWAP1 SWAP3 MSTORE PUSH1 0x1 PUSH1 0x1 PUSH1 0xA0 SHL SUB SWAP3 DUP4 AND SWAP3 PUSH4 0xA9059CBB SWAP3 SWAP2 AND SWAP1 DUP4 SWAP1 PUSH4 0x70A08231 SWAP1 PUSH1 0x24 ADD PUSH1 0x20 PUSH1 0x40 MLOAD DUP1 DUP4 SUB DUP2 DUP7 GAS STATICCALL ISZERO DUP1 ISZERO PUSH2 0x906 JUMPI RETURNDATASIZE PUSH1 0x0 DUP1 RETURNDATACOPY RETURNDATASIZE PUSH1 0x0 REVERT JUMPDEST POP POP POP POP PUSH1 0x40 MLOAD RETURNDATASIZE PUSH1 0x1F NOT PUSH1 0x1F DUP3 ADD AND DUP3 ADD DUP1 PUSH1 0x40 MSTORE POP DUP2 ADD SWAP1 PUSH2 0x92A SWAP2 SWAP1 PUSH2 0xCA8 JUMP JUMPDEST PUSH1 0x40 MLOAD PUSH1 0x1 PUSH1 0x1 PUSH1 0xE0 SHL SUB NOT PUSH1 0xE0 DUP6 SWAP1 SHL AND DUP2 MSTORE PUSH1 0x1 PUSH1 0x1 PUSH1 0xA0 SHL SUB SWAP1 SWAP3 AND PUSH1 0x4 DUP4 ADD MSTORE PUSH1 0x24 DUP3 ADD MSTORE PUSH1 0x44 ADD PUSH1 0x20 PUSH1 0x40 MLOAD DUP1 DUP4 SUB DUP2 PUSH1 0x0 DUP8 GAS CALL ISZERO DUP1 ISZERO PUSH2 0x975 JUMPI RETURNDATASIZE PUSH1 0x0 DUP1 RETURNDATACOPY RETURNDATASIZE PUSH1 0x0 REVERT JUMPDEST POP POP POP POP PUSH1 0x40 MLOAD RETURNDATASIZE PUSH1 0x1F NOT PUSH1 0x1F DUP3 ADD AND DUP3 ADD DUP1 PUSH1 0x40 MSTORE POP DUP2 ADD SWAP1 PUSH2 0x999 SWAP2 SWAP1 PUSH2 0xCC1 JUMP JUMPDEST POP PUSH1 0x2 SLOAD PUSH1 0x40 MLOAD PUSH4 0x70A08231 PUSH1 0xE0 SHL DUP2 MSTORE ADDRESS PUSH1 0x4 DUP3 ADD MSTORE PUSH1 0x1 PUSH1 0x1 PUSH1 0xA0 SHL SUB SWAP1 SWAP2 AND SWAP1 PUSH4 0xA9059CBB SWAP1 CALLER SWAP1 DUP4 SWAP1 PUSH4 0x70A08231 SWAP1 PUSH1 0x24 ADD PUSH1 0x20 PUSH1 0x40 MLOAD DUP1 DUP4 SUB DUP2 DUP7 GAS STATICCALL ISZERO DUP1 ISZERO PUSH2 0x9EC JUMPI RETURNDATASIZE PUSH1 0x0 DUP1 RETURNDATACOPY RETURNDATASIZE PUSH1 0x0 REVERT JUMPDEST POP POP POP POP PUSH1 0x40 MLOAD RETURNDATASIZE PUSH1 0x1F NOT PUSH1 0x1F DUP3 ADD AND DUP3 ADD DUP1 PUSH1 0x40 MSTORE POP DUP2 ADD SWAP1 PUSH2 0xA10 SWAP2 SWAP1 PUSH2 0xCA8 JUMP JUMPDEST PUSH1 0x40 MLOAD PUSH1 0x1 PUSH1 0x1 PUSH1 0xE0 SHL SUB NOT PUSH1 0xE0 DUP6 SWAP1 SHL AND DUP2 MSTORE PUSH1 0x1 PUSH1 0x1 PUSH1 0xA0 SHL SUB SWAP1 SWAP3 AND PUSH1 0x4 DUP4 ADD MSTORE PUSH1 0x24 DUP3 ADD MSTORE PUSH1 0x44 ADD PUSH1 0x20 PUSH1 0x40 MLOAD DUP1 DUP4 SUB DUP2 PUSH1 0x0 DUP8 GAS CALL ISZERO DUP1 ISZERO PUSH2 0xA5B JUMPI RETURNDATASIZE PUSH1 0x0 DUP1 RETURNDATACOPY RETURNDATASIZE PUSH1 0x0 REVERT JUMPDEST POP POP POP POP PUSH1 0x40 MLOAD RETURNDATASIZE PUSH1 0x1F NOT PUSH1 0x1F DUP3 ADD AND DUP3 ADD DUP1 PUSH1 0x40 MSTORE POP DUP2 ADD SWAP1 PUSH2 0xA7F SWAP2 SWAP1 PUSH2 0xCC1 JUMP JUMPDEST POP JUMP JUMPDEST PUSH2 0xA8A PUSH2 0xAF8 JUMP JUMPDEST PUSH1 0x1 PUSH1 0x1 PUSH1 0xA0 SHL SUB DUP2 AND PUSH2 0xAEF JUMPI PUSH1 0x40 MLOAD PUSH3 0x461BCD PUSH1 0xE5 SHL DUP2 MSTORE PUSH1 0x20 PUSH1 0x4 DUP3 ADD MSTORE PUSH1 0x26 PUSH1 0x24 DUP3 ADD MSTORE PUSH32 0x4F776E61626C653A206E6577206F776E657220697320746865207A65726F2061 PUSH1 0x44 DUP3 ADD MSTORE PUSH6 0x646472657373 PUSH1 0xD0 SHL PUSH1 0x64 DUP3 ADD MSTORE PUSH1 0x84 ADD PUSH2 0x3B9 JUMP JUMPDEST PUSH2 0xA7F DUP2 PUSH2 0xB52 JUMP JUMPDEST PUSH1 0x0 SLOAD PUSH1 0x1 PUSH1 0x1 PUSH1 0xA0 SHL SUB AND CALLER EQ PUSH2 0x8A3 JUMPI PUSH1 0x40 MLOAD PUSH3 0x461BCD PUSH1 0xE5 SHL DUP2 MSTORE PUSH1 0x20 PUSH1 0x4 DUP3 ADD DUP2 SWAP1 MSTORE PUSH1 0x24 DUP3 ADD MSTORE PUSH32 0x4F776E61626C653A2063616C6C6572206973206E6F7420746865206F776E6572 PUSH1 0x44 DUP3 ADD MSTORE PUSH1 0x64 ADD PUSH2 0x3B9 JUMP JUMPDEST PUSH1 0x0 DUP1 SLOAD PUSH1 0x1 PUSH1 0x1 PUSH1 0xA0 SHL SUB DUP4 DUP2 AND PUSH1 0x1 PUSH1 0x1 PUSH1 0xA0 SHL SUB NOT DUP4 AND DUP2 OR DUP5 SSTORE PUSH1 0x40 MLOAD SWAP2 SWAP1 SWAP3 AND SWAP3 DUP4 SWAP2 PUSH32 0x8BE0079C531659141344CD1FD0A4F28419497F9722A3DAAFE3B4186F6B6457E0 SWAP2 SWAP1 LOG3 POP POP JUMP JUMPDEST PUSH1 0x0 PUSH1 0x20 DUP3 DUP5 SUB SLT ISZERO PUSH2 0xBB4 JUMPI PUSH1 0x0 DUP1 REVERT JUMPDEST DUP2 CALLDATALOAD PUSH1 0x1 PUSH1 0x1 PUSH1 0xA0 SHL SUB DUP2 AND DUP2 EQ PUSH2 0xBCB JUMPI PUSH1 0x0 DUP1 REVERT JUMPDEST SWAP4 SWAP3 POP POP POP JUMP JUMPDEST PUSH1 0x0 PUSH1 0x20 DUP3 DUP5 SUB SLT ISZERO PUSH2 0xBE4 JUMPI PUSH1 0x0 DUP1 REVERT JUMPDEST POP CALLDATALOAD SWAP2 SWAP1 POP JUMP JUMPDEST PUSH4 0x4E487B71 PUSH1 0xE0 SHL PUSH1 0x0 MSTORE PUSH1 0x21 PUSH1 0x4 MSTORE PUSH1 0x24 PUSH1 0x0 REVERT JUMPDEST PUSH1 0x20 DUP2 ADD PUSH1 0x8 DUP4 LT PUSH2 0xC23 JUMPI PUSH4 0x4E487B71 PUSH1 0xE0 SHL PUSH1 0x0 MSTORE PUSH1 0x21 PUSH1 0x4 MSTORE PUSH1 0x24 PUSH1 0x0 REVERT JUMPDEST SWAP2 SWAP1 MSTORE SWAP1 JUMP JUMPDEST PUSH1 0x0 DUP1 PUSH1 0x0 PUSH1 0x60 DUP5 DUP7 SUB SLT ISZERO PUSH2 0xC3E JUMPI PUSH1 0x0 DUP1 REVERT JUMPDEST POP POP DUP2 CALLDATALOAD SWAP4 PUSH1 0x20 DUP4 ADD CALLDATALOAD SWAP4 POP PUSH1 0x40 SWAP1 SWAP3 ADD CALLDATALOAD SWAP2 SWAP1 POP JUMP JUMPDEST PUSH1 0x0 DUP1 PUSH1 0x40 DUP4 DUP6 SUB SLT ISZERO PUSH2 0xC68 JUMPI PUSH1 0x0 DUP1 REVERT JUMPDEST DUP3 CALLDATALOAD PUSH1 0xFF DUP2 AND DUP2 EQ PUSH2 0xC79 JUMPI PUSH1 0x0 DUP1 REVERT JUMPDEST SWAP5 PUSH1 0x20 SWAP4 SWAP1 SWAP4 ADD CALLDATALOAD SWAP4 POP POP POP JUMP JUMPDEST PUSH1 0x0 PUSH1 0x20 DUP3 DUP5 SUB SLT ISZERO PUSH2 0xC99 JUMPI PUSH1 0x0 DUP1 REVERT JUMPDEST DUP2 MLOAD PUSH1 0x8 DUP2 LT PUSH2 0xBCB JUMPI PUSH1 0x0 DUP1 REVERT JUMPDEST PUSH1 0x0 PUSH1 0x20 DUP3 DUP5 SUB SLT ISZERO PUSH2 0xCBA JUMPI PUSH1 0x0 DUP1 REVERT JUMPDEST POP MLOAD SWAP2 SWAP1 POP JUMP JUMPDEST PUSH1 0x0 PUSH1 0x20 DUP3 DUP5 SUB SLT ISZERO PUSH2 0xCD3 JUMPI PUSH1 0x0 DUP1 REVERT JUMPDEST DUP2 MLOAD DUP1 ISZERO ISZERO DUP2 EQ PUSH2 0xBCB JUMPI PUSH1 0x0 DUP1 REVERT INVALID LOG2 PUSH5 0x6970667358 0x22 SLT KECCAK256 SWAP15 SGT 0xDD SDIV SELFDESTRUCT ADDRESS PUSH10 0xA57DF210CA023C8AF2D6 DUP12 SWAP4 GASPRICE 0xE5 SLOAD 0x27 ORIGIN 0xA5 PUSH12 0xB6CF41ACD0D64736F6C6343 STOP ADDMOD 0xF STOP CALLER LOG2 PUSH5 0x6970667358 0x22 SLT KECCAK256 SIGNEXTEND CALLVALUE INVALID KECCAK256 SWAP1 0xE SWAP2 0xE9 OR 0xCA 0xE9 0xD9 0xCE LOG2 DUP7 0x5F GASPRICE 0x24 CALLVALUE 0xD7 PUSH13 0x3002DDA92A346C9C7531466473 PUSH16 0x6C634300080F00330000000000000000 ",
  "sha1": "fc4890d1682202c0c9a3933076438a2160a63f5b",
  "source": "// SPDX-License-Identifier: UNLICENSED\npragma solidity ^0.8.0;\n\n\nimport \"./VoteProxyERC20Votes.sol\";\nimport \"@openzeppelin/contracts/access/Ownable.sol\";\nimport \"../interfaces/ITokenPool.sol\";\nimport \"../interfaces/IVoteProxyRegistry.sol\";\nimport \"@openzeppelin/contracts/access/IAccessControl.sol\";\nimport \"@openzeppelin/contracts/token/ERC20/IERC20.sol\";\nimport \"../TokenPool.sol\";\nimport \"./VoteProxyRegistry.sol\";\n/*\n ________ ________  ________ _________  ________  ________      ___    ___ \n|\\  _____\\\\   __  \\|\\   ____\\\\___   ___\\\\   __  \\|\\   __  \\    |\\  \\  /  /|\n\\ \\  \\__/\\ \\  \\|\\  \\ \\  \\___\\|___ \\  \\_\\ \\  \\|\\  \\ \\  \\|\\  \\   \\ \\  \\/  / /\n \\ \\   __\\\\ \\   __  \\ \\  \\       \\ \\  \\ \\ \\  \\\\\\  \\ \\   _  _\\   \\ \\    / / \n  \\ \\  \\_| \\ \\  \\ \\  \\ \\  \\____   \\ \\  \\ \\ \\  \\\\\\  \\ \\  \\\\  \\|   \\/  /  /  \n   \\ \\__\\   \\ \\__\\ \\__\\ \\_______\\  \\ \\__\\ \\ \\_______\\ \\__\\\\ _\\ __/  / /    \n    \\|__|    \\|__|\\|__|\\|_______|   \\|__|  \\|_______|\\|__|\\|__|\\___/ /          \n\n*/\n\ncontract VoteProxyFactory {\n    /// -----------------------------\n    ///         Storage\n    /// -----------------------------\n    \n    address public treasuryToken;\n    address public voteProxyRegistry;\n\n    /// -----------------------------\n    ///         Events\n    /// -----------------------------\n\n    event VoteProxyDeployed(address indexed proxyAddress, address governanceTokenAddress);\n\n    /// -----------------------------\n    ///         Constructor\n    /// -----------------------------\n\n    /**\n    * @dev Constructor - (N.B. Will likely change a lot during development)\n    * likely will not need treasury token address.\n    * possibly add tokenpool address, as there will only be one pool\n    */\n    constructor(address _treasuryToken, address _voteProxyRegistry) {\n        treasuryToken = _treasuryToken;\n        voteProxyRegistry = _voteProxyRegistry;\n    }\n\n    /// -----------------------------\n    ///         External\n    /// -----------------------------\n\n\n    /**\n    * @dev Creates a proxy for a user corresponding to one token (DAO). \n    * @param _governanceToken: address - The address of governance token\n    * @param _tokenPool: address - The address of the token pool (will most likely be known or mapping of token --> token pool)\n    * @param _isGovernorAlpha: bool - Is the governor voting mechanism compounds' Alphas\n    */\n    function createERC20VotesProxy(\n        address _governanceToken,\n        address _tokenPool,\n        bool _isGovernorAlpha\n    ) external returns (address) {\n\n        bool isOnChain = true;\n\n        // user only has one proxy / governance token (DAO) (and that its on chain )\n        require(!(IVoteProxyRegistry(voteProxyRegistry).checkProxy(msg.sender, _governanceToken, isOnChain)), \"User already has proxy associated with this token\");\n\n        require(TokenPool(_tokenPool).whiteListTokens(_governanceToken), \"Token is not whitelisted\");\n\n        address _governorAddress = VoteProxyRegistry(voteProxyRegistry).tokenToGovernor(_governanceToken);\n           \n        address proxy =\n            address(new VoteProxyERC20Votes(\n                _governanceToken, \n                _governorAddress, \n                _tokenPool, \n                msg.sender,\n                treasuryToken,\n                _isGovernorAlpha\n                ));\n\n        IVoteProxyRegistry(voteProxyRegistry).registerProxy(msg.sender, proxy, _governanceToken, isOnChain);\n        \n        emit VoteProxyDeployed(proxy, _governanceToken);\n        return proxy;\n    }\n}",
  "sourcePath": "contracts/Proxies/VoteProxyFactory.sol",
  "type": "contract"
}