{
  "abi": [
    {
      "inputs": [
        {
          "internalType": "address",
          "name": "_governanceToken",
          "type": "address"
        },
        {
          "internalType": "address",
          "name": "_governor",
          "type": "address"
        },
        {
          "internalType": "address",
          "name": "_tokenPool",
          "type": "address"
        },
        {
          "internalType": "address",
          "name": "_user",
          "type": "address"
        },
        {
          "internalType": "address",
          "name": "_treasuryToken",
          "type": "address"
        },
        {
          "internalType": "bool",
          "name": "_isGovernorAlpha",
          "type": "bool"
        }
      ],
      "stateMutability": "nonpayable",
      "type": "constructor"
    },
    {
      "anonymous": false,
      "inputs": [
        {
          "indexed": true,
          "internalType": "address",
          "name": "previousOwner",
          "type": "address"
        },
        {
          "indexed": true,
          "internalType": "address",
          "name": "newOwner",
          "type": "address"
        }
      ],
      "name": "OwnershipTransferred",
      "type": "event"
    },
    {
      "anonymous": false,
      "inputs": [
        {
          "indexed": false,
          "internalType": "uint256",
          "name": "proposalID",
          "type": "uint256"
        },
        {
          "indexed": false,
          "internalType": "uint256",
          "name": "vote",
          "type": "uint256"
        }
      ],
      "name": "VoteCasted",
      "type": "event"
    },
    {
      "anonymous": false,
      "inputs": [
        {
          "indexed": false,
          "internalType": "address",
          "name": "delegate",
          "type": "address"
        }
      ],
      "name": "VoteDelegated",
      "type": "event"
    },
    {
      "inputs": [],
      "name": "deFundMe",
      "outputs": [],
      "stateMutability": "nonpayable",
      "type": "function"
    },
    {
      "inputs": [
        {
          "internalType": "address",
          "name": "_delegate",
          "type": "address"
        }
      ],
      "name": "delegateVotingRights",
      "outputs": [],
      "stateMutability": "nonpayable",
      "type": "function"
    },
    {
      "inputs": [
        {
          "internalType": "uint256",
          "name": "_stakeAmount",
          "type": "uint256"
        },
        {
          "internalType": "uint256",
          "name": "_proposalID",
          "type": "uint256"
        },
        {
          "internalType": "uint256",
          "name": "_tsryPrice",
          "type": "uint256"
        }
      ],
      "name": "fundMe",
      "outputs": [],
      "stateMutability": "nonpayable",
      "type": "function"
    },
    {
      "inputs": [
        {
          "internalType": "uint256",
          "name": "_proposalID",
          "type": "uint256"
        }
      ],
      "name": "getState",
      "outputs": [
        {
          "internalType": "enum IGovernor.ProposalState",
          "name": "",
          "type": "uint8"
        }
      ],
      "stateMutability": "view",
      "type": "function"
    },
    {
      "inputs": [],
      "name": "governanceToken",
      "outputs": [
        {
          "internalType": "address",
          "name": "",
          "type": "address"
        }
      ],
      "stateMutability": "view",
      "type": "function"
    },
    {
      "inputs": [],
      "name": "governor",
      "outputs": [
        {
          "internalType": "address",
          "name": "",
          "type": "address"
        }
      ],
      "stateMutability": "view",
      "type": "function"
    },
    {
      "inputs": [],
      "name": "isGovernorAlpha",
      "outputs": [
        {
          "internalType": "bool",
          "name": "",
          "type": "bool"
        }
      ],
      "stateMutability": "view",
      "type": "function"
    },
    {
      "inputs": [],
      "name": "owner",
      "outputs": [
        {
          "internalType": "address",
          "name": "",
          "type": "address"
        }
      ],
      "stateMutability": "view",
      "type": "function"
    },
    {
      "inputs": [],
      "name": "proxyFactory",
      "outputs": [
        {
          "internalType": "address",
          "name": "",
          "type": "address"
        }
      ],
      "stateMutability": "view",
      "type": "function"
    },
    {
      "inputs": [
        {
          "internalType": "uint8",
          "name": "_vote",
          "type": "uint8"
        },
        {
          "internalType": "uint256",
          "name": "_proposalID",
          "type": "uint256"
        }
      ],
      "name": "proxyVote",
      "outputs": [],
      "stateMutability": "nonpayable",
      "type": "function"
    },
    {
      "inputs": [],
      "name": "renounceOwnership",
      "outputs": [],
      "stateMutability": "nonpayable",
      "type": "function"
    },
    {
      "inputs": [],
      "name": "tokenPool",
      "outputs": [
        {
          "internalType": "address",
          "name": "",
          "type": "address"
        }
      ],
      "stateMutability": "view",
      "type": "function"
    },
    {
      "inputs": [
        {
          "internalType": "address",
          "name": "newOwner",
          "type": "address"
        }
      ],
      "name": "transferOwnership",
      "outputs": [],
      "stateMutability": "nonpayable",
      "type": "function"
    },
    {
      "inputs": [],
      "name": "treasuryToken",
      "outputs": [
        {
          "internalType": "address",
          "name": "",
          "type": "address"
        }
      ],
      "stateMutability": "view",
      "type": "function"
    }
  ],
  "bytecode": "60806040523480156200001157600080fd5b5060405162000fcc38038062000fcc83398101604081905262000034916200021a565b6200003f33620000cc565b6200004a836200011c565b600180546001600160a01b039788166001600160a01b031991821617909155600380549688169682169690961790955560048054948716948616949094179093556005805460028054939097169290951691909117909455501515600160a01b0260ff60a01b1933166001600160a81b031990921691909117179055620002a3565b600080546001600160a01b038381166001600160a01b0319831681178455604051919092169283917f8be0079c531659141344cd1fd0a4f28419497f9722a3daafe3b4186f6b6457e09190a35050565b620001266200019f565b6001600160a01b038116620001915760405162461bcd60e51b815260206004820152602660248201527f4f776e61626c653a206e6577206f776e657220697320746865207a65726f206160448201526564647265737360d01b60648201526084015b60405180910390fd5b6200019c81620000cc565b50565b6000546001600160a01b03163314620001fb5760405162461bcd60e51b815260206004820181905260248201527f4f776e61626c653a2063616c6c6572206973206e6f7420746865206f776e6572604482015260640162000188565b565b80516001600160a01b03811681146200021557600080fd5b919050565b60008060008060008060c087890312156200023457600080fd5b6200023f87620001fd565b95506200024f60208801620001fd565b94506200025f60408801620001fd565b93506200026f60608801620001fd565b92506200027f60808801620001fd565b915060a087015180151581146200029557600080fd5b809150509295509295509295565b610d1980620002b36000396000f3fe608060405234801561001057600080fd5b50600436106100ea5760003560e01c80638da5cb5b1161008c578063c10f1a7511610066578063c10f1a75146101c1578063dc1c32cd146101d4578063f2fde38b146101f8578063f96dae0a1461020b57600080fd5b80638da5cb5b14610195578063b2ce514b146101a6578063b2f8009e146101b957600080fd5b806344c9af28116100c857806344c9af2814610147578063577b10a01461016757806367df14901461017a578063715018a61461018d57600080fd5b80630c340a24146100ef578063104e99291461011f5780632ec1a4c214610132575b600080fd5b600354610102906001600160a01b031681565b6040516001600160a01b0390911681526020015b60405180910390f35b600454610102906001600160a01b031681565b610145610140366004610ba2565b61021e565b005b61015a610155366004610bd2565b6102c5565b6040516101169190610c01565b610145610175366004610c29565b610339565b610145610188366004610c55565b61068b565b610145610891565b6000546001600160a01b0316610102565b600254610102906001600160a01b031681565b6101456108a5565b600554610102906001600160a01b031681565b6005546101e890600160a01b900460ff1681565b6040519015158152602001610116565b610145610206366004610ba2565b610a82565b600154610102906001600160a01b031681565b610226610af8565b6001546040516317066a5760e21b81526001600160a01b03838116600483015290911690635c19a95c90602401600060405180830381600087803b15801561026d57600080fd5b505af1158015610281573d6000803e3d6000fd5b50506040516001600160a01b03841681527f62150de87881e096697cc43aece19d304cb2e5a49f65bc6b74b1a31d9c1c2a419250602001905060405180910390a150565b600354604051631f27a4f360e11b8152600481018390526000916001600160a01b031690633e4f49e690602401602060405180830381865afa15801561030f573d6000803e3d6000fd5b505050506040513d601f19601f820116820180604052508101906103339190610c87565b92915050565b610341610af8565b600061034c836102c5565b600781111561035d5761035d610beb565b146103c25760405162461bcd60e51b815260206004820152602a60248201527f43616e206f6e6c792066756e642070726f78792069662070726f706f73616c2060448201526969732070656e64696e6760b01b60648201526084015b60405180910390fd5b600154600480546040516370a0823160e01b81526001600160a01b039182169281019290925260009216906370a0823190602401602060405180830381865afa158015610413573d6000803e3d6000fd5b505050506040513d601f19601f820116820180604052508101906104379190610ca8565b9050600081116104895760405162461bcd60e51b815260206004820152601960248201527f546f6b656e20506f6f6c20686173206e6f206d6f72652047540000000000000060448201526064016103b9565b600084116104d95760405162461bcd60e51b815260206004820152601b60248201527f506c656173652066756e642077697468206d6f7265205453525920000000000060448201526064016103b9565b6002546040516323b872dd60e01b8152336004820152306024820152604481018690526000916001600160a01b0316906323b872dd906064016020604051808303816000875af1158015610531573d6000803e3d6000fd5b505050506040513d601f19601f820116820180604052508101906105559190610cc1565b9050806105b35760405162461bcd60e51b815260206004820152602660248201527f54535259207374616b6520747261736e66657220776173206e6f742073756363604482015265195cdcd99d5b60d21b60648201526084016103b9565b6004805460015460405163037a083760e51b81529283018890526001600160a01b039081166024840152336044840152606483018690521690636f4106e090608401600060405180830381600087803b15801561060f57600080fd5b505af1158015610623573d6000803e3d6000fd5b50506001546040516317066a5760e21b81523060048201526001600160a01b039091169250635c19a95c9150602401600060405180830381600087803b15801561066c57600080fd5b505af1158015610680573d6000803e3d6000fd5b505050505050505050565b610693610af8565b600554600160a01b900460ff16156107d05760ff821615806106b857508160ff166001145b6107225760405162461bcd60e51b815260206004820152603560248201527f476f7665726e6f7220416c706861206f6e6c79206163636570747320626f6f6c604482015274207479706520766f74696e67202830206f7220312960581b60648201526084016103b9565b8160ff16600114610798576003546040516315373e3d60e01b815260048101839052600060248201526001600160a01b03909116906315373e3d906044015b600060405180830381600087803b15801561077b57600080fd5b505af115801561078f573d6000803e3d6000fd5b5050505061084a565b6003546040516315373e3d60e01b815260048101839052600160248201526001600160a01b03909116906315373e3d90604401610761565b600354604051630acf027160e31b81526004810183905260ff841660248201526001600160a01b03909116906356781388906044016020604051808303816000875af1158015610824573d6000803e3d6000fd5b505050506040513d601f19601f820116820180604052508101906108489190610ca8565b505b6108526108a5565b6040805182815260ff841660208201527f5d4760119c8e8650149aac097d38c70515dfce015031561ad115606533e479be910160405180910390a15050565b610899610af8565b6108a36000610b52565b565b6108ad610af8565b600154600480546040516370a0823160e01b815230928101929092526001600160a01b039283169263a9059cbb9291169083906370a0823190602401602060405180830381865afa158015610906573d6000803e3d6000fd5b505050506040513d601f19601f8201168201806040525081019061092a9190610ca8565b6040516001600160e01b031960e085901b1681526001600160a01b03909216600483015260248201526044016020604051808303816000875af1158015610975573d6000803e3d6000fd5b505050506040513d601f19601f820116820180604052508101906109999190610cc1565b506002546040516370a0823160e01b81523060048201526001600160a01b039091169063a9059cbb90339083906370a0823190602401602060405180830381865afa1580156109ec573d6000803e3d6000fd5b505050506040513d601f19601f82011682018060405250810190610a109190610ca8565b6040516001600160e01b031960e085901b1681526001600160a01b03909216600483015260248201526044016020604051808303816000875af1158015610a5b573d6000803e3d6000fd5b505050506040513d601f19601f82011682018060405250810190610a7f9190610cc1565b50565b610a8a610af8565b6001600160a01b038116610aef5760405162461bcd60e51b815260206004820152602660248201527f4f776e61626c653a206e6577206f776e657220697320746865207a65726f206160448201526564647265737360d01b60648201526084016103b9565b610a7f81610b52565b6000546001600160a01b031633146108a35760405162461bcd60e51b815260206004820181905260248201527f4f776e61626c653a2063616c6c6572206973206e6f7420746865206f776e657260448201526064016103b9565b600080546001600160a01b038381166001600160a01b0319831681178455604051919092169283917f8be0079c531659141344cd1fd0a4f28419497f9722a3daafe3b4186f6b6457e09190a35050565b600060208284031215610bb457600080fd5b81356001600160a01b0381168114610bcb57600080fd5b9392505050565b600060208284031215610be457600080fd5b5035919050565b634e487b7160e01b600052602160045260246000fd5b6020810160088310610c2357634e487b7160e01b600052602160045260246000fd5b91905290565b600080600060608486031215610c3e57600080fd5b505081359360208301359350604090920135919050565b60008060408385031215610c6857600080fd5b823560ff81168114610c7957600080fd5b946020939093013593505050565b600060208284031215610c9957600080fd5b815160088110610bcb57600080fd5b600060208284031215610cba57600080fd5b5051919050565b600060208284031215610cd357600080fd5b81518015158114610bcb57600080fdfea26469706673582212209e13dd05ff3069a57df210ca023c8af2d68b933ae5542732a56b0b6cf41acd0d64736f6c634300080f0033",
  "bytecodeSha1": "4df07c6e8fdd342044bcedad71d94284019877a9",
  "compiler": {
    "evm_version": "istanbul",
    "optimizer": {
      "enabled": true,
      "runs": 200
    },
    "version": "0.8.15+commit.e14f2714"
  },
  "contractName": "VoteProxyERC20Votes",
  "language": "Solidity",
  "natspec": {
    "kind": "dev",
    "methods": {
      "constructor": {
        "details": "Constructor for the VoteProxyERC20 contract    - Immediately self delegates voting power     - Sets owner of the contract to the user   - Sets proxy factory as msg.sender  TODO:    1. The treasury token address will be a fixed address    2. Token pool will be fixed address",
        "params": {
          "_governanceToken": ": address - The address of the governance token",
          "_governor": ": address - The address of the governor contract for the DAO",
          "_tokenPool": ": address - The address of the token pool contract that the token came from",
          "_treasuryToken": ": address - Tresaury token address",
          "_user": ": address - Address of the end user  "
        }
      },
      "deFundMe()": {
        "details": "(for now you can only fully defund) - Avoids conversion from GT --> TSRY     - Sends back all GT to token pool.     - Sends back TSRY to user"
      },
      "delegateVotingRights(address)": {
        "details": "Delegates voting power of this contract to another address.",
        "params": {
          "_delegate": ": address - Address of delegate."
        }
      },
      "fundMe(uint256,uint256,uint256)": {
        "details": "Stakes treasury and makes an external call to the voteproxyfactory in order to fund this contract with the corresponding amount of governance token",
        "params": {
          "_stakeAmount": ": uint - Amount user has to deposit into this contract",
          "_tsryPrice": ": uint - for testing, the price of tsry."
        }
      },
      "getState(uint256)": {
        "details": "Retrieves current state of the proposal  ",
        "returns": {
          "_0": "ProposalState - The state of the proposal    Pending: 0    Active: 1    Canceled: 2    Defeated: 3     Succeeded: 4    Queued: 5    Expired: 6    Executed: 7"
        }
      },
      "governanceToken()": {
        "notice": "-----------------------------         Storage -----------------------------"
      },
      "owner()": {
        "details": "Returns the address of the current owner."
      },
      "proxyVote(uint8,uint256)": {
        "details": "Vote with amount of governance token stored in contract.     - Sends TSRY back to the user.    - Sends back all GT to token pool.",
        "params": {
          "_proposalID": ": uint256 - Specific proposal",
          "_vote": ": uint8 - Vote (0,1,2)   Against: 0   For: 1   Abstain: 2"
        }
      },
      "renounceOwnership()": {
        "details": "Leaves the contract without owner. It will not be possible to call `onlyOwner` functions anymore. Can only be called by the current owner. NOTE: Renouncing ownership will leave the contract without an owner, thereby removing any functionality that is only available to the owner."
      },
      "transferOwnership(address)": {
        "details": "Transfers ownership of the contract to a new account (`newOwner`). Can only be called by the current owner."
      }
    },
    "version": 1
  },
  "opcodes": "PUSH1 0x80 PUSH1 0x40 MSTORE CALLVALUE DUP1 ISZERO PUSH2 0x10 JUMPI PUSH1 0x0 DUP1 REVERT JUMPDEST POP PUSH1 0x4 CALLDATASIZE LT PUSH2 0xEA JUMPI PUSH1 0x0 CALLDATALOAD PUSH1 0xE0 SHR DUP1 PUSH4 0x8DA5CB5B GT PUSH2 0x8C JUMPI DUP1 PUSH4 0xC10F1A75 GT PUSH2 0x66 JUMPI DUP1 PUSH4 0xC10F1A75 EQ PUSH2 0x1C1 JUMPI DUP1 PUSH4 0xDC1C32CD EQ PUSH2 0x1D4 JUMPI DUP1 PUSH4 0xF2FDE38B EQ PUSH2 0x1F8 JUMPI DUP1 PUSH4 0xF96DAE0A EQ PUSH2 0x20B JUMPI PUSH1 0x0 DUP1 REVERT JUMPDEST DUP1 PUSH4 0x8DA5CB5B EQ PUSH2 0x195 JUMPI DUP1 PUSH4 0xB2CE514B EQ PUSH2 0x1A6 JUMPI DUP1 PUSH4 0xB2F8009E EQ PUSH2 0x1B9 JUMPI PUSH1 0x0 DUP1 REVERT JUMPDEST DUP1 PUSH4 0x44C9AF28 GT PUSH2 0xC8 JUMPI DUP1 PUSH4 0x44C9AF28 EQ PUSH2 0x147 JUMPI DUP1 PUSH4 0x577B10A0 EQ PUSH2 0x167 JUMPI DUP1 PUSH4 0x67DF1490 EQ PUSH2 0x17A JUMPI DUP1 PUSH4 0x715018A6 EQ PUSH2 0x18D JUMPI PUSH1 0x0 DUP1 REVERT JUMPDEST DUP1 PUSH4 0xC340A24 EQ PUSH2 0xEF JUMPI DUP1 PUSH4 0x104E9929 EQ PUSH2 0x11F JUMPI DUP1 PUSH4 0x2EC1A4C2 EQ PUSH2 0x132 JUMPI JUMPDEST PUSH1 0x0 DUP1 REVERT JUMPDEST PUSH1 0x3 SLOAD PUSH2 0x102 SWAP1 PUSH1 0x1 PUSH1 0x1 PUSH1 0xA0 SHL SUB AND DUP2 JUMP JUMPDEST PUSH1 0x40 MLOAD PUSH1 0x1 PUSH1 0x1 PUSH1 0xA0 SHL SUB SWAP1 SWAP2 AND DUP2 MSTORE PUSH1 0x20 ADD JUMPDEST PUSH1 0x40 MLOAD DUP1 SWAP2 SUB SWAP1 RETURN JUMPDEST PUSH1 0x4 SLOAD PUSH2 0x102 SWAP1 PUSH1 0x1 PUSH1 0x1 PUSH1 0xA0 SHL SUB AND DUP2 JUMP JUMPDEST PUSH2 0x145 PUSH2 0x140 CALLDATASIZE PUSH1 0x4 PUSH2 0xBA2 JUMP JUMPDEST PUSH2 0x21E JUMP JUMPDEST STOP JUMPDEST PUSH2 0x15A PUSH2 0x155 CALLDATASIZE PUSH1 0x4 PUSH2 0xBD2 JUMP JUMPDEST PUSH2 0x2C5 JUMP JUMPDEST PUSH1 0x40 MLOAD PUSH2 0x116 SWAP2 SWAP1 PUSH2 0xC01 JUMP JUMPDEST PUSH2 0x145 PUSH2 0x175 CALLDATASIZE PUSH1 0x4 PUSH2 0xC29 JUMP JUMPDEST PUSH2 0x339 JUMP JUMPDEST PUSH2 0x145 PUSH2 0x188 CALLDATASIZE PUSH1 0x4 PUSH2 0xC55 JUMP JUMPDEST PUSH2 0x68B JUMP JUMPDEST PUSH2 0x145 PUSH2 0x891 JUMP JUMPDEST PUSH1 0x0 SLOAD PUSH1 0x1 PUSH1 0x1 PUSH1 0xA0 SHL SUB AND PUSH2 0x102 JUMP JUMPDEST PUSH1 0x2 SLOAD PUSH2 0x102 SWAP1 PUSH1 0x1 PUSH1 0x1 PUSH1 0xA0 SHL SUB AND DUP2 JUMP JUMPDEST PUSH2 0x145 PUSH2 0x8A5 JUMP JUMPDEST PUSH1 0x5 SLOAD PUSH2 0x102 SWAP1 PUSH1 0x1 PUSH1 0x1 PUSH1 0xA0 SHL SUB AND DUP2 JUMP JUMPDEST PUSH1 0x5 SLOAD PUSH2 0x1E8 SWAP1 PUSH1 0x1 PUSH1 0xA0 SHL SWAP1 DIV PUSH1 0xFF AND DUP2 JUMP JUMPDEST PUSH1 0x40 MLOAD SWAP1 ISZERO ISZERO DUP2 MSTORE PUSH1 0x20 ADD PUSH2 0x116 JUMP JUMPDEST PUSH2 0x145 PUSH2 0x206 CALLDATASIZE PUSH1 0x4 PUSH2 0xBA2 JUMP JUMPDEST PUSH2 0xA82 JUMP JUMPDEST PUSH1 0x1 SLOAD PUSH2 0x102 SWAP1 PUSH1 0x1 PUSH1 0x1 PUSH1 0xA0 SHL SUB AND DUP2 JUMP JUMPDEST PUSH2 0x226 PUSH2 0xAF8 JUMP JUMPDEST PUSH1 0x1 SLOAD PUSH1 0x40 MLOAD PUSH4 0x17066A57 PUSH1 0xE2 SHL DUP2 MSTORE PUSH1 0x1 PUSH1 0x1 PUSH1 0xA0 SHL SUB DUP4 DUP2 AND PUSH1 0x4 DUP4 ADD MSTORE SWAP1 SWAP2 AND SWAP1 PUSH4 0x5C19A95C SWAP1 PUSH1 0x24 ADD PUSH1 0x0 PUSH1 0x40 MLOAD DUP1 DUP4 SUB DUP2 PUSH1 0x0 DUP8 DUP1 EXTCODESIZE ISZERO DUP1 ISZERO PUSH2 0x26D JUMPI PUSH1 0x0 DUP1 REVERT JUMPDEST POP GAS CALL ISZERO DUP1 ISZERO PUSH2 0x281 JUMPI RETURNDATASIZE PUSH1 0x0 DUP1 RETURNDATACOPY RETURNDATASIZE PUSH1 0x0 REVERT JUMPDEST POP POP PUSH1 0x40 MLOAD PUSH1 0x1 PUSH1 0x1 PUSH1 0xA0 SHL SUB DUP5 AND DUP2 MSTORE PUSH32 0x62150DE87881E096697CC43AECE19D304CB2E5A49F65BC6B74B1A31D9C1C2A41 SWAP3 POP PUSH1 0x20 ADD SWAP1 POP PUSH1 0x40 MLOAD DUP1 SWAP2 SUB SWAP1 LOG1 POP JUMP JUMPDEST PUSH1 0x3 SLOAD PUSH1 0x40 MLOAD PUSH4 0x1F27A4F3 PUSH1 0xE1 SHL DUP2 MSTORE PUSH1 0x4 DUP2 ADD DUP4 SWAP1 MSTORE PUSH1 0x0 SWAP2 PUSH1 0x1 PUSH1 0x1 PUSH1 0xA0 SHL SUB AND SWAP1 PUSH4 0x3E4F49E6 SWAP1 PUSH1 0x24 ADD PUSH1 0x20 PUSH1 0x40 MLOAD DUP1 DUP4 SUB DUP2 DUP7 GAS STATICCALL ISZERO DUP1 ISZERO PUSH2 0x30F JUMPI RETURNDATASIZE PUSH1 0x0 DUP1 RETURNDATACOPY RETURNDATASIZE PUSH1 0x0 REVERT JUMPDEST POP POP POP POP PUSH1 0x40 MLOAD RETURNDATASIZE PUSH1 0x1F NOT PUSH1 0x1F DUP3 ADD AND DUP3 ADD DUP1 PUSH1 0x40 MSTORE POP DUP2 ADD SWAP1 PUSH2 0x333 SWAP2 SWAP1 PUSH2 0xC87 JUMP JUMPDEST SWAP3 SWAP2 POP POP JUMP JUMPDEST PUSH2 0x341 PUSH2 0xAF8 JUMP JUMPDEST PUSH1 0x0 PUSH2 0x34C DUP4 PUSH2 0x2C5 JUMP JUMPDEST PUSH1 0x7 DUP2 GT ISZERO PUSH2 0x35D JUMPI PUSH2 0x35D PUSH2 0xBEB JUMP JUMPDEST EQ PUSH2 0x3C2 JUMPI PUSH1 0x40 MLOAD PUSH3 0x461BCD PUSH1 0xE5 SHL DUP2 MSTORE PUSH1 0x20 PUSH1 0x4 DUP3 ADD MSTORE PUSH1 0x2A PUSH1 0x24 DUP3 ADD MSTORE PUSH32 0x43616E206F6E6C792066756E642070726F78792069662070726F706F73616C20 PUSH1 0x44 DUP3 ADD MSTORE PUSH10 0x69732070656E64696E67 PUSH1 0xB0 SHL PUSH1 0x64 DUP3 ADD MSTORE PUSH1 0x84 ADD JUMPDEST PUSH1 0x40 MLOAD DUP1 SWAP2 SUB SWAP1 REVERT JUMPDEST PUSH1 0x1 SLOAD PUSH1 0x4 DUP1 SLOAD PUSH1 0x40 MLOAD PUSH4 0x70A08231 PUSH1 0xE0 SHL DUP2 MSTORE PUSH1 0x1 PUSH1 0x1 PUSH1 0xA0 SHL SUB SWAP2 DUP3 AND SWAP3 DUP2 ADD SWAP3 SWAP1 SWAP3 MSTORE PUSH1 0x0 SWAP3 AND SWAP1 PUSH4 0x70A08231 SWAP1 PUSH1 0x24 ADD PUSH1 0x20 PUSH1 0x40 MLOAD DUP1 DUP4 SUB DUP2 DUP7 GAS STATICCALL ISZERO DUP1 ISZERO PUSH2 0x413 JUMPI RETURNDATASIZE PUSH1 0x0 DUP1 RETURNDATACOPY RETURNDATASIZE PUSH1 0x0 REVERT JUMPDEST POP POP POP POP PUSH1 0x40 MLOAD RETURNDATASIZE PUSH1 0x1F NOT PUSH1 0x1F DUP3 ADD AND DUP3 ADD DUP1 PUSH1 0x40 MSTORE POP DUP2 ADD SWAP1 PUSH2 0x437 SWAP2 SWAP1 PUSH2 0xCA8 JUMP JUMPDEST SWAP1 POP PUSH1 0x0 DUP2 GT PUSH2 0x489 JUMPI PUSH1 0x40 MLOAD PUSH3 0x461BCD PUSH1 0xE5 SHL DUP2 MSTORE PUSH1 0x20 PUSH1 0x4 DUP3 ADD MSTORE PUSH1 0x19 PUSH1 0x24 DUP3 ADD MSTORE PUSH32 0x546F6B656E20506F6F6C20686173206E6F206D6F726520475400000000000000 PUSH1 0x44 DUP3 ADD MSTORE PUSH1 0x64 ADD PUSH2 0x3B9 JUMP JUMPDEST PUSH1 0x0 DUP5 GT PUSH2 0x4D9 JUMPI PUSH1 0x40 MLOAD PUSH3 0x461BCD PUSH1 0xE5 SHL DUP2 MSTORE PUSH1 0x20 PUSH1 0x4 DUP3 ADD MSTORE PUSH1 0x1B PUSH1 0x24 DUP3 ADD MSTORE PUSH32 0x506C656173652066756E642077697468206D6F72652054535259200000000000 PUSH1 0x44 DUP3 ADD MSTORE PUSH1 0x64 ADD PUSH2 0x3B9 JUMP JUMPDEST PUSH1 0x2 SLOAD PUSH1 0x40 MLOAD PUSH4 0x23B872DD PUSH1 0xE0 SHL DUP2 MSTORE CALLER PUSH1 0x4 DUP3 ADD MSTORE ADDRESS PUSH1 0x24 DUP3 ADD MSTORE PUSH1 0x44 DUP2 ADD DUP7 SWAP1 MSTORE PUSH1 0x0 SWAP2 PUSH1 0x1 PUSH1 0x1 PUSH1 0xA0 SHL SUB AND SWAP1 PUSH4 0x23B872DD SWAP1 PUSH1 0x64 ADD PUSH1 0x20 PUSH1 0x40 MLOAD DUP1 DUP4 SUB DUP2 PUSH1 0x0 DUP8 GAS CALL ISZERO DUP1 ISZERO PUSH2 0x531 JUMPI RETURNDATASIZE PUSH1 0x0 DUP1 RETURNDATACOPY RETURNDATASIZE PUSH1 0x0 REVERT JUMPDEST POP POP POP POP PUSH1 0x40 MLOAD RETURNDATASIZE PUSH1 0x1F NOT PUSH1 0x1F DUP3 ADD AND DUP3 ADD DUP1 PUSH1 0x40 MSTORE POP DUP2 ADD SWAP1 PUSH2 0x555 SWAP2 SWAP1 PUSH2 0xCC1 JUMP JUMPDEST SWAP1 POP DUP1 PUSH2 0x5B3 JUMPI PUSH1 0x40 MLOAD PUSH3 0x461BCD PUSH1 0xE5 SHL DUP2 MSTORE PUSH1 0x20 PUSH1 0x4 DUP3 ADD MSTORE PUSH1 0x26 PUSH1 0x24 DUP3 ADD MSTORE PUSH32 0x54535259207374616B6520747261736E66657220776173206E6F742073756363 PUSH1 0x44 DUP3 ADD MSTORE PUSH6 0x195CDCD99D5B PUSH1 0xD2 SHL PUSH1 0x64 DUP3 ADD MSTORE PUSH1 0x84 ADD PUSH2 0x3B9 JUMP JUMPDEST PUSH1 0x4 DUP1 SLOAD PUSH1 0x1 SLOAD PUSH1 0x40 MLOAD PUSH4 0x37A0837 PUSH1 0xE5 SHL DUP2 MSTORE SWAP3 DUP4 ADD DUP9 SWAP1 MSTORE PUSH1 0x1 PUSH1 0x1 PUSH1 0xA0 SHL SUB SWAP1 DUP2 AND PUSH1 0x24 DUP5 ADD MSTORE CALLER PUSH1 0x44 DUP5 ADD MSTORE PUSH1 0x64 DUP4 ADD DUP7 SWAP1 MSTORE AND SWAP1 PUSH4 0x6F4106E0 SWAP1 PUSH1 0x84 ADD PUSH1 0x0 PUSH1 0x40 MLOAD DUP1 DUP4 SUB DUP2 PUSH1 0x0 DUP8 DUP1 EXTCODESIZE ISZERO DUP1 ISZERO PUSH2 0x60F JUMPI PUSH1 0x0 DUP1 REVERT JUMPDEST POP GAS CALL ISZERO DUP1 ISZERO PUSH2 0x623 JUMPI RETURNDATASIZE PUSH1 0x0 DUP1 RETURNDATACOPY RETURNDATASIZE PUSH1 0x0 REVERT JUMPDEST POP POP PUSH1 0x1 SLOAD PUSH1 0x40 MLOAD PUSH4 0x17066A57 PUSH1 0xE2 SHL DUP2 MSTORE ADDRESS PUSH1 0x4 DUP3 ADD MSTORE PUSH1 0x1 PUSH1 0x1 PUSH1 0xA0 SHL SUB SWAP1 SWAP2 AND SWAP3 POP PUSH4 0x5C19A95C SWAP2 POP PUSH1 0x24 ADD PUSH1 0x0 PUSH1 0x40 MLOAD DUP1 DUP4 SUB DUP2 PUSH1 0x0 DUP8 DUP1 EXTCODESIZE ISZERO DUP1 ISZERO PUSH2 0x66C JUMPI PUSH1 0x0 DUP1 REVERT JUMPDEST POP GAS CALL ISZERO DUP1 ISZERO PUSH2 0x680 JUMPI RETURNDATASIZE PUSH1 0x0 DUP1 RETURNDATACOPY RETURNDATASIZE PUSH1 0x0 REVERT JUMPDEST POP POP POP POP POP POP POP POP POP JUMP JUMPDEST PUSH2 0x693 PUSH2 0xAF8 JUMP JUMPDEST PUSH1 0x5 SLOAD PUSH1 0x1 PUSH1 0xA0 SHL SWAP1 DIV PUSH1 0xFF AND ISZERO PUSH2 0x7D0 JUMPI PUSH1 0xFF DUP3 AND ISZERO DUP1 PUSH2 0x6B8 JUMPI POP DUP2 PUSH1 0xFF AND PUSH1 0x1 EQ JUMPDEST PUSH2 0x722 JUMPI PUSH1 0x40 MLOAD PUSH3 0x461BCD PUSH1 0xE5 SHL DUP2 MSTORE PUSH1 0x20 PUSH1 0x4 DUP3 ADD MSTORE PUSH1 0x35 PUSH1 0x24 DUP3 ADD MSTORE PUSH32 0x476F7665726E6F7220416C706861206F6E6C79206163636570747320626F6F6C PUSH1 0x44 DUP3 ADD MSTORE PUSH21 0x207479706520766F74696E67202830206F72203129 PUSH1 0x58 SHL PUSH1 0x64 DUP3 ADD MSTORE PUSH1 0x84 ADD PUSH2 0x3B9 JUMP JUMPDEST DUP2 PUSH1 0xFF AND PUSH1 0x1 EQ PUSH2 0x798 JUMPI PUSH1 0x3 SLOAD PUSH1 0x40 MLOAD PUSH4 0x15373E3D PUSH1 0xE0 SHL DUP2 MSTORE PUSH1 0x4 DUP2 ADD DUP4 SWAP1 MSTORE PUSH1 0x0 PUSH1 0x24 DUP3 ADD MSTORE PUSH1 0x1 PUSH1 0x1 PUSH1 0xA0 SHL SUB SWAP1 SWAP2 AND SWAP1 PUSH4 0x15373E3D SWAP1 PUSH1 0x44 ADD JUMPDEST PUSH1 0x0 PUSH1 0x40 MLOAD DUP1 DUP4 SUB DUP2 PUSH1 0x0 DUP8 DUP1 EXTCODESIZE ISZERO DUP1 ISZERO PUSH2 0x77B JUMPI PUSH1 0x0 DUP1 REVERT JUMPDEST POP GAS CALL ISZERO DUP1 ISZERO PUSH2 0x78F JUMPI RETURNDATASIZE PUSH1 0x0 DUP1 RETURNDATACOPY RETURNDATASIZE PUSH1 0x0 REVERT JUMPDEST POP POP POP POP PUSH2 0x84A JUMP JUMPDEST PUSH1 0x3 SLOAD PUSH1 0x40 MLOAD PUSH4 0x15373E3D PUSH1 0xE0 SHL DUP2 MSTORE PUSH1 0x4 DUP2 ADD DUP4 SWAP1 MSTORE PUSH1 0x1 PUSH1 0x24 DUP3 ADD MSTORE PUSH1 0x1 PUSH1 0x1 PUSH1 0xA0 SHL SUB SWAP1 SWAP2 AND SWAP1 PUSH4 0x15373E3D SWAP1 PUSH1 0x44 ADD PUSH2 0x761 JUMP JUMPDEST PUSH1 0x3 SLOAD PUSH1 0x40 MLOAD PUSH4 0xACF0271 PUSH1 0xE3 SHL DUP2 MSTORE PUSH1 0x4 DUP2 ADD DUP4 SWAP1 MSTORE PUSH1 0xFF DUP5 AND PUSH1 0x24 DUP3 ADD MSTORE PUSH1 0x1 PUSH1 0x1 PUSH1 0xA0 SHL SUB SWAP1 SWAP2 AND SWAP1 PUSH4 0x56781388 SWAP1 PUSH1 0x44 ADD PUSH1 0x20 PUSH1 0x40 MLOAD DUP1 DUP4 SUB DUP2 PUSH1 0x0 DUP8 GAS CALL ISZERO DUP1 ISZERO PUSH2 0x824 JUMPI RETURNDATASIZE PUSH1 0x0 DUP1 RETURNDATACOPY RETURNDATASIZE PUSH1 0x0 REVERT JUMPDEST POP POP POP POP PUSH1 0x40 MLOAD RETURNDATASIZE PUSH1 0x1F NOT PUSH1 0x1F DUP3 ADD AND DUP3 ADD DUP1 PUSH1 0x40 MSTORE POP DUP2 ADD SWAP1 PUSH2 0x848 SWAP2 SWAP1 PUSH2 0xCA8 JUMP JUMPDEST POP JUMPDEST PUSH2 0x852 PUSH2 0x8A5 JUMP JUMPDEST PUSH1 0x40 DUP1 MLOAD DUP3 DUP2 MSTORE PUSH1 0xFF DUP5 AND PUSH1 0x20 DUP3 ADD MSTORE PUSH32 0x5D4760119C8E8650149AAC097D38C70515DFCE015031561AD115606533E479BE SWAP2 ADD PUSH1 0x40 MLOAD DUP1 SWAP2 SUB SWAP1 LOG1 POP POP JUMP JUMPDEST PUSH2 0x899 PUSH2 0xAF8 JUMP JUMPDEST PUSH2 0x8A3 PUSH1 0x0 PUSH2 0xB52 JUMP JUMPDEST JUMP JUMPDEST PUSH2 0x8AD PUSH2 0xAF8 JUMP JUMPDEST PUSH1 0x1 SLOAD PUSH1 0x4 DUP1 SLOAD PUSH1 0x40 MLOAD PUSH4 0x70A08231 PUSH1 0xE0 SHL DUP2 MSTORE ADDRESS SWAP3 DUP2 ADD SWAP3 SWAP1 SWAP3 MSTORE PUSH1 0x1 PUSH1 0x1 PUSH1 0xA0 SHL SUB SWAP3 DUP4 AND SWAP3 PUSH4 0xA9059CBB SWAP3 SWAP2 AND SWAP1 DUP4 SWAP1 PUSH4 0x70A08231 SWAP1 PUSH1 0x24 ADD PUSH1 0x20 PUSH1 0x40 MLOAD DUP1 DUP4 SUB DUP2 DUP7 GAS STATICCALL ISZERO DUP1 ISZERO PUSH2 0x906 JUMPI RETURNDATASIZE PUSH1 0x0 DUP1 RETURNDATACOPY RETURNDATASIZE PUSH1 0x0 REVERT JUMPDEST POP POP POP POP PUSH1 0x40 MLOAD RETURNDATASIZE PUSH1 0x1F NOT PUSH1 0x1F DUP3 ADD AND DUP3 ADD DUP1 PUSH1 0x40 MSTORE POP DUP2 ADD SWAP1 PUSH2 0x92A SWAP2 SWAP1 PUSH2 0xCA8 JUMP JUMPDEST PUSH1 0x40 MLOAD PUSH1 0x1 PUSH1 0x1 PUSH1 0xE0 SHL SUB NOT PUSH1 0xE0 DUP6 SWAP1 SHL AND DUP2 MSTORE PUSH1 0x1 PUSH1 0x1 PUSH1 0xA0 SHL SUB SWAP1 SWAP3 AND PUSH1 0x4 DUP4 ADD MSTORE PUSH1 0x24 DUP3 ADD MSTORE PUSH1 0x44 ADD PUSH1 0x20 PUSH1 0x40 MLOAD DUP1 DUP4 SUB DUP2 PUSH1 0x0 DUP8 GAS CALL ISZERO DUP1 ISZERO PUSH2 0x975 JUMPI RETURNDATASIZE PUSH1 0x0 DUP1 RETURNDATACOPY RETURNDATASIZE PUSH1 0x0 REVERT JUMPDEST POP POP POP POP PUSH1 0x40 MLOAD RETURNDATASIZE PUSH1 0x1F NOT PUSH1 0x1F DUP3 ADD AND DUP3 ADD DUP1 PUSH1 0x40 MSTORE POP DUP2 ADD SWAP1 PUSH2 0x999 SWAP2 SWAP1 PUSH2 0xCC1 JUMP JUMPDEST POP PUSH1 0x2 SLOAD PUSH1 0x40 MLOAD PUSH4 0x70A08231 PUSH1 0xE0 SHL DUP2 MSTORE ADDRESS PUSH1 0x4 DUP3 ADD MSTORE PUSH1 0x1 PUSH1 0x1 PUSH1 0xA0 SHL SUB SWAP1 SWAP2 AND SWAP1 PUSH4 0xA9059CBB SWAP1 CALLER SWAP1 DUP4 SWAP1 PUSH4 0x70A08231 SWAP1 PUSH1 0x24 ADD PUSH1 0x20 PUSH1 0x40 MLOAD DUP1 DUP4 SUB DUP2 DUP7 GAS STATICCALL ISZERO DUP1 ISZERO PUSH2 0x9EC JUMPI RETURNDATASIZE PUSH1 0x0 DUP1 RETURNDATACOPY RETURNDATASIZE PUSH1 0x0 REVERT JUMPDEST POP POP POP POP PUSH1 0x40 MLOAD RETURNDATASIZE PUSH1 0x1F NOT PUSH1 0x1F DUP3 ADD AND DUP3 ADD DUP1 PUSH1 0x40 MSTORE POP DUP2 ADD SWAP1 PUSH2 0xA10 SWAP2 SWAP1 PUSH2 0xCA8 JUMP JUMPDEST PUSH1 0x40 MLOAD PUSH1 0x1 PUSH1 0x1 PUSH1 0xE0 SHL SUB NOT PUSH1 0xE0 DUP6 SWAP1 SHL AND DUP2 MSTORE PUSH1 0x1 PUSH1 0x1 PUSH1 0xA0 SHL SUB SWAP1 SWAP3 AND PUSH1 0x4 DUP4 ADD MSTORE PUSH1 0x24 DUP3 ADD MSTORE PUSH1 0x44 ADD PUSH1 0x20 PUSH1 0x40 MLOAD DUP1 DUP4 SUB DUP2 PUSH1 0x0 DUP8 GAS CALL ISZERO DUP1 ISZERO PUSH2 0xA5B JUMPI RETURNDATASIZE PUSH1 0x0 DUP1 RETURNDATACOPY RETURNDATASIZE PUSH1 0x0 REVERT JUMPDEST POP POP POP POP PUSH1 0x40 MLOAD RETURNDATASIZE PUSH1 0x1F NOT PUSH1 0x1F DUP3 ADD AND DUP3 ADD DUP1 PUSH1 0x40 MSTORE POP DUP2 ADD SWAP1 PUSH2 0xA7F SWAP2 SWAP1 PUSH2 0xCC1 JUMP JUMPDEST POP JUMP JUMPDEST PUSH2 0xA8A PUSH2 0xAF8 JUMP JUMPDEST PUSH1 0x1 PUSH1 0x1 PUSH1 0xA0 SHL SUB DUP2 AND PUSH2 0xAEF JUMPI PUSH1 0x40 MLOAD PUSH3 0x461BCD PUSH1 0xE5 SHL DUP2 MSTORE PUSH1 0x20 PUSH1 0x4 DUP3 ADD MSTORE PUSH1 0x26 PUSH1 0x24 DUP3 ADD MSTORE PUSH32 0x4F776E61626C653A206E6577206F776E657220697320746865207A65726F2061 PUSH1 0x44 DUP3 ADD MSTORE PUSH6 0x646472657373 PUSH1 0xD0 SHL PUSH1 0x64 DUP3 ADD MSTORE PUSH1 0x84 ADD PUSH2 0x3B9 JUMP JUMPDEST PUSH2 0xA7F DUP2 PUSH2 0xB52 JUMP JUMPDEST PUSH1 0x0 SLOAD PUSH1 0x1 PUSH1 0x1 PUSH1 0xA0 SHL SUB AND CALLER EQ PUSH2 0x8A3 JUMPI PUSH1 0x40 MLOAD PUSH3 0x461BCD PUSH1 0xE5 SHL DUP2 MSTORE PUSH1 0x20 PUSH1 0x4 DUP3 ADD DUP2 SWAP1 MSTORE PUSH1 0x24 DUP3 ADD MSTORE PUSH32 0x4F776E61626C653A2063616C6C6572206973206E6F7420746865206F776E6572 PUSH1 0x44 DUP3 ADD MSTORE PUSH1 0x64 ADD PUSH2 0x3B9 JUMP JUMPDEST PUSH1 0x0 DUP1 SLOAD PUSH1 0x1 PUSH1 0x1 PUSH1 0xA0 SHL SUB DUP4 DUP2 AND PUSH1 0x1 PUSH1 0x1 PUSH1 0xA0 SHL SUB NOT DUP4 AND DUP2 OR DUP5 SSTORE PUSH1 0x40 MLOAD SWAP2 SWAP1 SWAP3 AND SWAP3 DUP4 SWAP2 PUSH32 0x8BE0079C531659141344CD1FD0A4F28419497F9722A3DAAFE3B4186F6B6457E0 SWAP2 SWAP1 LOG3 POP POP JUMP JUMPDEST PUSH1 0x0 PUSH1 0x20 DUP3 DUP5 SUB SLT ISZERO PUSH2 0xBB4 JUMPI PUSH1 0x0 DUP1 REVERT JUMPDEST DUP2 CALLDATALOAD PUSH1 0x1 PUSH1 0x1 PUSH1 0xA0 SHL SUB DUP2 AND DUP2 EQ PUSH2 0xBCB JUMPI PUSH1 0x0 DUP1 REVERT JUMPDEST SWAP4 SWAP3 POP POP POP JUMP JUMPDEST PUSH1 0x0 PUSH1 0x20 DUP3 DUP5 SUB SLT ISZERO PUSH2 0xBE4 JUMPI PUSH1 0x0 DUP1 REVERT JUMPDEST POP CALLDATALOAD SWAP2 SWAP1 POP JUMP JUMPDEST PUSH4 0x4E487B71 PUSH1 0xE0 SHL PUSH1 0x0 MSTORE PUSH1 0x21 PUSH1 0x4 MSTORE PUSH1 0x24 PUSH1 0x0 REVERT JUMPDEST PUSH1 0x20 DUP2 ADD PUSH1 0x8 DUP4 LT PUSH2 0xC23 JUMPI PUSH4 0x4E487B71 PUSH1 0xE0 SHL PUSH1 0x0 MSTORE PUSH1 0x21 PUSH1 0x4 MSTORE PUSH1 0x24 PUSH1 0x0 REVERT JUMPDEST SWAP2 SWAP1 MSTORE SWAP1 JUMP JUMPDEST PUSH1 0x0 DUP1 PUSH1 0x0 PUSH1 0x60 DUP5 DUP7 SUB SLT ISZERO PUSH2 0xC3E JUMPI PUSH1 0x0 DUP1 REVERT JUMPDEST POP POP DUP2 CALLDATALOAD SWAP4 PUSH1 0x20 DUP4 ADD CALLDATALOAD SWAP4 POP PUSH1 0x40 SWAP1 SWAP3 ADD CALLDATALOAD SWAP2 SWAP1 POP JUMP JUMPDEST PUSH1 0x0 DUP1 PUSH1 0x40 DUP4 DUP6 SUB SLT ISZERO PUSH2 0xC68 JUMPI PUSH1 0x0 DUP1 REVERT JUMPDEST DUP3 CALLDATALOAD PUSH1 0xFF DUP2 AND DUP2 EQ PUSH2 0xC79 JUMPI PUSH1 0x0 DUP1 REVERT JUMPDEST SWAP5 PUSH1 0x20 SWAP4 SWAP1 SWAP4 ADD CALLDATALOAD SWAP4 POP POP POP JUMP JUMPDEST PUSH1 0x0 PUSH1 0x20 DUP3 DUP5 SUB SLT ISZERO PUSH2 0xC99 JUMPI PUSH1 0x0 DUP1 REVERT JUMPDEST DUP2 MLOAD PUSH1 0x8 DUP2 LT PUSH2 0xBCB JUMPI PUSH1 0x0 DUP1 REVERT JUMPDEST PUSH1 0x0 PUSH1 0x20 DUP3 DUP5 SUB SLT ISZERO PUSH2 0xCBA JUMPI PUSH1 0x0 DUP1 REVERT JUMPDEST POP MLOAD SWAP2 SWAP1 POP JUMP JUMPDEST PUSH1 0x0 PUSH1 0x20 DUP3 DUP5 SUB SLT ISZERO PUSH2 0xCD3 JUMPI PUSH1 0x0 DUP1 REVERT JUMPDEST DUP2 MLOAD DUP1 ISZERO ISZERO DUP2 EQ PUSH2 0xBCB JUMPI PUSH1 0x0 DUP1 REVERT INVALID LOG2 PUSH5 0x6970667358 0x22 SLT KECCAK256 SWAP15 SGT 0xDD SDIV SELFDESTRUCT ADDRESS PUSH10 0xA57DF210CA023C8AF2D6 DUP12 SWAP4 GASPRICE 0xE5 SLOAD 0x27 ORIGIN 0xA5 PUSH12 0xB6CF41ACD0D64736F6C6343 STOP ADDMOD 0xF STOP CALLER ",
  "sha1": "8d7c9a06b309280cbef51f352f241d805257199c",
  "source": "\n// SPDX-License-Identifier: MIT\n\n\npragma solidity ^0.8.15;\n\nimport \"@openzeppelin/contracts/governance/IGovernor.sol\";\nimport \"@openzeppelin/contracts/token/ERC20/IERC20.sol\";\nimport \"@openzeppelin/contracts/access/Ownable.sol\";\nimport \"@openzeppelin/contracts/governance/utils/IVotes.sol\";\nimport \"../interfaces/ITokenPool.sol\";\nimport \"../Proxies/VoteProxyFactory.sol\";\n\n\n/*\n\n _______   ________  ________   _______  ________          ___      ___ ________  _________  _______   ________      \n|\\  ___ \\ |\\   __  \\|\\   ____\\ /  ___  \\|\\   __  \\        |\\  \\    /  /|\\   __  \\|\\___   ___\\\\  ___ \\ |\\   ____\\     \n\\ \\   __/|\\ \\  \\|\\  \\ \\  \\___|/__/|_/  /\\ \\  \\|\\  \\       \\ \\  \\  /  / | \\  \\|\\  \\|___ \\  \\_\\ \\   __/|\\ \\  \\___|_    \n \\ \\  \\_|/_\\ \\   _  _\\ \\  \\   |__|//  / /\\ \\  \\\\\\  \\       \\ \\  \\/  / / \\ \\  \\\\\\  \\   \\ \\  \\ \\ \\  \\_|/_\\ \\_____  \\   \n  \\ \\  \\_|\\ \\ \\  \\\\  \\\\ \\  \\____  /  /_/__\\ \\  \\\\\\  \\       \\ \\    / /   \\ \\  \\\\\\  \\   \\ \\  \\ \\ \\  \\_|\\ \\|____|\\  \\  \n   \\ \\_______\\ \\__\\\\ _\\\\ \\_______\\\\________\\ \\_______\\       \\ \\__/ /     \\ \\_______\\   \\ \\__\\ \\ \\_______\\____\\_\\  \\ \n    \\|_______|\\|__|\\|__|\\|_______|\\|_______|\\|_______|        \\|__|/       \\|_______|    \\|__|  \\|_______|\\_________\\\n                                                                                                         \\|_________|\n*/\n\ncontract VoteProxyERC20Votes is Ownable{\n\n    /// -----------------------------\n    ///         Storage\n    /// -----------------------------\n\n    address public governanceToken;\n    address public treasuryToken;\n    address public governor;\n    address public tokenPool;\n    address public proxyFactory;\n    bool public isGovernorAlpha;\n\n    /// -----------------------------\n    ///         Events\n    /// -----------------------------\n\n    /**\n    * @dev Emitted when a user votes.\n    */\n    event VoteCasted(uint256 proposalID, uint vote);\n\n    /**\n    * @dev Emitted when a user delegates voting power.\n    */\n    event VoteDelegated(address delegate);\n\n    /// -----------------------------\n    ///         Constructor\n    /// -----------------------------\n\n    /**\n    * @dev Constructor for the VoteProxyERC20 contract \n    *   - Immediately self delegates voting power  \n    *   - Sets owner of the contract to the user\n    *   - Sets proxy factory as msg.sender \n    * TODO:\n    *    1. The treasury token address will be a fixed address\n    *    2. Token pool will be fixed address\n    * @param _governanceToken: address - The address of the governance token\n    * @param _governor: address - The address of the governor contract for the DAO\n    * @param _tokenPool: address - The address of the token pool contract that the token came from\n    * @param _user: address - Address of the end user  \n    * @param _treasuryToken: address - Tresaury token address\n    */\n\n    constructor(\n        address _governanceToken,\n        address _governor,\n        address _tokenPool,\n        address _user,\n        address _treasuryToken,\n        bool _isGovernorAlpha) {\n        transferOwnership(_user);\n        governanceToken = _governanceToken;\n        governor = _governor;\n        tokenPool = _tokenPool;\n        proxyFactory = msg.sender;\n        treasuryToken = _treasuryToken;\n        isGovernorAlpha = _isGovernorAlpha;\n    }\n\n    /// -----------------------------\n    ///         External\n    /// -----------------------------\n\n    /**\n    * @dev Vote with amount of governance token stored in contract. \n    *    - Sends TSRY back to the user.\n    *    - Sends back all GT to token pool.\n    * @param _vote: uint8 - Vote (0,1,2)\n    *   Against: 0\n    *   For: 1\n    *   Abstain: 2\n    * @param _proposalID: uint256 - Specific proposal\n    */\n    function proxyVote(uint8 _vote, uint256 _proposalID) external onlyOwner {\n        if(isGovernorAlpha) {\n            require(_vote == 0 || _vote == 1, \"Governor Alpha only accepts bool type voting (0 or 1)\");\n            _vote == 1 ? IGovernorAlpha(governor).castVote(_proposalID, true) : IGovernorAlpha(governor).castVote(_proposalID, false);\n        } else {\n            IGovernor(governor).castVote(_proposalID, _vote);\n        }\n        deFundMe();\n        emit VoteCasted(_proposalID, _vote);\n    }\n\n    /**\n    * @dev (for now you can only fully defund) - Avoids conversion from GT --> TSRY\n    *     - Sends back all GT to token pool.\n    *     - Sends back TSRY to user\n    */\n    function deFundMe() public onlyOwner {\n        IERC20(governanceToken).transfer(tokenPool, IERC20(governanceToken).balanceOf(address(this)));\n        IERC20(treasuryToken).transfer(msg.sender, IERC20(treasuryToken).balanceOf(address(this)));\n    }\n\n    /**\n    * @dev Stakes treasury and makes an external call to the voteproxyfactory\n    * in order to fund this contract with the corresponding amount of governance token\n    * @param _stakeAmount: uint - Amount user has to deposit into this contract\n    * @param _tsryPrice: uint - for testing, the price of tsry.\n    */\n    function fundMe(uint256 _stakeAmount, uint _proposalID ,uint256 _tsryPrice) external onlyOwner {\n        // Amount is calculated from the price of TSRY to GT.\n        // If TSRY is worth 1$ and GT is worth 2$ --> 2 TSRY == 1 GT\n        // User calls contract with 10 TSRY, only 5 GT gets transferred to proxy\n        // This gets reflected in the UI (i.e. user will be able to see how much GT they are entitled to vote with)\n        // This value also gets checked against the amount of GT currently in the pool. If the value is more than the balanceOF GT\n        // in the pool, then the proxy only gets the remaining amount of GT sent.\n        // E.g User wants to vote with 10 TSRY worth of GT, there is only 3 GT remaining in the pool. Proxy only receives 3 GT.\n        // This also gets reflected in the UI (the amount of GT they are entitled too also gets affected by amount of GT in the pool).\n        // Should be able to query the token pool to get this information.\n\n        require(getState(_proposalID) == IGovernor.ProposalState.Pending, 'Can only fund proxy if proposal is pending');\n        \n        uint256 totalBalancePool = IERC20(governanceToken).balanceOf(tokenPool);\n        // checks pool has more than 0 GT, does this check before proxy is funded to avoid chain of external calls\n        require(totalBalancePool > 0, \"Token Pool has no more GT\");\n        require (_stakeAmount > 0, \"Please fund with more TSRY \");\n        \n        // remember to approve this address \n\n        bool transferSuccess = IERC20(treasuryToken).transferFrom(msg.sender, address(this), _stakeAmount);\n        require(transferSuccess, 'TSRY stake trasnfer was not successful');\n        \n        // call for factory to send correct amount of governance token\n        ITokenPool(tokenPool).fundProxy(_stakeAmount, governanceToken, msg.sender, _tsryPrice);\n\n        IVotes(governanceToken).delegate(address(this));\n    }\n\n    /**\n    * @dev Delegates voting power of this contract to another address.\n    * @param _delegate: address - Address of delegate.\n    */\n    function delegateVotingRights(address _delegate) external onlyOwner {\n        IVotes(governanceToken).delegate(_delegate);\n        emit VoteDelegated(_delegate);\n    }\n\n    /// -----------------------------\n    ///         View\n    /// -----------------------------\n\n    /**\n    * @dev Retrieves current state of the proposal  \n    * @return ProposalState - The state of the proposal\n    *    Pending: 0\n    *    Active: 1\n    *    Canceled: 2\n    *    Defeated: 3 \n    *    Succeeded: 4\n    *    Queued: 5\n    *    Expired: 6\n    *    Executed: 7\n    */\n    function getState(uint _proposalID) public view returns (IGovernor.ProposalState) {\n        return IGovernor(governor).state(_proposalID);\n    }\n\n}\n\ninterface IGovernorAlpha {\n    function castVote(uint, bool) external;\n}",
  "sourcePath": "contracts/Proxies/VoteProxyERC20Votes.sol",
  "type": "contract"
}